{
	"contracts/PureView.sol": {
		"ViewAndPure": {
			"abi": [
				{
					"inputs": [
						{
							"internalType": "uint256",
							"name": "i",
							"type": "uint256"
						},
						{
							"internalType": "uint256",
							"name": "j",
							"type": "uint256"
						}
					],
					"name": "add",
					"outputs": [
						{
							"internalType": "uint256",
							"name": "",
							"type": "uint256"
						}
					],
					"stateMutability": "pure",
					"type": "function"
				},
				{
					"inputs": [
						{
							"internalType": "uint256",
							"name": "y",
							"type": "uint256"
						}
					],
					"name": "addToX",
					"outputs": [
						{
							"internalType": "uint256",
							"name": "",
							"type": "uint256"
						}
					],
					"stateMutability": "view",
					"type": "function"
				},
				{
					"inputs": [],
					"name": "x",
					"outputs": [
						{
							"internalType": "uint256",
							"name": "",
							"type": "uint256"
						}
					],
					"stateMutability": "view",
					"type": "function"
				}
			],
			"devdoc": {
				"kind": "dev",
				"methods": {},
				"version": 1
			},
			"evm": {
				"assembly": "    /* \"contracts/PureView.sol\":61:390  contract ViewAndPure {... */\n  mstore(0x40, 0x80)\n    /* \"contracts/PureView.sol\":105:106  1 */\n  0x01\n    /* \"contracts/PureView.sol\":89:106  uint public x = 1 */\n  0x00\n  sstore\n    /* \"contracts/PureView.sol\":61:390  contract ViewAndPure {... */\n  callvalue\n  dup1\n  iszero\n  tag_1\n  jumpi\n  0x00\n  dup1\n  revert\ntag_1:\n  pop\n  dataSize(sub_0)\n  dup1\n  dataOffset(sub_0)\n  0x00\n  codecopy\n  0x00\n  return\nstop\n\nsub_0: assembly {\n        /* \"contracts/PureView.sol\":61:390  contract ViewAndPure {... */\n      mstore(0x40, 0x80)\n      callvalue\n      dup1\n      iszero\n      tag_1\n      jumpi\n      0x00\n      dup1\n      revert\n    tag_1:\n      pop\n      jumpi(tag_2, lt(calldatasize, 0x04))\n      shr(0xe0, calldataload(0x00))\n      dup1\n      0x0c55699c\n      eq\n      tag_3\n      jumpi\n      dup1\n      0x5965da77\n      eq\n      tag_4\n      jumpi\n      dup1\n      0x771602f7\n      eq\n      tag_5\n      jumpi\n    tag_2:\n      0x00\n      dup1\n      revert\n        /* \"contracts/PureView.sol\":89:106  uint public x = 1 */\n    tag_3:\n      tag_6\n      sload(0x00)\n      dup2\n      jump\n    tag_6:\n      mload(0x40)\n        /* \"#utility.yul\":160:185   */\n      swap1\n      dup2\n      mstore\n        /* \"#utility.yul\":148:150   */\n      0x20\n        /* \"#utility.yul\":133:151   */\n      add\n        /* \"contracts/PureView.sol\":89:106  uint public x = 1 */\n      mload(0x40)\n      dup1\n      swap2\n      sub\n      swap1\n      return\n        /* \"contracts/PureView.sol\":156:238  function addToX(uint y) public view returns (uint) {... */\n    tag_4:\n      tag_6\n      tag_11\n      calldatasize\n      0x04\n      tag_12\n      jump\t// in\n    tag_11:\n      tag_13\n      jump\t// in\n        /* \"contracts/PureView.sol\":300:387  function add(uint i, uint j) public pure returns (uint) {... */\n    tag_5:\n      tag_6\n      tag_16\n      calldatasize\n      0x04\n      tag_17\n      jump\t// in\n    tag_16:\n      tag_18\n      jump\t// in\n        /* \"contracts/PureView.sol\":156:238  function addToX(uint y) public view returns (uint) {... */\n    tag_13:\n        /* \"contracts/PureView.sol\":201:205  uint */\n      0x00\n        /* \"contracts/PureView.sol\":229:230  y */\n      dup2\n        /* \"contracts/PureView.sol\":225:226  x */\n      sload(0x00)\n        /* \"contracts/PureView.sol\":225:230  x + y */\n      tag_21\n      swap2\n      swap1\n      tag_22\n      jump\t// in\n    tag_21:\n        /* \"contracts/PureView.sol\":218:230  return x + y */\n      swap3\n        /* \"contracts/PureView.sol\":156:238  function addToX(uint y) public view returns (uint) {... */\n      swap2\n      pop\n      pop\n      jump\t// out\n        /* \"contracts/PureView.sol\":300:387  function add(uint i, uint j) public pure returns (uint) {... */\n    tag_18:\n        /* \"contracts/PureView.sol\":350:354  uint */\n      0x00\n        /* \"contracts/PureView.sol\":374:379  i + j */\n      tag_24\n        /* \"contracts/PureView.sol\":378:379  j */\n      dup3\n        /* \"contracts/PureView.sol\":374:375  i */\n      dup5\n        /* \"contracts/PureView.sol\":374:379  i + j */\n      tag_22\n      jump\t// in\n    tag_24:\n        /* \"contracts/PureView.sol\":367:379  return i + j */\n      swap4\n        /* \"contracts/PureView.sol\":300:387  function add(uint i, uint j) public pure returns (uint) {... */\n      swap3\n      pop\n      pop\n      pop\n      jump\t// out\n        /* \"#utility.yul\":196:376   */\n    tag_12:\n        /* \"#utility.yul\":255:261   */\n      0x00\n        /* \"#utility.yul\":308:310   */\n      0x20\n        /* \"#utility.yul\":296:305   */\n      dup3\n        /* \"#utility.yul\":287:294   */\n      dup5\n        /* \"#utility.yul\":283:306   */\n      sub\n        /* \"#utility.yul\":279:311   */\n      slt\n        /* \"#utility.yul\":276:328   */\n      iszero\n      tag_28\n      jumpi\n        /* \"#utility.yul\":324:325   */\n      0x00\n        /* \"#utility.yul\":321:322   */\n      dup1\n        /* \"#utility.yul\":314:326   */\n      revert\n        /* \"#utility.yul\":276:328   */\n    tag_28:\n      pop\n        /* \"#utility.yul\":347:370   */\n      calldataload\n      swap2\n        /* \"#utility.yul\":196:376   */\n      swap1\n      pop\n      jump\t// out\n        /* \"#utility.yul\":381:629   */\n    tag_17:\n        /* \"#utility.yul\":449:455   */\n      0x00\n        /* \"#utility.yul\":457:463   */\n      dup1\n        /* \"#utility.yul\":510:512   */\n      0x40\n        /* \"#utility.yul\":498:507   */\n      dup4\n        /* \"#utility.yul\":489:496   */\n      dup6\n        /* \"#utility.yul\":485:508   */\n      sub\n        /* \"#utility.yul\":481:513   */\n      slt\n        /* \"#utility.yul\":478:530   */\n      iszero\n      tag_30\n      jumpi\n        /* \"#utility.yul\":526:527   */\n      0x00\n        /* \"#utility.yul\":523:524   */\n      dup1\n        /* \"#utility.yul\":516:528   */\n      revert\n        /* \"#utility.yul\":478:530   */\n    tag_30:\n      pop\n      pop\n        /* \"#utility.yul\":549:572   */\n      dup1\n      calldataload\n      swap3\n        /* \"#utility.yul\":619:621   */\n      0x20\n        /* \"#utility.yul\":604:622   */\n      swap1\n      swap2\n      add\n        /* \"#utility.yul\":591:623   */\n      calldataload\n      swap2\n      pop\n        /* \"#utility.yul\":381:629   */\n      jump\t// out\n        /* \"#utility.yul\":634:859   */\n    tag_22:\n        /* \"#utility.yul\":674:677   */\n      0x00\n        /* \"#utility.yul\":705:706   */\n      dup3\n        /* \"#utility.yul\":701:707   */\n      not\n        /* \"#utility.yul\":698:699   */\n      dup3\n        /* \"#utility.yul\":695:708   */\n      gt\n        /* \"#utility.yul\":692:828   */\n      iszero\n      tag_32\n      jumpi\n        /* \"#utility.yul\":750:760   */\n      0x4e487b71\n        /* \"#utility.yul\":745:748   */\n      0xe0\n        /* \"#utility.yul\":741:761   */\n      shl\n        /* \"#utility.yul\":738:739   */\n      0x00\n        /* \"#utility.yul\":731:762   */\n      mstore\n        /* \"#utility.yul\":785:789   */\n      0x11\n        /* \"#utility.yul\":782:783   */\n      0x04\n        /* \"#utility.yul\":775:790   */\n      mstore\n        /* \"#utility.yul\":813:817   */\n      0x24\n        /* \"#utility.yul\":810:811   */\n      0x00\n        /* \"#utility.yul\":803:818   */\n      revert\n        /* \"#utility.yul\":692:828   */\n    tag_32:\n      pop\n        /* \"#utility.yul\":844:853   */\n      add\n      swap1\n        /* \"#utility.yul\":634:859   */\n      jump\t// out\n\n    auxdata: 0xa2646970667358221220aa733a3767029152de802348ca464ca486f02a22a76cf554674615862a7a10f364736f6c634300080d0033\n}\n",
				"bytecode": {
					"linkReferences": {},
					"object": "6080604052600160005534801561001557600080fd5b50610132806100256000396000f3fe6080604052348015600f57600080fd5b5060043610603c5760003560e01c80630c55699c1460415780635965da7714605b578063771602f714606a575b600080fd5b604960005481565b60405190815260200160405180910390f35b60496066366004609e565b6079565b6049607536600460b6565b608d565b6000816000546087919060d7565b92915050565b60006097828460d7565b9392505050565b60006020828403121560af57600080fd5b5035919050565b6000806040838503121560c857600080fd5b50508035926020909101359150565b6000821982111560f757634e487b7160e01b600052601160045260246000fd5b50019056fea2646970667358221220aa733a3767029152de802348ca464ca486f02a22a76cf554674615862a7a10f364736f6c634300080d0033",
					"opcodes": "PUSH1 0x80 PUSH1 0x40 MSTORE PUSH1 0x1 PUSH1 0x0 SSTORE CALLVALUE DUP1 ISZERO PUSH2 0x15 JUMPI PUSH1 0x0 DUP1 REVERT JUMPDEST POP PUSH2 0x132 DUP1 PUSH2 0x25 PUSH1 0x0 CODECOPY PUSH1 0x0 RETURN INVALID PUSH1 0x80 PUSH1 0x40 MSTORE CALLVALUE DUP1 ISZERO PUSH1 0xF JUMPI PUSH1 0x0 DUP1 REVERT JUMPDEST POP PUSH1 0x4 CALLDATASIZE LT PUSH1 0x3C JUMPI PUSH1 0x0 CALLDATALOAD PUSH1 0xE0 SHR DUP1 PUSH4 0xC55699C EQ PUSH1 0x41 JUMPI DUP1 PUSH4 0x5965DA77 EQ PUSH1 0x5B JUMPI DUP1 PUSH4 0x771602F7 EQ PUSH1 0x6A JUMPI JUMPDEST PUSH1 0x0 DUP1 REVERT JUMPDEST PUSH1 0x49 PUSH1 0x0 SLOAD DUP2 JUMP JUMPDEST PUSH1 0x40 MLOAD SWAP1 DUP2 MSTORE PUSH1 0x20 ADD PUSH1 0x40 MLOAD DUP1 SWAP2 SUB SWAP1 RETURN JUMPDEST PUSH1 0x49 PUSH1 0x66 CALLDATASIZE PUSH1 0x4 PUSH1 0x9E JUMP JUMPDEST PUSH1 0x79 JUMP JUMPDEST PUSH1 0x49 PUSH1 0x75 CALLDATASIZE PUSH1 0x4 PUSH1 0xB6 JUMP JUMPDEST PUSH1 0x8D JUMP JUMPDEST PUSH1 0x0 DUP2 PUSH1 0x0 SLOAD PUSH1 0x87 SWAP2 SWAP1 PUSH1 0xD7 JUMP JUMPDEST SWAP3 SWAP2 POP POP JUMP JUMPDEST PUSH1 0x0 PUSH1 0x97 DUP3 DUP5 PUSH1 0xD7 JUMP JUMPDEST SWAP4 SWAP3 POP POP POP JUMP JUMPDEST PUSH1 0x0 PUSH1 0x20 DUP3 DUP5 SUB SLT ISZERO PUSH1 0xAF JUMPI PUSH1 0x0 DUP1 REVERT JUMPDEST POP CALLDATALOAD SWAP2 SWAP1 POP JUMP JUMPDEST PUSH1 0x0 DUP1 PUSH1 0x40 DUP4 DUP6 SUB SLT ISZERO PUSH1 0xC8 JUMPI PUSH1 0x0 DUP1 REVERT JUMPDEST POP POP DUP1 CALLDATALOAD SWAP3 PUSH1 0x20 SWAP1 SWAP2 ADD CALLDATALOAD SWAP2 POP JUMP JUMPDEST PUSH1 0x0 DUP3 NOT DUP3 GT ISZERO PUSH1 0xF7 JUMPI PUSH4 0x4E487B71 PUSH1 0xE0 SHL PUSH1 0x0 MSTORE PUSH1 0x11 PUSH1 0x4 MSTORE PUSH1 0x24 PUSH1 0x0 REVERT JUMPDEST POP ADD SWAP1 JUMP INVALID LOG2 PUSH5 0x6970667358 0x22 SLT KECCAK256 0xAA PUSH20 0x3A3767029152DE802348CA464CA486F02A22A76C CREATE2 SLOAD PUSH8 0x4615862A7A10F364 PUSH20 0x6F6C634300080D00330000000000000000000000 "
				},
				"gasEstimates": {
					"creation": {
						"codeDepositCost": "61200",
						"executionCost": "22217",
						"totalCost": "83417"
					},
					"external": {
						"add(uint256,uint256)": "396",
						"addToX(uint256)": "2455",
						"x()": "2261"
					}
				},
				"methodIdentifiers": {
					"add(uint256,uint256)": "771602f7",
					"addToX(uint256)": "5965da77",
					"x()": "0c55699c"
				}
			},
			"storageLayout": {
				"storage": [
					{
						"astId": 4,
						"contract": "contracts/PureView.sol:ViewAndPure",
						"label": "x",
						"offset": 0,
						"slot": "0",
						"type": "t_uint256"
					}
				],
				"types": {
					"t_uint256": {
						"encoding": "inplace",
						"label": "uint256",
						"numberOfBytes": "32"
					}
				}
			},
			"userdoc": {
				"kind": "user",
				"methods": {},
				"version": 1
			}
		}
	}
}