{
	"contracts/Visibility.sol": {
		"Base": {
			"abi": [
				{
					"inputs": [],
					"name": "externalFunc",
					"outputs": [
						{
							"internalType": "string",
							"name": "",
							"type": "string"
						}
					],
					"stateMutability": "pure",
					"type": "function"
				},
				{
					"inputs": [],
					"name": "publicFunc",
					"outputs": [
						{
							"internalType": "string",
							"name": "",
							"type": "string"
						}
					],
					"stateMutability": "pure",
					"type": "function"
				},
				{
					"inputs": [],
					"name": "publicVar",
					"outputs": [
						{
							"internalType": "string",
							"name": "",
							"type": "string"
						}
					],
					"stateMutability": "view",
					"type": "function"
				},
				{
					"inputs": [],
					"name": "testInternalFunc",
					"outputs": [
						{
							"internalType": "string",
							"name": "",
							"type": "string"
						}
					],
					"stateMutability": "pure",
					"type": "function"
				},
				{
					"inputs": [],
					"name": "testPrivateFunc",
					"outputs": [
						{
							"internalType": "string",
							"name": "",
							"type": "string"
						}
					],
					"stateMutability": "pure",
					"type": "function"
				}
			],
			"devdoc": {
				"kind": "dev",
				"methods": {},
				"version": 1
			},
			"evm": {
				"assembly": "    /* \"contracts/Visibility.sol\":1563:1612  string private privateVar = \"my private variable\" */\n  0xc0\n    /* \"contracts/Visibility.sol\":61:1861  contract Base {... */\n  0x40\n    /* \"contracts/Visibility.sol\":1563:1612  string private privateVar = \"my private variable\" */\n  mstore\n  0x13\n    /* \"contracts/Visibility.sol\":61:1861  contract Base {... */\n  0x80\n    /* \"contracts/Visibility.sol\":1563:1612  string private privateVar = \"my private variable\" */\n  dup2\n  swap1\n  mstore\n  0x6d792070726976617465207661726961626c6500000000000000000000000000\n  0xa0\n  swap1\n  dup2\n  mstore\n  tag_1\n  swap2\n  0x00\n  swap2\n  swap1\n  tag_2\n  jump\t// in\ntag_1:\n  pop\n    /* \"contracts/Visibility.sol\":1619:1671  string internal internalVar = \"my internal variable\" */\n  0x40\n  dup1\n  mload\n  dup1\n  dup3\n  add\n  swap1\n  swap2\n  mstore\n  0x14\n  dup1\n  dup3\n  mstore\n  0x6d7920696e7465726e616c207661726961626c65000000000000000000000000\n  0x20\n  swap1\n  swap3\n  add\n  swap2\n  dup3\n  mstore\n  tag_3\n  swap2\n  0x01\n  swap2\n  tag_2\n  jump\t// in\ntag_3:\n  pop\n    /* \"contracts/Visibility.sol\":1678:1724  string public publicVar = \"my public variable\" */\n  0x40\n  dup1\n  mload\n  dup1\n  dup3\n  add\n  swap1\n  swap2\n  mstore\n  0x12\n  dup1\n  dup3\n  mstore\n  shl(0x70, 0x6d79207075626c6963207661726961626c65)\n  0x20\n  swap1\n  swap3\n  add\n  swap2\n  dup3\n  mstore\n  tag_4\n  swap2\n  0x02\n  swap2\n  tag_2\n  jump\t// in\ntag_4:\n  pop\n    /* \"contracts/Visibility.sol\":61:1861  contract Base {... */\n  callvalue\n  dup1\n  iszero\n  tag_5\n  jumpi\n  0x00\n  dup1\n  revert\ntag_5:\n  pop\n  jump(tag_18)\ntag_2:\n  dup3\n  dup1\n  sload\n  tag_7\n  swap1\n  tag_8\n  jump\t// in\ntag_7:\n  swap1\n  0x00\n  mstore\n  keccak256(0x00, 0x20)\n  swap1\n  0x1f\n  add\n  0x20\n  swap1\n  div\n  dup2\n  add\n  swap3\n  dup3\n  tag_10\n  jumpi\n  0x00\n  dup6\n  sstore\n  jump(tag_13)\ntag_10:\n  dup3\n  0x1f\n  lt\n  tag_11\n  jumpi\n  dup1\n  mload\n  not(0xff)\n  and\n  dup4\n  dup1\n  add\n  or\n  dup6\n  sstore\n  jump(tag_13)\ntag_11:\n  dup3\n  dup1\n  add\n  0x01\n  add\n  dup6\n  sstore\n  dup3\n  iszero\n  tag_13\n  jumpi\n  swap2\n  dup3\n  add\ntag_12:\n  dup3\n  dup2\n  gt\n  iszero\n  tag_13\n  jumpi\n  dup3\n  mload\n  dup3\n  sstore\n  swap2\n  0x20\n  add\n  swap2\n  swap1\n  0x01\n  add\n  swap1\n  jump(tag_12)\ntag_13:\n  pop\n  tag_14\n  swap3\n  swap2\n  pop\n  tag_15\n  jump\t// in\ntag_14:\n  pop\n  swap1\n  jump\t// out\ntag_15:\ntag_16:\n  dup1\n  dup3\n  gt\n  iszero\n  tag_14\n  jumpi\n  0x00\n  dup2\n  sstore\n  0x01\n  add\n  jump(tag_16)\n    /* \"#utility.yul\":14:394   */\ntag_8:\n    /* \"#utility.yul\":93:94   */\n  0x01\n    /* \"#utility.yul\":89:101   */\n  dup2\n  dup2\n  shr\n  swap1\n    /* \"#utility.yul\":136:148   */\n  dup3\n  and\n  dup1\n    /* \"#utility.yul\":157:218   */\n  tag_20\n  jumpi\n    /* \"#utility.yul\":211:215   */\n  0x7f\n    /* \"#utility.yul\":203:209   */\n  dup3\n    /* \"#utility.yul\":199:216   */\n  and\n    /* \"#utility.yul\":189:216   */\n  swap2\n  pop\n    /* \"#utility.yul\":157:218   */\ntag_20:\n    /* \"#utility.yul\":264:266   */\n  0x20\n    /* \"#utility.yul\":256:262   */\n  dup3\n    /* \"#utility.yul\":253:267   */\n  lt\n    /* \"#utility.yul\":233:251   */\n  dup2\n    /* \"#utility.yul\":230:268   */\n  sub\n    /* \"#utility.yul\":227:388   */\n  tag_21\n  jumpi\n    /* \"#utility.yul\":310:320   */\n  0x4e487b71\n    /* \"#utility.yul\":305:308   */\n  0xe0\n    /* \"#utility.yul\":301:321   */\n  shl\n    /* \"#utility.yul\":298:299   */\n  0x00\n    /* \"#utility.yul\":291:322   */\n  mstore\n    /* \"#utility.yul\":345:349   */\n  0x22\n    /* \"#utility.yul\":342:343   */\n  0x04\n    /* \"#utility.yul\":335:350   */\n  mstore\n    /* \"#utility.yul\":373:377   */\n  0x24\n    /* \"#utility.yul\":370:371   */\n  0x00\n    /* \"#utility.yul\":363:378   */\n  revert\n    /* \"#utility.yul\":227:388   */\ntag_21:\n  pop\n    /* \"#utility.yul\":14:394   */\n  swap2\n  swap1\n  pop\n  jump\t// out\ntag_18:\n    /* \"contracts/Visibility.sol\":61:1861  contract Base {... */\n  dataSize(sub_0)\n  dup1\n  dataOffset(sub_0)\n  0x00\n  codecopy\n  0x00\n  return\nstop\n\nsub_0: assembly {\n        /* \"contracts/Visibility.sol\":61:1861  contract Base {... */\n      mstore(0x40, 0x80)\n      callvalue\n      dup1\n      iszero\n      tag_1\n      jumpi\n      0x00\n      dup1\n      revert\n    tag_1:\n      pop\n      jumpi(tag_2, lt(calldatasize, 0x04))\n      shr(0xe0, calldataload(0x00))\n      dup1\n      0x0eb13f87\n      eq\n      tag_3\n      jumpi\n      dup1\n      0x1151fad8\n      eq\n      tag_4\n      jumpi\n      dup1\n      0x42b148aa\n      eq\n      tag_5\n      jumpi\n      dup1\n      0x4b73383f\n      eq\n      tag_6\n      jumpi\n      dup1\n      0xe8e46c41\n      eq\n      tag_7\n      jumpi\n    tag_2:\n      0x00\n      dup1\n      revert\n        /* \"contracts/Visibility.sol\":348:450  function testPrivateFunc() public pure returns (string memory) {... */\n    tag_3:\n      tag_8\n      tag_9\n      jump\t// in\n    tag_8:\n      mload(0x40)\n      tag_10\n      swap2\n      swap1\n      tag_11\n      jump\t// in\n    tag_10:\n      mload(0x40)\n      dup1\n      swap2\n      sub\n      swap1\n      return\n        /* \"contracts/Visibility.sol\":1678:1724  string public publicVar = \"my public variable\" */\n    tag_4:\n      tag_8\n      tag_13\n      jump\t// in\n        /* \"contracts/Visibility.sol\":1195:1309  function externalFunc() external pure returns (string memory) {... */\n    tag_5:\n        /* \"contracts/Visibility.sol\":1268:1301  return \"external function called\" */\n      0x40\n      dup1\n      mload\n      dup1\n      dup3\n      add\n      swap1\n      swap2\n      mstore\n      0x18\n      dup2\n      mstore\n      0x65787465726e616c2066756e6374696f6e2063616c6c65640000000000000000\n      0x20\n      dup3\n      add\n      mstore\n        /* \"contracts/Visibility.sol\":1195:1309  function externalFunc() external pure returns (string memory) {... */\n      jump(tag_8)\n        /* \"contracts/Visibility.sol\":991:1099  function publicFunc() public pure returns (string memory) {... */\n    tag_6:\n        /* \"contracts/Visibility.sol\":1060:1091  return \"public function called\" */\n      0x40\n      dup1\n      mload\n      dup1\n      dup3\n      add\n      swap1\n      swap2\n      mstore\n      0x16\n      dup2\n      mstore\n      shl(0x52, 0x1c1d589b1a58c8199d5b98dd1a5bdb8818d85b1b1959)\n      0x20\n      dup3\n      add\n      mstore\n        /* \"contracts/Visibility.sol\":991:1099  function publicFunc() public pure returns (string memory) {... */\n      jump(tag_8)\n        /* \"contracts/Visibility.sol\":705:817  function testInternalFunc() public pure virtual returns (string memory) {... */\n    tag_7:\n      tag_8\n      tag_22\n      jump\t// in\n        /* \"contracts/Visibility.sol\":348:450  function testPrivateFunc() public pure returns (string memory) {... */\n    tag_9:\n        /* \"contracts/Visibility.sol\":396:409  string memory */\n      0x60\n        /* \"contracts/Visibility.sol\":429:442  privateFunc() */\n      tag_25\n        /* \"contracts/Visibility.sol\":300:332  return \"private function called\" */\n      0x40\n      dup1\n      mload\n      dup1\n      dup3\n      add\n      swap1\n      swap2\n      mstore\n      0x17\n      dup2\n      mstore\n      shl(0x4a, 0x1c1c9a5d985d1948199d5b98dd1a5bdb8818d85b1b1959)\n      0x20\n      dup3\n      add\n      mstore\n      swap1\n        /* \"contracts/Visibility.sol\":229:340  function privateFunc() private pure returns (string memory) {... */\n      jump\n        /* \"contracts/Visibility.sol\":429:442  privateFunc() */\n    tag_25:\n        /* \"contracts/Visibility.sol\":422:442  return privateFunc() */\n      swap1\n      pop\n        /* \"contracts/Visibility.sol\":348:450  function testPrivateFunc() public pure returns (string memory) {... */\n      swap1\n      jump\t// out\n        /* \"contracts/Visibility.sol\":1678:1724  string public publicVar = \"my public variable\" */\n    tag_13:\n      0x02\n      dup1\n      sload\n      tag_27\n      swap1\n      tag_28\n      jump\t// in\n    tag_27:\n      dup1\n      0x1f\n      add\n      0x20\n      dup1\n      swap2\n      div\n      mul\n      0x20\n      add\n      mload(0x40)\n      swap1\n      dup2\n      add\n      0x40\n      mstore\n      dup1\n      swap3\n      swap2\n      swap1\n      dup2\n      dup2\n      mstore\n      0x20\n      add\n      dup3\n      dup1\n      sload\n      tag_29\n      swap1\n      tag_28\n      jump\t// in\n    tag_29:\n      dup1\n      iszero\n      tag_30\n      jumpi\n      dup1\n      0x1f\n      lt\n      tag_31\n      jumpi\n      0x0100\n      dup1\n      dup4\n      sload\n      div\n      mul\n      dup4\n      mstore\n      swap2\n      0x20\n      add\n      swap2\n      jump(tag_30)\n    tag_31:\n      dup3\n      add\n      swap2\n      swap1\n      0x00\n      mstore\n      keccak256(0x00, 0x20)\n      swap1\n    tag_32:\n      dup2\n      sload\n      dup2\n      mstore\n      swap1\n      0x01\n      add\n      swap1\n      0x20\n      add\n      dup1\n      dup4\n      gt\n      tag_32\n      jumpi\n      dup3\n      swap1\n      sub\n      0x1f\n      and\n      dup3\n      add\n      swap2\n    tag_30:\n      pop\n      pop\n      pop\n      pop\n      pop\n      dup2\n      jump\t// out\n        /* \"contracts/Visibility.sol\":705:817  function testInternalFunc() public pure virtual returns (string memory) {... */\n    tag_22:\n        /* \"contracts/Visibility.sol\":762:775  string memory */\n      0x60\n        /* \"contracts/Visibility.sol\":795:809  internalFunc() */\n      tag_25\n        /* \"contracts/Visibility.sol\":656:689  return \"internal function called\" */\n      0x40\n      dup1\n      mload\n      dup1\n      dup3\n      add\n      swap1\n      swap2\n      mstore\n      0x18\n      dup2\n      mstore\n      0x696e7465726e616c2066756e6374696f6e2063616c6c65640000000000000000\n      0x20\n      dup3\n      add\n      mstore\n      swap1\n        /* \"contracts/Visibility.sol\":583:697  function internalFunc() internal pure returns (string memory) {... */\n      jump\n        /* \"#utility.yul\":14:611   */\n    tag_11:\n        /* \"#utility.yul\":126:130   */\n      0x00\n        /* \"#utility.yul\":155:157   */\n      0x20\n        /* \"#utility.yul\":184:186   */\n      dup1\n        /* \"#utility.yul\":173:182   */\n      dup4\n        /* \"#utility.yul\":166:187   */\n      mstore\n        /* \"#utility.yul\":216:222   */\n      dup4\n        /* \"#utility.yul\":210:223   */\n      mload\n        /* \"#utility.yul\":259:265   */\n      dup1\n        /* \"#utility.yul\":254:256   */\n      dup3\n        /* \"#utility.yul\":243:252   */\n      dup6\n        /* \"#utility.yul\":239:257   */\n      add\n        /* \"#utility.yul\":232:266   */\n      mstore\n        /* \"#utility.yul\":284:285   */\n      0x00\n        /* \"#utility.yul\":294:434   */\n    tag_42:\n        /* \"#utility.yul\":308:314   */\n      dup2\n        /* \"#utility.yul\":305:306   */\n      dup2\n        /* \"#utility.yul\":302:315   */\n      lt\n        /* \"#utility.yul\":294:434   */\n      iszero\n      tag_44\n      jumpi\n        /* \"#utility.yul\":403:417   */\n      dup6\n      dup2\n      add\n        /* \"#utility.yul\":399:422   */\n      dup4\n      add\n        /* \"#utility.yul\":393:423   */\n      mload\n        /* \"#utility.yul\":369:386   */\n      dup6\n      dup3\n      add\n        /* \"#utility.yul\":388:390   */\n      0x40\n        /* \"#utility.yul\":365:391   */\n      add\n        /* \"#utility.yul\":358:424   */\n      mstore\n        /* \"#utility.yul\":323:333   */\n      dup3\n      add\n        /* \"#utility.yul\":294:434   */\n      jump(tag_42)\n    tag_44:\n        /* \"#utility.yul\":452:458   */\n      dup2\n        /* \"#utility.yul\":449:450   */\n      dup2\n        /* \"#utility.yul\":446:459   */\n      gt\n        /* \"#utility.yul\":443:534   */\n      iszero\n      tag_45\n      jumpi\n        /* \"#utility.yul\":522:523   */\n      0x00\n        /* \"#utility.yul\":517:519   */\n      0x40\n        /* \"#utility.yul\":508:514   */\n      dup4\n        /* \"#utility.yul\":497:506   */\n      dup8\n        /* \"#utility.yul\":493:515   */\n      add\n        /* \"#utility.yul\":489:520   */\n      add\n        /* \"#utility.yul\":482:524   */\n      mstore\n        /* \"#utility.yul\":443:534   */\n    tag_45:\n      pop\n        /* \"#utility.yul\":595:597   */\n      0x1f\n        /* \"#utility.yul\":574:589   */\n      add\n      not(0x1f)\n        /* \"#utility.yul\":570:599   */\n      and\n        /* \"#utility.yul\":555:600   */\n      swap3\n      swap1\n      swap3\n      add\n        /* \"#utility.yul\":602:604   */\n      0x40\n        /* \"#utility.yul\":551:605   */\n      add\n      swap4\n        /* \"#utility.yul\":14:611   */\n      swap3\n      pop\n      pop\n      pop\n      jump\t// out\n        /* \"#utility.yul\":616:996   */\n    tag_28:\n        /* \"#utility.yul\":695:696   */\n      0x01\n        /* \"#utility.yul\":691:703   */\n      dup2\n      dup2\n      shr\n      swap1\n        /* \"#utility.yul\":738:750   */\n      dup3\n      and\n      dup1\n        /* \"#utility.yul\":759:820   */\n      tag_47\n      jumpi\n        /* \"#utility.yul\":813:817   */\n      0x7f\n        /* \"#utility.yul\":805:811   */\n      dup3\n        /* \"#utility.yul\":801:818   */\n      and\n        /* \"#utility.yul\":791:818   */\n      swap2\n      pop\n        /* \"#utility.yul\":759:820   */\n    tag_47:\n        /* \"#utility.yul\":866:868   */\n      0x20\n        /* \"#utility.yul\":858:864   */\n      dup3\n        /* \"#utility.yul\":855:869   */\n      lt\n        /* \"#utility.yul\":835:853   */\n      dup2\n        /* \"#utility.yul\":832:870   */\n      sub\n        /* \"#utility.yul\":829:990   */\n      tag_48\n      jumpi\n        /* \"#utility.yul\":912:922   */\n      0x4e487b71\n        /* \"#utility.yul\":907:910   */\n      0xe0\n        /* \"#utility.yul\":903:923   */\n      shl\n        /* \"#utility.yul\":900:901   */\n      0x00\n        /* \"#utility.yul\":893:924   */\n      mstore\n        /* \"#utility.yul\":947:951   */\n      0x22\n        /* \"#utility.yul\":944:945   */\n      0x04\n        /* \"#utility.yul\":937:952   */\n      mstore\n        /* \"#utility.yul\":975:979   */\n      0x24\n        /* \"#utility.yul\":972:973   */\n      0x00\n        /* \"#utility.yul\":965:980   */\n      revert\n        /* \"#utility.yul\":829:990   */\n    tag_48:\n      pop\n        /* \"#utility.yul\":616:996   */\n      swap2\n      swap1\n      pop\n      jump\t// out\n\n    auxdata: 0xa2646970667358221220be039729f6abe4ca1821f36c8182292dbc99db322fba3b96650f4b99162d38e064736f6c634300080d0033\n}\n",
				"bytecode": {
					"linkReferences": {},
					"object": "60c0604052601360808190527f6d792070726976617465207661726961626c650000000000000000000000000060a090815261003e91600091906100d0565b506040805180820190915260148082527f6d7920696e7465726e616c207661726961626c650000000000000000000000006020909201918252610083916001916100d0565b50604080518082019091526012808252716d79207075626c6963207661726961626c6560701b60209092019182526100bd916002916100d0565b503480156100ca57600080fd5b506101a3565b8280546100dc90610169565b90600052602060002090601f0160209004810192826100fe5760008555610144565b82601f1061011757805160ff1916838001178555610144565b82800160010185558215610144579182015b82811115610144578251825591602001919060010190610129565b50610150929150610154565b5090565b5b808211156101505760008155600101610155565b600181811c9082168061017d57607f821691505b60208210810361019d57634e487b7160e01b600052602260045260246000fd5b50919050565b6102bf806101b26000396000f3fe608060405234801561001057600080fd5b50600436106100575760003560e01c80630eb13f871461005c5780631151fad81461007a57806342b148aa146100825780634b73383f146100bb578063e8e46c41146100ed575b600080fd5b6100646100f5565b60405161007191906101fa565b60405180910390f35b610064610130565b60408051808201909152601881527f65787465726e616c2066756e6374696f6e2063616c6c656400000000000000006020820152610064565b6040805180820190915260168152751c1d589b1a58c8199d5b98dd1a5bdb8818d85b1b195960521b6020820152610064565b6100646101be565b606061012b6040805180820190915260178152761c1c9a5d985d1948199d5b98dd1a5bdb8818d85b1b1959604a1b602082015290565b905090565b6002805461013d9061024f565b80601f01602080910402602001604051908101604052809291908181526020018280546101699061024f565b80156101b65780601f1061018b576101008083540402835291602001916101b6565b820191906000526020600020905b81548152906001019060200180831161019957829003601f168201915b505050505081565b606061012b60408051808201909152601881527f696e7465726e616c2066756e6374696f6e2063616c6c65640000000000000000602082015290565b600060208083528351808285015260005b818110156102275785810183015185820160400152820161020b565b81811115610239576000604083870101525b50601f01601f1916929092016040019392505050565b600181811c9082168061026357607f821691505b60208210810361028357634e487b7160e01b600052602260045260246000fd5b5091905056fea2646970667358221220be039729f6abe4ca1821f36c8182292dbc99db322fba3b96650f4b99162d38e064736f6c634300080d0033",
					"opcodes": "PUSH1 0xC0 PUSH1 0x40 MSTORE PUSH1 0x13 PUSH1 0x80 DUP2 SWAP1 MSTORE PUSH32 0x6D792070726976617465207661726961626C6500000000000000000000000000 PUSH1 0xA0 SWAP1 DUP2 MSTORE PUSH2 0x3E SWAP2 PUSH1 0x0 SWAP2 SWAP1 PUSH2 0xD0 JUMP JUMPDEST POP PUSH1 0x40 DUP1 MLOAD DUP1 DUP3 ADD SWAP1 SWAP2 MSTORE PUSH1 0x14 DUP1 DUP3 MSTORE PUSH32 0x6D7920696E7465726E616C207661726961626C65000000000000000000000000 PUSH1 0x20 SWAP1 SWAP3 ADD SWAP2 DUP3 MSTORE PUSH2 0x83 SWAP2 PUSH1 0x1 SWAP2 PUSH2 0xD0 JUMP JUMPDEST POP PUSH1 0x40 DUP1 MLOAD DUP1 DUP3 ADD SWAP1 SWAP2 MSTORE PUSH1 0x12 DUP1 DUP3 MSTORE PUSH18 0x6D79207075626C6963207661726961626C65 PUSH1 0x70 SHL PUSH1 0x20 SWAP1 SWAP3 ADD SWAP2 DUP3 MSTORE PUSH2 0xBD SWAP2 PUSH1 0x2 SWAP2 PUSH2 0xD0 JUMP JUMPDEST POP CALLVALUE DUP1 ISZERO PUSH2 0xCA JUMPI PUSH1 0x0 DUP1 REVERT JUMPDEST POP PUSH2 0x1A3 JUMP JUMPDEST DUP3 DUP1 SLOAD PUSH2 0xDC SWAP1 PUSH2 0x169 JUMP JUMPDEST SWAP1 PUSH1 0x0 MSTORE PUSH1 0x20 PUSH1 0x0 KECCAK256 SWAP1 PUSH1 0x1F ADD PUSH1 0x20 SWAP1 DIV DUP2 ADD SWAP3 DUP3 PUSH2 0xFE JUMPI PUSH1 0x0 DUP6 SSTORE PUSH2 0x144 JUMP JUMPDEST DUP3 PUSH1 0x1F LT PUSH2 0x117 JUMPI DUP1 MLOAD PUSH1 0xFF NOT AND DUP4 DUP1 ADD OR DUP6 SSTORE PUSH2 0x144 JUMP JUMPDEST DUP3 DUP1 ADD PUSH1 0x1 ADD DUP6 SSTORE DUP3 ISZERO PUSH2 0x144 JUMPI SWAP2 DUP3 ADD JUMPDEST DUP3 DUP2 GT ISZERO PUSH2 0x144 JUMPI DUP3 MLOAD DUP3 SSTORE SWAP2 PUSH1 0x20 ADD SWAP2 SWAP1 PUSH1 0x1 ADD SWAP1 PUSH2 0x129 JUMP JUMPDEST POP PUSH2 0x150 SWAP3 SWAP2 POP PUSH2 0x154 JUMP JUMPDEST POP SWAP1 JUMP JUMPDEST JUMPDEST DUP1 DUP3 GT ISZERO PUSH2 0x150 JUMPI PUSH1 0x0 DUP2 SSTORE PUSH1 0x1 ADD PUSH2 0x155 JUMP JUMPDEST PUSH1 0x1 DUP2 DUP2 SHR SWAP1 DUP3 AND DUP1 PUSH2 0x17D JUMPI PUSH1 0x7F DUP3 AND SWAP2 POP JUMPDEST PUSH1 0x20 DUP3 LT DUP2 SUB PUSH2 0x19D JUMPI PUSH4 0x4E487B71 PUSH1 0xE0 SHL PUSH1 0x0 MSTORE PUSH1 0x22 PUSH1 0x4 MSTORE PUSH1 0x24 PUSH1 0x0 REVERT JUMPDEST POP SWAP2 SWAP1 POP JUMP JUMPDEST PUSH2 0x2BF DUP1 PUSH2 0x1B2 PUSH1 0x0 CODECOPY PUSH1 0x0 RETURN INVALID PUSH1 0x80 PUSH1 0x40 MSTORE CALLVALUE DUP1 ISZERO PUSH2 0x10 JUMPI PUSH1 0x0 DUP1 REVERT JUMPDEST POP PUSH1 0x4 CALLDATASIZE LT PUSH2 0x57 JUMPI PUSH1 0x0 CALLDATALOAD PUSH1 0xE0 SHR DUP1 PUSH4 0xEB13F87 EQ PUSH2 0x5C JUMPI DUP1 PUSH4 0x1151FAD8 EQ PUSH2 0x7A JUMPI DUP1 PUSH4 0x42B148AA EQ PUSH2 0x82 JUMPI DUP1 PUSH4 0x4B73383F EQ PUSH2 0xBB JUMPI DUP1 PUSH4 0xE8E46C41 EQ PUSH2 0xED JUMPI JUMPDEST PUSH1 0x0 DUP1 REVERT JUMPDEST PUSH2 0x64 PUSH2 0xF5 JUMP JUMPDEST PUSH1 0x40 MLOAD PUSH2 0x71 SWAP2 SWAP1 PUSH2 0x1FA JUMP JUMPDEST PUSH1 0x40 MLOAD DUP1 SWAP2 SUB SWAP1 RETURN JUMPDEST PUSH2 0x64 PUSH2 0x130 JUMP JUMPDEST PUSH1 0x40 DUP1 MLOAD DUP1 DUP3 ADD SWAP1 SWAP2 MSTORE PUSH1 0x18 DUP2 MSTORE PUSH32 0x65787465726E616C2066756E6374696F6E2063616C6C65640000000000000000 PUSH1 0x20 DUP3 ADD MSTORE PUSH2 0x64 JUMP JUMPDEST PUSH1 0x40 DUP1 MLOAD DUP1 DUP3 ADD SWAP1 SWAP2 MSTORE PUSH1 0x16 DUP2 MSTORE PUSH22 0x1C1D589B1A58C8199D5B98DD1A5BDB8818D85B1B1959 PUSH1 0x52 SHL PUSH1 0x20 DUP3 ADD MSTORE PUSH2 0x64 JUMP JUMPDEST PUSH2 0x64 PUSH2 0x1BE JUMP JUMPDEST PUSH1 0x60 PUSH2 0x12B PUSH1 0x40 DUP1 MLOAD DUP1 DUP3 ADD SWAP1 SWAP2 MSTORE PUSH1 0x17 DUP2 MSTORE PUSH23 0x1C1C9A5D985D1948199D5B98DD1A5BDB8818D85B1B1959 PUSH1 0x4A SHL PUSH1 0x20 DUP3 ADD MSTORE SWAP1 JUMP JUMPDEST SWAP1 POP SWAP1 JUMP JUMPDEST PUSH1 0x2 DUP1 SLOAD PUSH2 0x13D SWAP1 PUSH2 0x24F JUMP JUMPDEST DUP1 PUSH1 0x1F ADD PUSH1 0x20 DUP1 SWAP2 DIV MUL PUSH1 0x20 ADD PUSH1 0x40 MLOAD SWAP1 DUP2 ADD PUSH1 0x40 MSTORE DUP1 SWAP3 SWAP2 SWAP1 DUP2 DUP2 MSTORE PUSH1 0x20 ADD DUP3 DUP1 SLOAD PUSH2 0x169 SWAP1 PUSH2 0x24F JUMP JUMPDEST DUP1 ISZERO PUSH2 0x1B6 JUMPI DUP1 PUSH1 0x1F LT PUSH2 0x18B JUMPI PUSH2 0x100 DUP1 DUP4 SLOAD DIV MUL DUP4 MSTORE SWAP2 PUSH1 0x20 ADD SWAP2 PUSH2 0x1B6 JUMP JUMPDEST DUP3 ADD SWAP2 SWAP1 PUSH1 0x0 MSTORE PUSH1 0x20 PUSH1 0x0 KECCAK256 SWAP1 JUMPDEST DUP2 SLOAD DUP2 MSTORE SWAP1 PUSH1 0x1 ADD SWAP1 PUSH1 0x20 ADD DUP1 DUP4 GT PUSH2 0x199 JUMPI DUP3 SWAP1 SUB PUSH1 0x1F AND DUP3 ADD SWAP2 JUMPDEST POP POP POP POP POP DUP2 JUMP JUMPDEST PUSH1 0x60 PUSH2 0x12B PUSH1 0x40 DUP1 MLOAD DUP1 DUP3 ADD SWAP1 SWAP2 MSTORE PUSH1 0x18 DUP2 MSTORE PUSH32 0x696E7465726E616C2066756E6374696F6E2063616C6C65640000000000000000 PUSH1 0x20 DUP3 ADD MSTORE SWAP1 JUMP JUMPDEST PUSH1 0x0 PUSH1 0x20 DUP1 DUP4 MSTORE DUP4 MLOAD DUP1 DUP3 DUP6 ADD MSTORE PUSH1 0x0 JUMPDEST DUP2 DUP2 LT ISZERO PUSH2 0x227 JUMPI DUP6 DUP2 ADD DUP4 ADD MLOAD DUP6 DUP3 ADD PUSH1 0x40 ADD MSTORE DUP3 ADD PUSH2 0x20B JUMP JUMPDEST DUP2 DUP2 GT ISZERO PUSH2 0x239 JUMPI PUSH1 0x0 PUSH1 0x40 DUP4 DUP8 ADD ADD MSTORE JUMPDEST POP PUSH1 0x1F ADD PUSH1 0x1F NOT AND SWAP3 SWAP1 SWAP3 ADD PUSH1 0x40 ADD SWAP4 SWAP3 POP POP POP JUMP JUMPDEST PUSH1 0x1 DUP2 DUP2 SHR SWAP1 DUP3 AND DUP1 PUSH2 0x263 JUMPI PUSH1 0x7F DUP3 AND SWAP2 POP JUMPDEST PUSH1 0x20 DUP3 LT DUP2 SUB PUSH2 0x283 JUMPI PUSH4 0x4E487B71 PUSH1 0xE0 SHL PUSH1 0x0 MSTORE PUSH1 0x22 PUSH1 0x4 MSTORE PUSH1 0x24 PUSH1 0x0 REVERT JUMPDEST POP SWAP2 SWAP1 POP JUMP INVALID LOG2 PUSH5 0x6970667358 0x22 SLT KECCAK256 0xBE SUB SWAP8 0x29 0xF6 0xAB 0xE4 0xCA XOR 0x21 RETURN PUSH13 0x8182292DBC99DB322FBA3B9665 0xF 0x4B SWAP10 AND 0x2D CODESIZE 0xE0 PUSH5 0x736F6C6343 STOP ADDMOD 0xD STOP CALLER "
				},
				"gasEstimates": {
					"creation": {
						"codeDepositCost": "140600",
						"executionCost": "infinite",
						"totalCost": "infinite"
					},
					"external": {
						"externalFunc()": "infinite",
						"publicFunc()": "infinite",
						"publicVar()": "infinite",
						"testInternalFunc()": "infinite",
						"testPrivateFunc()": "infinite"
					},
					"internal": {
						"internalFunc()": "infinite",
						"privateFunc()": "infinite"
					}
				},
				"methodIdentifiers": {
					"externalFunc()": "42b148aa",
					"publicFunc()": "4b73383f",
					"publicVar()": "1151fad8",
					"testInternalFunc()": "e8e46c41",
					"testPrivateFunc()": "0eb13f87"
				}
			},
			"storageLayout": {
				"storage": [
					{
						"astId": 54,
						"contract": "contracts/Visibility.sol:Base",
						"label": "privateVar",
						"offset": 0,
						"slot": "0",
						"type": "t_string_storage"
					},
					{
						"astId": 57,
						"contract": "contracts/Visibility.sol:Base",
						"label": "internalVar",
						"offset": 0,
						"slot": "1",
						"type": "t_string_storage"
					},
					{
						"astId": 60,
						"contract": "contracts/Visibility.sol:Base",
						"label": "publicVar",
						"offset": 0,
						"slot": "2",
						"type": "t_string_storage"
					}
				],
				"types": {
					"t_string_storage": {
						"encoding": "bytes",
						"label": "string",
						"numberOfBytes": "32"
					}
				}
			},
			"userdoc": {
				"kind": "user",
				"methods": {},
				"version": 1
			}
		}
	}
}