{
	"contracts/SelfDeatructSol.sol": {
		"EtherGame": {
			"abi": [
				{
					"inputs": [],
					"name": "balance",
					"outputs": [
						{
							"internalType": "uint256",
							"name": "",
							"type": "uint256"
						}
					],
					"stateMutability": "view",
					"type": "function"
				},
				{
					"inputs": [],
					"name": "claimReward",
					"outputs": [],
					"stateMutability": "nonpayable",
					"type": "function"
				},
				{
					"inputs": [],
					"name": "deposit",
					"outputs": [],
					"stateMutability": "payable",
					"type": "function"
				},
				{
					"inputs": [],
					"name": "targetAmount",
					"outputs": [
						{
							"internalType": "uint256",
							"name": "",
							"type": "uint256"
						}
					],
					"stateMutability": "view",
					"type": "function"
				},
				{
					"inputs": [],
					"name": "winner",
					"outputs": [
						{
							"internalType": "address",
							"name": "",
							"type": "address"
						}
					],
					"stateMutability": "view",
					"type": "function"
				}
			],
			"devdoc": {
				"kind": "dev",
				"methods": {},
				"version": 1
			},
			"evm": {
				"assembly": "    /* \"contracts/SelfDeatructSol.sol\":61:689  contract EtherGame {... */\n  mstore(0x40, 0x80)\n    /* \"contracts/SelfDeatructSol.sol\":114:121  3 ether */\n  0x29a2241af62c0000\n    /* \"contracts/SelfDeatructSol.sol\":87:121  uint public targetAmount = 3 ether */\n  0x00\n  sstore\n    /* \"contracts/SelfDeatructSol.sol\":61:689  contract EtherGame {... */\n  callvalue\n  dup1\n  iszero\n  tag_1\n  jumpi\n  0x00\n  dup1\n  revert\ntag_1:\n  pop\n  dataSize(sub_0)\n  dup1\n  dataOffset(sub_0)\n  0x00\n  codecopy\n  0x00\n  return\nstop\n\nsub_0: assembly {\n        /* \"contracts/SelfDeatructSol.sol\":61:689  contract EtherGame {... */\n      mstore(0x40, 0x80)\n      jumpi(tag_1, lt(calldatasize, 0x04))\n      shr(0xe0, calldataload(0x00))\n      dup1\n      0x953b8fb8\n      eq\n      tag_2\n      jumpi\n      dup1\n      0xb69ef8a8\n      eq\n      tag_3\n      jumpi\n      dup1\n      0xb88a802f\n      eq\n      tag_4\n      jumpi\n      dup1\n      0xd0e30db0\n      eq\n      tag_5\n      jumpi\n      dup1\n      0xdfbf53ae\n      eq\n      tag_6\n      jumpi\n    tag_1:\n      0x00\n      dup1\n      revert\n        /* \"contracts/SelfDeatructSol.sol\":87:121  uint public targetAmount = 3 ether */\n    tag_2:\n      callvalue\n      dup1\n      iszero\n      tag_7\n      jumpi\n      0x00\n      dup1\n      revert\n    tag_7:\n      pop\n      tag_8\n      sload(0x00)\n      dup2\n      jump\n    tag_8:\n      mload(0x40)\n        /* \"#utility.yul\":160:185   */\n      swap1\n      dup2\n      mstore\n        /* \"#utility.yul\":148:150   */\n      0x20\n        /* \"#utility.yul\":133:151   */\n      add\n        /* \"contracts/SelfDeatructSol.sol\":87:121  uint public targetAmount = 3 ether */\n    tag_10:\n      mload(0x40)\n      dup1\n      swap2\n      sub\n      swap1\n      return\n        /* \"contracts/SelfDeatructSol.sol\":128:147  uint public balance */\n    tag_3:\n      callvalue\n      dup1\n      iszero\n      tag_12\n      jumpi\n      0x00\n      dup1\n      revert\n    tag_12:\n      pop\n      tag_8\n      sload(0x01)\n      dup2\n      jump\n        /* \"contracts/SelfDeatructSol.sol\":482:686  function claimReward() public {... */\n    tag_4:\n      callvalue\n      dup1\n      iszero\n      tag_16\n      jumpi\n      0x00\n      dup1\n      revert\n    tag_16:\n      pop\n      tag_17\n      tag_18\n      jump\t// in\n    tag_17:\n      stop\n        /* \"contracts/SelfDeatructSol.sol\":184:474  function deposit() public payable {... */\n    tag_5:\n      tag_17\n      tag_20\n      jump\t// in\n        /* \"contracts/SelfDeatructSol.sol\":154:175  address public winner */\n    tag_6:\n      callvalue\n      dup1\n      iszero\n      tag_21\n      jumpi\n      0x00\n      dup1\n      revert\n    tag_21:\n      pop\n      sload(0x02)\n      tag_22\n      swap1\n      sub(shl(0xa0, 0x01), 0x01)\n      and\n      dup2\n      jump\n    tag_22:\n      mload(0x40)\n      sub(shl(0xa0, 0x01), 0x01)\n        /* \"#utility.yul\":360:392   */\n      swap1\n      swap2\n      and\n        /* \"#utility.yul\":342:393   */\n      dup2\n      mstore\n        /* \"#utility.yul\":330:332   */\n      0x20\n        /* \"#utility.yul\":315:333   */\n      add\n        /* \"contracts/SelfDeatructSol.sol\":154:175  address public winner */\n      tag_10\n        /* \"#utility.yul\":196:399   */\n      jump\n        /* \"contracts/SelfDeatructSol.sol\":482:686  function claimReward() public {... */\n    tag_18:\n        /* \"contracts/SelfDeatructSol.sol\":545:551  winner */\n      and(sub(shl(0xa0, 0x01), 0x01), sload(0x02))\n        /* \"contracts/SelfDeatructSol.sol\":531:541  msg.sender */\n      caller\n        /* \"contracts/SelfDeatructSol.sol\":531:551  msg.sender == winner */\n      eq\n        /* \"contracts/SelfDeatructSol.sol\":523:566  require(msg.sender == winner, \"Not winner\") */\n      tag_27\n      jumpi\n      mload(0x40)\n      shl(0xe5, 0x461bcd)\n      dup2\n      mstore\n        /* \"#utility.yul\":606:608   */\n      0x20\n        /* \"contracts/SelfDeatructSol.sol\":523:566  require(msg.sender == winner, \"Not winner\") */\n      0x04\n      dup3\n      add\n        /* \"#utility.yul\":588:609   */\n      mstore\n        /* \"#utility.yul\":645:647   */\n      0x0a\n        /* \"#utility.yul\":625:643   */\n      0x24\n      dup3\n      add\n        /* \"#utility.yul\":618:648   */\n      mstore\n      shl(0xb1, 0x2737ba103bb4b73732b9)\n        /* \"#utility.yul\":664:682   */\n      0x44\n      dup3\n      add\n        /* \"#utility.yul\":657:697   */\n      mstore\n        /* \"#utility.yul\":714:732   */\n      0x64\n      add\n        /* \"contracts/SelfDeatructSol.sol\":523:566  require(msg.sender == winner, \"Not winner\") */\n    tag_28:\n      mload(0x40)\n      dup1\n      swap2\n      sub\n      swap1\n      revert\n    tag_27:\n        /* \"contracts/SelfDeatructSol.sol\":618:625  balance */\n      sload(0x01)\n        /* \"contracts/SelfDeatructSol.sol\":595:630  msg.sender.call{value: balance}(\"\") */\n      mload(0x40)\n        /* \"contracts/SelfDeatructSol.sol\":580:589  bool sent */\n      0x00\n      swap2\n        /* \"contracts/SelfDeatructSol.sol\":595:605  msg.sender */\n      caller\n      swap2\n        /* \"contracts/SelfDeatructSol.sol\":580:589  bool sent */\n      dup4\n        /* \"contracts/SelfDeatructSol.sol\":595:630  msg.sender.call{value: balance}(\"\") */\n      dup2\n        /* \"contracts/SelfDeatructSol.sol\":580:589  bool sent */\n      dup2\n        /* \"contracts/SelfDeatructSol.sol\":595:630  msg.sender.call{value: balance}(\"\") */\n      dup2\n        /* \"contracts/SelfDeatructSol.sol\":618:625  balance */\n      dup6\n        /* \"contracts/SelfDeatructSol.sol\":595:605  msg.sender */\n      dup8\n        /* \"contracts/SelfDeatructSol.sol\":595:630  msg.sender.call{value: balance}(\"\") */\n      gas\n      call\n      swap3\n      pop\n      pop\n      pop\n      returndatasize\n      dup1\n      0x00\n      dup2\n      eq\n      tag_34\n      jumpi\n      mload(0x40)\n      swap2\n      pop\n      and(add(returndatasize, 0x3f), not(0x1f))\n      dup3\n      add\n      0x40\n      mstore\n      returndatasize\n      dup3\n      mstore\n      returndatasize\n      0x00\n      0x20\n      dup5\n      add\n      returndatacopy\n      jump(tag_33)\n    tag_34:\n      0x60\n      swap2\n      pop\n    tag_33:\n      pop\n        /* \"contracts/SelfDeatructSol.sol\":579:630  (bool sent, ) = msg.sender.call{value: balance}(\"\") */\n      pop\n      swap1\n      pop\n        /* \"contracts/SelfDeatructSol.sol\":649:653  sent */\n      dup1\n        /* \"contracts/SelfDeatructSol.sol\":641:678  require(sent, \"Failed to send Ether\") */\n      tag_35\n      jumpi\n      mload(0x40)\n      shl(0xe5, 0x461bcd)\n      dup2\n      mstore\n        /* \"#utility.yul\":1155:1157   */\n      0x20\n        /* \"contracts/SelfDeatructSol.sol\":641:678  require(sent, \"Failed to send Ether\") */\n      0x04\n      dup3\n      add\n        /* \"#utility.yul\":1137:1158   */\n      mstore\n        /* \"#utility.yul\":1194:1196   */\n      0x14\n        /* \"#utility.yul\":1174:1192   */\n      0x24\n      dup3\n      add\n        /* \"#utility.yul\":1167:1197   */\n      mstore\n      shl(0x61, 0x2330b4b632b2103a379039b2b7321022ba3432b9)\n        /* \"#utility.yul\":1213:1231   */\n      0x44\n      dup3\n      add\n        /* \"#utility.yul\":1206:1256   */\n      mstore\n        /* \"#utility.yul\":1273:1291   */\n      0x64\n      add\n        /* \"contracts/SelfDeatructSol.sol\":641:678  require(sent, \"Failed to send Ether\") */\n      tag_28\n        /* \"#utility.yul\":953:1297   */\n      jump\n        /* \"contracts/SelfDeatructSol.sol\":641:678  require(sent, \"Failed to send Ether\") */\n    tag_35:\n        /* \"contracts/SelfDeatructSol.sol\":512:686  {... */\n      pop\n        /* \"contracts/SelfDeatructSol.sol\":482:686  function claimReward() public {... */\n      jump\t// out\n        /* \"contracts/SelfDeatructSol.sol\":184:474  function deposit() public payable {... */\n    tag_20:\n        /* \"contracts/SelfDeatructSol.sol\":237:246  msg.value */\n      callvalue\n        /* \"contracts/SelfDeatructSol.sol\":250:257  1 ether */\n      0x0de0b6b3a7640000\n        /* \"contracts/SelfDeatructSol.sol\":237:257  msg.value == 1 ether */\n      eq\n        /* \"contracts/SelfDeatructSol.sol\":229:287  require(msg.value == 1 ether, \"You can only send 1 Ether\") */\n      tag_39\n      jumpi\n      mload(0x40)\n      shl(0xe5, 0x461bcd)\n      dup2\n      mstore\n        /* \"#utility.yul\":1504:1506   */\n      0x20\n        /* \"contracts/SelfDeatructSol.sol\":229:287  require(msg.value == 1 ether, \"You can only send 1 Ether\") */\n      0x04\n      dup3\n      add\n        /* \"#utility.yul\":1486:1507   */\n      mstore\n        /* \"#utility.yul\":1543:1545   */\n      0x19\n        /* \"#utility.yul\":1523:1541   */\n      0x24\n      dup3\n      add\n        /* \"#utility.yul\":1516:1546   */\n      mstore\n        /* \"#utility.yul\":1582:1609   */\n      0x596f752063616e206f6e6c792073656e64203120457468657200000000000000\n        /* \"#utility.yul\":1562:1580   */\n      0x44\n      dup3\n      add\n        /* \"#utility.yul\":1555:1610   */\n      mstore\n        /* \"#utility.yul\":1627:1645   */\n      0x64\n      add\n        /* \"contracts/SelfDeatructSol.sol\":229:287  require(msg.value == 1 ether, \"You can only send 1 Ether\") */\n      tag_28\n        /* \"#utility.yul\":1302:1651   */\n      jump\n        /* \"contracts/SelfDeatructSol.sol\":229:287  require(msg.value == 1 ether, \"You can only send 1 Ether\") */\n    tag_39:\n        /* \"contracts/SelfDeatructSol.sol\":311:320  msg.value */\n      callvalue\n        /* \"contracts/SelfDeatructSol.sol\":300:307  balance */\n      0x01\n      0x00\n        /* \"contracts/SelfDeatructSol.sol\":300:320  balance += msg.value */\n      dup3\n      dup3\n      sload\n      tag_42\n      swap2\n      swap1\n      tag_43\n      jump\t// in\n    tag_42:\n      swap1\n      swap2\n      sstore\n      pop\n      pop\n        /* \"contracts/SelfDeatructSol.sol\":350:362  targetAmount */\n      sload(0x00)\n        /* \"contracts/SelfDeatructSol.sol\":339:346  balance */\n      sload(0x01)\n        /* \"contracts/SelfDeatructSol.sol\":339:362  balance <= targetAmount */\n      gt\n      iszero\n        /* \"contracts/SelfDeatructSol.sol\":331:379  require(balance <= targetAmount, \"Game is over\") */\n      tag_44\n      jumpi\n      mload(0x40)\n      shl(0xe5, 0x461bcd)\n      dup2\n      mstore\n        /* \"#utility.yul\":2088:2090   */\n      0x20\n        /* \"contracts/SelfDeatructSol.sol\":331:379  require(balance <= targetAmount, \"Game is over\") */\n      0x04\n      dup3\n      add\n        /* \"#utility.yul\":2070:2091   */\n      mstore\n        /* \"#utility.yul\":2127:2129   */\n      0x0c\n        /* \"#utility.yul\":2107:2125   */\n      0x24\n      dup3\n      add\n        /* \"#utility.yul\":2100:2130   */\n      mstore\n      shl(0xa1, 0x23b0b6b29034b99037bb32b9)\n        /* \"#utility.yul\":2146:2164   */\n      0x44\n      dup3\n      add\n        /* \"#utility.yul\":2139:2181   */\n      mstore\n        /* \"#utility.yul\":2198:2216   */\n      0x64\n      add\n        /* \"contracts/SelfDeatructSol.sol\":331:379  require(balance <= targetAmount, \"Game is over\") */\n      tag_28\n        /* \"#utility.yul\":1886:2222   */\n      jump\n        /* \"contracts/SelfDeatructSol.sol\":331:379  require(balance <= targetAmount, \"Game is over\") */\n    tag_44:\n        /* \"contracts/SelfDeatructSol.sol\":407:419  targetAmount */\n      sload(0x00)\n        /* \"contracts/SelfDeatructSol.sol\":396:403  balance */\n      sload(0x01)\n        /* \"contracts/SelfDeatructSol.sol\":396:419  balance == targetAmount */\n      sub\n        /* \"contracts/SelfDeatructSol.sol\":392:467  if (balance == targetAmount) {... */\n      tag_47\n      jumpi\n        /* \"contracts/SelfDeatructSol.sol\":436:442  winner */\n      0x02\n        /* \"contracts/SelfDeatructSol.sol\":436:455  winner = msg.sender */\n      dup1\n      sload\n      not(sub(shl(0xa0, 0x01), 0x01))\n      and\n        /* \"contracts/SelfDeatructSol.sol\":445:455  msg.sender */\n      caller\n        /* \"contracts/SelfDeatructSol.sol\":436:455  winner = msg.sender */\n      or\n      swap1\n      sstore\n        /* \"contracts/SelfDeatructSol.sol\":392:467  if (balance == targetAmount) {... */\n    tag_47:\n        /* \"contracts/SelfDeatructSol.sol\":184:474  function deposit() public payable {... */\n      jump\t// out\n        /* \"#utility.yul\":1656:1881   */\n    tag_43:\n        /* \"#utility.yul\":1696:1699   */\n      0x00\n        /* \"#utility.yul\":1727:1728   */\n      dup3\n        /* \"#utility.yul\":1723:1729   */\n      not\n        /* \"#utility.yul\":1720:1721   */\n      dup3\n        /* \"#utility.yul\":1717:1730   */\n      gt\n        /* \"#utility.yul\":1714:1850   */\n      iszero\n      tag_56\n      jumpi\n        /* \"#utility.yul\":1772:1782   */\n      0x4e487b71\n        /* \"#utility.yul\":1767:1770   */\n      0xe0\n        /* \"#utility.yul\":1763:1783   */\n      shl\n        /* \"#utility.yul\":1760:1761   */\n      0x00\n        /* \"#utility.yul\":1753:1784   */\n      mstore\n        /* \"#utility.yul\":1807:1811   */\n      0x11\n        /* \"#utility.yul\":1804:1805   */\n      0x04\n        /* \"#utility.yul\":1797:1812   */\n      mstore\n        /* \"#utility.yul\":1835:1839   */\n      0x24\n        /* \"#utility.yul\":1832:1833   */\n      0x00\n        /* \"#utility.yul\":1825:1840   */\n      revert\n        /* \"#utility.yul\":1714:1850   */\n    tag_56:\n      pop\n        /* \"#utility.yul\":1866:1875   */\n      add\n      swap1\n        /* \"#utility.yul\":1656:1881   */\n      jump\t// out\n\n    auxdata: 0xa2646970667358221220aaee92b576b43928d34313a0ee698b573a569a4b332e0fd0bd8682076de4b6dd64736f6c634300080d0033\n}\n",
				"bytecode": {
					"linkReferences": {},
					"object": "60806040526729a2241af62c000060005534801561001c57600080fd5b506102f18061002c6000396000f3fe60806040526004361061004a5760003560e01c8063953b8fb81461004f578063b69ef8a814610078578063b88a802f1461008e578063d0e30db0146100a5578063dfbf53ae146100ad575b600080fd5b34801561005b57600080fd5b5061006560005481565b6040519081526020015b60405180910390f35b34801561008457600080fd5b5061006560015481565b34801561009a57600080fd5b506100a36100e5565b005b6100a36101c4565b3480156100b957600080fd5b506002546100cd906001600160a01b031681565b6040516001600160a01b03909116815260200161006f565b6002546001600160a01b031633146101315760405162461bcd60e51b815260206004820152600a6024820152692737ba103bb4b73732b960b11b60448201526064015b60405180910390fd5b60015460405160009133918381818185875af1925050503d8060008114610174576040519150601f19603f3d011682016040523d82523d6000602084013e610179565b606091505b50509050806101c15760405162461bcd60e51b81526020600482015260146024820152732330b4b632b2103a379039b2b7321022ba3432b960611b6044820152606401610128565b50565b34670de0b6b3a76400001461021b5760405162461bcd60e51b815260206004820152601960248201527f596f752063616e206f6e6c792073656e642031204574686572000000000000006044820152606401610128565b346001600082825461022d9190610295565b909155505060005460015411156102755760405162461bcd60e51b815260206004820152600c60248201526b23b0b6b29034b99037bb32b960a11b6044820152606401610128565b6000546001540361029357600280546001600160a01b031916331790555b565b600082198211156102b657634e487b7160e01b600052601160045260246000fd5b50019056fea2646970667358221220aaee92b576b43928d34313a0ee698b573a569a4b332e0fd0bd8682076de4b6dd64736f6c634300080d0033",
					"opcodes": "PUSH1 0x80 PUSH1 0x40 MSTORE PUSH8 0x29A2241AF62C0000 PUSH1 0x0 SSTORE CALLVALUE DUP1 ISZERO PUSH2 0x1C JUMPI PUSH1 0x0 DUP1 REVERT JUMPDEST POP PUSH2 0x2F1 DUP1 PUSH2 0x2C PUSH1 0x0 CODECOPY PUSH1 0x0 RETURN INVALID PUSH1 0x80 PUSH1 0x40 MSTORE PUSH1 0x4 CALLDATASIZE LT PUSH2 0x4A JUMPI PUSH1 0x0 CALLDATALOAD PUSH1 0xE0 SHR DUP1 PUSH4 0x953B8FB8 EQ PUSH2 0x4F JUMPI DUP1 PUSH4 0xB69EF8A8 EQ PUSH2 0x78 JUMPI DUP1 PUSH4 0xB88A802F EQ PUSH2 0x8E JUMPI DUP1 PUSH4 0xD0E30DB0 EQ PUSH2 0xA5 JUMPI DUP1 PUSH4 0xDFBF53AE EQ PUSH2 0xAD JUMPI JUMPDEST PUSH1 0x0 DUP1 REVERT JUMPDEST CALLVALUE DUP1 ISZERO PUSH2 0x5B JUMPI PUSH1 0x0 DUP1 REVERT JUMPDEST POP PUSH2 0x65 PUSH1 0x0 SLOAD DUP2 JUMP JUMPDEST PUSH1 0x40 MLOAD SWAP1 DUP2 MSTORE PUSH1 0x20 ADD JUMPDEST PUSH1 0x40 MLOAD DUP1 SWAP2 SUB SWAP1 RETURN JUMPDEST CALLVALUE DUP1 ISZERO PUSH2 0x84 JUMPI PUSH1 0x0 DUP1 REVERT JUMPDEST POP PUSH2 0x65 PUSH1 0x1 SLOAD DUP2 JUMP JUMPDEST CALLVALUE DUP1 ISZERO PUSH2 0x9A JUMPI PUSH1 0x0 DUP1 REVERT JUMPDEST POP PUSH2 0xA3 PUSH2 0xE5 JUMP JUMPDEST STOP JUMPDEST PUSH2 0xA3 PUSH2 0x1C4 JUMP JUMPDEST CALLVALUE DUP1 ISZERO PUSH2 0xB9 JUMPI PUSH1 0x0 DUP1 REVERT JUMPDEST POP PUSH1 0x2 SLOAD PUSH2 0xCD SWAP1 PUSH1 0x1 PUSH1 0x1 PUSH1 0xA0 SHL SUB AND DUP2 JUMP JUMPDEST PUSH1 0x40 MLOAD PUSH1 0x1 PUSH1 0x1 PUSH1 0xA0 SHL SUB SWAP1 SWAP2 AND DUP2 MSTORE PUSH1 0x20 ADD PUSH2 0x6F JUMP JUMPDEST PUSH1 0x2 SLOAD PUSH1 0x1 PUSH1 0x1 PUSH1 0xA0 SHL SUB AND CALLER EQ PUSH2 0x131 JUMPI PUSH1 0x40 MLOAD PUSH3 0x461BCD PUSH1 0xE5 SHL DUP2 MSTORE PUSH1 0x20 PUSH1 0x4 DUP3 ADD MSTORE PUSH1 0xA PUSH1 0x24 DUP3 ADD MSTORE PUSH10 0x2737BA103BB4B73732B9 PUSH1 0xB1 SHL PUSH1 0x44 DUP3 ADD MSTORE PUSH1 0x64 ADD JUMPDEST PUSH1 0x40 MLOAD DUP1 SWAP2 SUB SWAP1 REVERT JUMPDEST PUSH1 0x1 SLOAD PUSH1 0x40 MLOAD PUSH1 0x0 SWAP2 CALLER SWAP2 DUP4 DUP2 DUP2 DUP2 DUP6 DUP8 GAS CALL SWAP3 POP POP POP RETURNDATASIZE DUP1 PUSH1 0x0 DUP2 EQ PUSH2 0x174 JUMPI PUSH1 0x40 MLOAD SWAP2 POP PUSH1 0x1F NOT PUSH1 0x3F RETURNDATASIZE ADD AND DUP3 ADD PUSH1 0x40 MSTORE RETURNDATASIZE DUP3 MSTORE RETURNDATASIZE PUSH1 0x0 PUSH1 0x20 DUP5 ADD RETURNDATACOPY PUSH2 0x179 JUMP JUMPDEST PUSH1 0x60 SWAP2 POP JUMPDEST POP POP SWAP1 POP DUP1 PUSH2 0x1C1 JUMPI PUSH1 0x40 MLOAD PUSH3 0x461BCD PUSH1 0xE5 SHL DUP2 MSTORE PUSH1 0x20 PUSH1 0x4 DUP3 ADD MSTORE PUSH1 0x14 PUSH1 0x24 DUP3 ADD MSTORE PUSH20 0x2330B4B632B2103A379039B2B7321022BA3432B9 PUSH1 0x61 SHL PUSH1 0x44 DUP3 ADD MSTORE PUSH1 0x64 ADD PUSH2 0x128 JUMP JUMPDEST POP JUMP JUMPDEST CALLVALUE PUSH8 0xDE0B6B3A7640000 EQ PUSH2 0x21B JUMPI PUSH1 0x40 MLOAD PUSH3 0x461BCD PUSH1 0xE5 SHL DUP2 MSTORE PUSH1 0x20 PUSH1 0x4 DUP3 ADD MSTORE PUSH1 0x19 PUSH1 0x24 DUP3 ADD MSTORE PUSH32 0x596F752063616E206F6E6C792073656E64203120457468657200000000000000 PUSH1 0x44 DUP3 ADD MSTORE PUSH1 0x64 ADD PUSH2 0x128 JUMP JUMPDEST CALLVALUE PUSH1 0x1 PUSH1 0x0 DUP3 DUP3 SLOAD PUSH2 0x22D SWAP2 SWAP1 PUSH2 0x295 JUMP JUMPDEST SWAP1 SWAP2 SSTORE POP POP PUSH1 0x0 SLOAD PUSH1 0x1 SLOAD GT ISZERO PUSH2 0x275 JUMPI PUSH1 0x40 MLOAD PUSH3 0x461BCD PUSH1 0xE5 SHL DUP2 MSTORE PUSH1 0x20 PUSH1 0x4 DUP3 ADD MSTORE PUSH1 0xC PUSH1 0x24 DUP3 ADD MSTORE PUSH12 0x23B0B6B29034B99037BB32B9 PUSH1 0xA1 SHL PUSH1 0x44 DUP3 ADD MSTORE PUSH1 0x64 ADD PUSH2 0x128 JUMP JUMPDEST PUSH1 0x0 SLOAD PUSH1 0x1 SLOAD SUB PUSH2 0x293 JUMPI PUSH1 0x2 DUP1 SLOAD PUSH1 0x1 PUSH1 0x1 PUSH1 0xA0 SHL SUB NOT AND CALLER OR SWAP1 SSTORE JUMPDEST JUMP JUMPDEST PUSH1 0x0 DUP3 NOT DUP3 GT ISZERO PUSH2 0x2B6 JUMPI PUSH4 0x4E487B71 PUSH1 0xE0 SHL PUSH1 0x0 MSTORE PUSH1 0x11 PUSH1 0x4 MSTORE PUSH1 0x24 PUSH1 0x0 REVERT JUMPDEST POP ADD SWAP1 JUMP INVALID LOG2 PUSH5 0x6970667358 0x22 SLT KECCAK256 0xAA 0xEE SWAP3 0xB5 PUSH23 0xB43928D34313A0EE698B573A569A4B332E0FD0BD868207 PUSH14 0xE4B6DD64736F6C634300080D0033 "
				},
				"gasEstimates": {
					"creation": {
						"codeDepositCost": "150600",
						"executionCost": "22302",
						"totalCost": "172902"
					},
					"external": {
						"balance()": "2284",
						"claimReward()": "infinite",
						"deposit()": "57164",
						"targetAmount()": "2262",
						"winner()": "2403"
					}
				},
				"methodIdentifiers": {
					"balance()": "b69ef8a8",
					"claimReward()": "b88a802f",
					"deposit()": "d0e30db0",
					"targetAmount()": "953b8fb8",
					"winner()": "dfbf53ae"
				}
			},
			"storageLayout": {
				"storage": [
					{
						"astId": 4,
						"contract": "contracts/SelfDeatructSol.sol:EtherGame",
						"label": "targetAmount",
						"offset": 0,
						"slot": "0",
						"type": "t_uint256"
					},
					{
						"astId": 6,
						"contract": "contracts/SelfDeatructSol.sol:EtherGame",
						"label": "balance",
						"offset": 0,
						"slot": "1",
						"type": "t_uint256"
					},
					{
						"astId": 8,
						"contract": "contracts/SelfDeatructSol.sol:EtherGame",
						"label": "winner",
						"offset": 0,
						"slot": "2",
						"type": "t_address"
					}
				],
				"types": {
					"t_address": {
						"encoding": "inplace",
						"label": "address",
						"numberOfBytes": "20"
					},
					"t_uint256": {
						"encoding": "inplace",
						"label": "uint256",
						"numberOfBytes": "32"
					}
				}
			},
			"userdoc": {
				"kind": "user",
				"methods": {},
				"version": 1
			}
		}
	}
}