{
	"contracts/Mapping.sol": {
		"Mapping": {
			"abi": [
				{
					"inputs": [
						{
							"internalType": "address",
							"name": "_addr",
							"type": "address"
						}
					],
					"name": "get",
					"outputs": [
						{
							"internalType": "uint256",
							"name": "",
							"type": "uint256"
						}
					],
					"stateMutability": "view",
					"type": "function"
				},
				{
					"inputs": [
						{
							"internalType": "address",
							"name": "",
							"type": "address"
						}
					],
					"name": "myMap",
					"outputs": [
						{
							"internalType": "uint256",
							"name": "",
							"type": "uint256"
						}
					],
					"stateMutability": "view",
					"type": "function"
				},
				{
					"inputs": [
						{
							"internalType": "address",
							"name": "_addr",
							"type": "address"
						}
					],
					"name": "remove",
					"outputs": [],
					"stateMutability": "nonpayable",
					"type": "function"
				},
				{
					"inputs": [
						{
							"internalType": "address",
							"name": "_addr",
							"type": "address"
						},
						{
							"internalType": "uint256",
							"name": "_i",
							"type": "uint256"
						}
					],
					"name": "set",
					"outputs": [],
					"stateMutability": "nonpayable",
					"type": "function"
				}
			],
			"devdoc": {
				"kind": "dev",
				"methods": {},
				"version": 1
			},
			"evm": {
				"assembly": "    /* \"contracts/Mapping.sol\":60:398  contract Mapping {\r... */\n  mstore(0x40, 0x80)\n  callvalue\n  dup1\n  iszero\n  tag_1\n  jumpi\n  0x00\n  dup1\n  revert\ntag_1:\n  pop\n  dataSize(sub_0)\n  dup1\n  dataOffset(sub_0)\n  0x00\n  codecopy\n  0x00\n  return\nstop\n\nsub_0: assembly {\n        /* \"contracts/Mapping.sol\":60:398  contract Mapping {\r... */\n      mstore(0x40, 0x80)\n      callvalue\n      dup1\n      iszero\n      tag_1\n      jumpi\n      0x00\n      dup1\n      revert\n    tag_1:\n      pop\n      jumpi(tag_2, lt(calldatasize, 0x04))\n      shr(0xe0, calldataload(0x00))\n      dup1\n      0x27cbd529\n      eq\n      tag_3\n      jumpi\n      dup1\n      0x29092d0e\n      eq\n      tag_4\n      jumpi\n      dup1\n      0x3825d828\n      eq\n      tag_5\n      jumpi\n      dup1\n      0xc2bc2efc\n      eq\n      tag_6\n      jumpi\n    tag_2:\n      0x00\n      dup1\n      revert\n        /* \"contracts/Mapping.sol\":84:121  mapping(address => uint) public myMap */\n    tag_3:\n      tag_7\n      0x04\n      dup1\n      calldatasize\n      sub\n      0x20\n      dup2\n      lt\n      iszero\n      tag_8\n      jumpi\n      0x00\n      dup1\n      revert\n    tag_8:\n      pop\n      calldataload\n      sub(shl(0xa0, 0x01), 0x01)\n      and\n      tag_9\n      jump\t// in\n    tag_7:\n      0x40\n      dup1\n      mload\n      swap2\n      dup3\n      mstore\n      mload\n      swap1\n      dup2\n      swap1\n      sub\n      0x20\n      add\n      swap1\n      return\n        /* \"contracts/Mapping.sol\":319:395  function remove(address _addr) public {\r... */\n    tag_4:\n      tag_10\n      0x04\n      dup1\n      calldatasize\n      sub\n      0x20\n      dup2\n      lt\n      iszero\n      tag_11\n      jumpi\n      0x00\n      dup1\n      revert\n    tag_11:\n      pop\n      calldataload\n      sub(shl(0xa0, 0x01), 0x01)\n      and\n      tag_12\n      jump\t// in\n    tag_10:\n      stop\n        /* \"contracts/Mapping.sol\":231:311  function set(address _addr, uint _i) public {\r... */\n    tag_5:\n      tag_10\n      0x04\n      dup1\n      calldatasize\n      sub\n      0x40\n      dup2\n      lt\n      iszero\n      tag_14\n      jumpi\n      0x00\n      dup1\n      revert\n    tag_14:\n      pop\n      sub(shl(0xa0, 0x01), 0x01)\n      dup2\n      calldataload\n      and\n      swap1\n      0x20\n      add\n      calldataload\n      tag_15\n      jump\t// in\n        /* \"contracts/Mapping.sol\":130:223  function get(address _addr) public view returns (uint) {\r... */\n    tag_6:\n      tag_7\n      0x04\n      dup1\n      calldatasize\n      sub\n      0x20\n      dup2\n      lt\n      iszero\n      tag_17\n      jumpi\n      0x00\n      dup1\n      revert\n    tag_17:\n      pop\n      calldataload\n      sub(shl(0xa0, 0x01), 0x01)\n      and\n      tag_18\n      jump\t// in\n        /* \"contracts/Mapping.sol\":84:121  mapping(address => uint) public myMap */\n    tag_9:\n      0x00\n      0x20\n      dup2\n      swap1\n      mstore\n      swap1\n      dup2\n      mstore\n      0x40\n      swap1\n      keccak256\n      sload\n      dup2\n      jump\t// out\n        /* \"contracts/Mapping.sol\":319:395  function remove(address _addr) public {\r... */\n    tag_12:\n      sub(shl(0xa0, 0x01), 0x01)\n        /* \"contracts/Mapping.sol\":375:387  myMap[_addr] */\n      and\n        /* \"contracts/Mapping.sol\":375:380  myMap */\n      0x00\n        /* \"contracts/Mapping.sol\":375:387  myMap[_addr] */\n      swap1\n      dup2\n      mstore\n      0x20\n      dup2\n      swap1\n      mstore\n      0x40\n      dup2\n      keccak256\n        /* \"contracts/Mapping.sol\":368:387  delete myMap[_addr] */\n      sstore\n        /* \"contracts/Mapping.sol\":319:395  function remove(address _addr) public {\r... */\n      jump\t// out\n        /* \"contracts/Mapping.sol\":231:311  function set(address _addr, uint _i) public {\r... */\n    tag_15:\n      sub(shl(0xa0, 0x01), 0x01)\n        /* \"contracts/Mapping.sol\":286:298  myMap[_addr] */\n      swap1\n      swap2\n      and\n        /* \"contracts/Mapping.sol\":286:291  myMap */\n      0x00\n        /* \"contracts/Mapping.sol\":286:298  myMap[_addr] */\n      swap1\n      dup2\n      mstore\n      0x20\n      dup2\n      swap1\n      mstore\n      0x40\n      swap1\n      keccak256\n        /* \"contracts/Mapping.sol\":286:303  myMap[_addr] = _i */\n      sstore\n        /* \"contracts/Mapping.sol\":231:311  function set(address _addr, uint _i) public {\r... */\n      jump\t// out\n        /* \"contracts/Mapping.sol\":130:223  function get(address _addr) public view returns (uint) {\r... */\n    tag_18:\n      sub(shl(0xa0, 0x01), 0x01)\n        /* \"contracts/Mapping.sol\":203:215  myMap[_addr] */\n      and\n        /* \"contracts/Mapping.sol\":179:183  uint */\n      0x00\n        /* \"contracts/Mapping.sol\":203:215  myMap[_addr] */\n      swap1\n      dup2\n      mstore\n      0x20\n      dup2\n      swap1\n      mstore\n      0x40\n      swap1\n      keccak256\n      sload\n      swap1\n        /* \"contracts/Mapping.sol\":130:223  function get(address _addr) public view returns (uint) {\r... */\n      jump\t// out\n\n    auxdata: 0xa264697066735822122061c6e418caf3b7a62a655db0e2058a03a3f9f81564aac28248f2de5d333522fe64736f6c63430007040033\n}\n",
				"bytecode": {
					"linkReferences": {},
					"object": "608060405234801561001057600080fd5b5061019c806100206000396000f3fe608060405234801561001057600080fd5b506004361061004c5760003560e01c806327cbd5291461005157806329092d0e146100895780633825d828146100b1578063c2bc2efc146100dd575b600080fd5b6100776004803603602081101561006757600080fd5b50356001600160a01b0316610103565b60408051918252519081900360200190f35b6100af6004803603602081101561009f57600080fd5b50356001600160a01b0316610115565b005b6100af600480360360408110156100c757600080fd5b506001600160a01b03813516906020013561012f565b610077600480360360208110156100f357600080fd5b50356001600160a01b031661014b565b60006020819052908152604090205481565b6001600160a01b0316600090815260208190526040812055565b6001600160a01b03909116600090815260208190526040902055565b6001600160a01b03166000908152602081905260409020549056fea264697066735822122061c6e418caf3b7a62a655db0e2058a03a3f9f81564aac28248f2de5d333522fe64736f6c63430007040033",
					"opcodes": "PUSH1 0x80 PUSH1 0x40 MSTORE CALLVALUE DUP1 ISZERO PUSH2 0x10 JUMPI PUSH1 0x0 DUP1 REVERT JUMPDEST POP PUSH2 0x19C DUP1 PUSH2 0x20 PUSH1 0x0 CODECOPY PUSH1 0x0 RETURN INVALID PUSH1 0x80 PUSH1 0x40 MSTORE CALLVALUE DUP1 ISZERO PUSH2 0x10 JUMPI PUSH1 0x0 DUP1 REVERT JUMPDEST POP PUSH1 0x4 CALLDATASIZE LT PUSH2 0x4C JUMPI PUSH1 0x0 CALLDATALOAD PUSH1 0xE0 SHR DUP1 PUSH4 0x27CBD529 EQ PUSH2 0x51 JUMPI DUP1 PUSH4 0x29092D0E EQ PUSH2 0x89 JUMPI DUP1 PUSH4 0x3825D828 EQ PUSH2 0xB1 JUMPI DUP1 PUSH4 0xC2BC2EFC EQ PUSH2 0xDD JUMPI JUMPDEST PUSH1 0x0 DUP1 REVERT JUMPDEST PUSH2 0x77 PUSH1 0x4 DUP1 CALLDATASIZE SUB PUSH1 0x20 DUP2 LT ISZERO PUSH2 0x67 JUMPI PUSH1 0x0 DUP1 REVERT JUMPDEST POP CALLDATALOAD PUSH1 0x1 PUSH1 0x1 PUSH1 0xA0 SHL SUB AND PUSH2 0x103 JUMP JUMPDEST PUSH1 0x40 DUP1 MLOAD SWAP2 DUP3 MSTORE MLOAD SWAP1 DUP2 SWAP1 SUB PUSH1 0x20 ADD SWAP1 RETURN JUMPDEST PUSH2 0xAF PUSH1 0x4 DUP1 CALLDATASIZE SUB PUSH1 0x20 DUP2 LT ISZERO PUSH2 0x9F JUMPI PUSH1 0x0 DUP1 REVERT JUMPDEST POP CALLDATALOAD PUSH1 0x1 PUSH1 0x1 PUSH1 0xA0 SHL SUB AND PUSH2 0x115 JUMP JUMPDEST STOP JUMPDEST PUSH2 0xAF PUSH1 0x4 DUP1 CALLDATASIZE SUB PUSH1 0x40 DUP2 LT ISZERO PUSH2 0xC7 JUMPI PUSH1 0x0 DUP1 REVERT JUMPDEST POP PUSH1 0x1 PUSH1 0x1 PUSH1 0xA0 SHL SUB DUP2 CALLDATALOAD AND SWAP1 PUSH1 0x20 ADD CALLDATALOAD PUSH2 0x12F JUMP JUMPDEST PUSH2 0x77 PUSH1 0x4 DUP1 CALLDATASIZE SUB PUSH1 0x20 DUP2 LT ISZERO PUSH2 0xF3 JUMPI PUSH1 0x0 DUP1 REVERT JUMPDEST POP CALLDATALOAD PUSH1 0x1 PUSH1 0x1 PUSH1 0xA0 SHL SUB AND PUSH2 0x14B JUMP JUMPDEST PUSH1 0x0 PUSH1 0x20 DUP2 SWAP1 MSTORE SWAP1 DUP2 MSTORE PUSH1 0x40 SWAP1 KECCAK256 SLOAD DUP2 JUMP JUMPDEST PUSH1 0x1 PUSH1 0x1 PUSH1 0xA0 SHL SUB AND PUSH1 0x0 SWAP1 DUP2 MSTORE PUSH1 0x20 DUP2 SWAP1 MSTORE PUSH1 0x40 DUP2 KECCAK256 SSTORE JUMP JUMPDEST PUSH1 0x1 PUSH1 0x1 PUSH1 0xA0 SHL SUB SWAP1 SWAP2 AND PUSH1 0x0 SWAP1 DUP2 MSTORE PUSH1 0x20 DUP2 SWAP1 MSTORE PUSH1 0x40 SWAP1 KECCAK256 SSTORE JUMP JUMPDEST PUSH1 0x1 PUSH1 0x1 PUSH1 0xA0 SHL SUB AND PUSH1 0x0 SWAP1 DUP2 MSTORE PUSH1 0x20 DUP2 SWAP1 MSTORE PUSH1 0x40 SWAP1 KECCAK256 SLOAD SWAP1 JUMP INVALID LOG2 PUSH5 0x6970667358 0x22 SLT KECCAK256 PUSH2 0xC6E4 XOR 0xCA RETURN 0xB7 0xA6 0x2A PUSH6 0x5DB0E2058A03 LOG3 0xF9 0xF8 ISZERO PUSH5 0xAAC28248F2 0xDE 0x5D CALLER CALLDATALOAD 0x22 INVALID PUSH5 0x736F6C6343 STOP SMOD DIV STOP CALLER "
				},
				"gasEstimates": {
					"creation": {
						"codeDepositCost": "82400",
						"executionCost": "129",
						"totalCost": "82529"
					},
					"external": {
						"get(address)": "1189",
						"myMap(address)": "1105",
						"remove(address)": "5294",
						"set(address,uint256)": "20337"
					}
				},
				"methodIdentifiers": {
					"get(address)": "c2bc2efc",
					"myMap(address)": "27cbd529",
					"remove(address)": "29092d0e",
					"set(address,uint256)": "3825d828"
				}
			},
			"storageLayout": {
				"storage": [
					{
						"astId": 5,
						"contract": "contracts/Mapping.sol:Mapping",
						"label": "myMap",
						"offset": 0,
						"slot": "0",
						"type": "t_mapping(t_address,t_uint256)"
					}
				],
				"types": {
					"t_address": {
						"encoding": "inplace",
						"label": "address",
						"numberOfBytes": "20"
					},
					"t_mapping(t_address,t_uint256)": {
						"encoding": "mapping",
						"key": "t_address",
						"label": "mapping(address => uint256)",
						"numberOfBytes": "32",
						"value": "t_uint256"
					},
					"t_uint256": {
						"encoding": "inplace",
						"label": "uint256",
						"numberOfBytes": "32"
					}
				}
			},
			"userdoc": {
				"kind": "user",
				"methods": {},
				"version": 1
			}
		}
	}
}