{
	"contracts/Mapping.sol": {
		"NestedMapping": {
			"abi": [
				{
					"inputs": [
						{
							"internalType": "address",
							"name": "_addr1",
							"type": "address"
						},
						{
							"internalType": "uint256",
							"name": "_i",
							"type": "uint256"
						}
					],
					"name": "get",
					"outputs": [
						{
							"internalType": "bool",
							"name": "",
							"type": "bool"
						}
					],
					"stateMutability": "view",
					"type": "function"
				},
				{
					"inputs": [
						{
							"internalType": "address",
							"name": "",
							"type": "address"
						},
						{
							"internalType": "uint256",
							"name": "",
							"type": "uint256"
						}
					],
					"name": "nested",
					"outputs": [
						{
							"internalType": "bool",
							"name": "",
							"type": "bool"
						}
					],
					"stateMutability": "view",
					"type": "function"
				},
				{
					"inputs": [
						{
							"internalType": "address",
							"name": "_addr1",
							"type": "address"
						},
						{
							"internalType": "uint256",
							"name": "_i",
							"type": "uint256"
						}
					],
					"name": "remove",
					"outputs": [],
					"stateMutability": "nonpayable",
					"type": "function"
				},
				{
					"inputs": [
						{
							"internalType": "address",
							"name": "_addr1",
							"type": "address"
						},
						{
							"internalType": "uint256",
							"name": "_i",
							"type": "uint256"
						},
						{
							"internalType": "bool",
							"name": "_boo",
							"type": "bool"
						}
					],
					"name": "set",
					"outputs": [],
					"stateMutability": "nonpayable",
					"type": "function"
				}
			],
			"devdoc": {
				"kind": "dev",
				"methods": {},
				"version": 1
			},
			"evm": {
				"assembly": "    /* \"contracts/Mapping.sol\":402:850  contract NestedMapping {\r... */\n  mstore(0x40, 0x80)\n  callvalue\n  dup1\n  iszero\n  tag_1\n  jumpi\n  0x00\n  dup1\n  revert\ntag_1:\n  pop\n  dataSize(sub_0)\n  dup1\n  dataOffset(sub_0)\n  0x00\n  codecopy\n  0x00\n  return\nstop\n\nsub_0: assembly {\n        /* \"contracts/Mapping.sol\":402:850  contract NestedMapping {\r... */\n      mstore(0x40, 0x80)\n      callvalue\n      dup1\n      iszero\n      tag_1\n      jumpi\n      0x00\n      dup1\n      revert\n    tag_1:\n      pop\n      jumpi(tag_2, lt(calldatasize, 0x04))\n      shr(0xe0, calldataload(0x00))\n      dup1\n      0x0b139194\n      eq\n      tag_3\n      jumpi\n      dup1\n      0x14bd0a7b\n      eq\n      tag_4\n      jumpi\n      dup1\n      0xabe7f1ab\n      eq\n      tag_5\n      jumpi\n      dup1\n      0xb464631b\n      eq\n      tag_6\n      jumpi\n    tag_2:\n      0x00\n      dup1\n      revert\n        /* \"contracts/Mapping.sol\":613:747  function set(\r... */\n    tag_3:\n      tag_7\n      0x04\n      dup1\n      calldatasize\n      sub\n      0x60\n      dup2\n      lt\n      iszero\n      tag_8\n      jumpi\n      0x00\n      dup1\n      revert\n    tag_8:\n      pop\n      sub(shl(0xa0, 0x01), 0x01)\n      dup2\n      calldataload\n      and\n      swap1\n      0x20\n      dup2\n      add\n      calldataload\n      swap1\n      0x40\n      add\n      calldataload\n      iszero\n      iszero\n      tag_9\n      jump\t// in\n    tag_7:\n      stop\n        /* \"contracts/Mapping.sol\":432:487  mapping(address => mapping(uint => bool)) public nested */\n    tag_4:\n      tag_10\n      0x04\n      dup1\n      calldatasize\n      sub\n      0x40\n      dup2\n      lt\n      iszero\n      tag_11\n      jumpi\n      0x00\n      dup1\n      revert\n    tag_11:\n      pop\n      sub(shl(0xa0, 0x01), 0x01)\n      dup2\n      calldataload\n      and\n      swap1\n      0x20\n      add\n      calldataload\n      tag_12\n      jump\t// in\n    tag_10:\n      0x40\n      dup1\n      mload\n      swap2\n      iszero\n      iszero\n      dup3\n      mstore\n      mload\n      swap1\n      dup2\n      swap1\n      sub\n      0x20\n      add\n      swap1\n      return\n        /* \"contracts/Mapping.sol\":755:847  function remove(address _addr1, uint _i) public {\r... */\n    tag_5:\n      tag_7\n      0x04\n      dup1\n      calldatasize\n      sub\n      0x40\n      dup2\n      lt\n      iszero\n      tag_14\n      jumpi\n      0x00\n      dup1\n      revert\n    tag_14:\n      pop\n      sub(shl(0xa0, 0x01), 0x01)\n      dup2\n      calldataload\n      and\n      swap1\n      0x20\n      add\n      calldataload\n      tag_15\n      jump\t// in\n        /* \"contracts/Mapping.sol\":496:605  function get(address _addr1, uint _i) public view returns (bool) {\r... */\n    tag_6:\n      tag_10\n      0x04\n      dup1\n      calldatasize\n      sub\n      0x40\n      dup2\n      lt\n      iszero\n      tag_17\n      jumpi\n      0x00\n      dup1\n      revert\n    tag_17:\n      pop\n      sub(shl(0xa0, 0x01), 0x01)\n      dup2\n      calldataload\n      and\n      swap1\n      0x20\n      add\n      calldataload\n      tag_18\n      jump\t// in\n        /* \"contracts/Mapping.sol\":613:747  function set(\r... */\n    tag_9:\n      sub(shl(0xa0, 0x01), 0x01)\n        /* \"contracts/Mapping.sol\":714:728  nested[_addr1] */\n      swap3\n      swap1\n      swap3\n      and\n        /* \"contracts/Mapping.sol\":714:720  nested */\n      0x00\n        /* \"contracts/Mapping.sol\":714:728  nested[_addr1] */\n      swap1\n      dup2\n      mstore\n      0x20\n      dup2\n      dup2\n      mstore\n      0x40\n      dup1\n      dup4\n      keccak256\n        /* \"contracts/Mapping.sol\":714:732  nested[_addr1][_i] */\n      swap4\n      dup4\n      mstore\n      swap3\n      swap1\n      mstore\n      keccak256\n        /* \"contracts/Mapping.sol\":714:739  nested[_addr1][_i] = _boo */\n      dup1\n      sload\n      not(0xff)\n      and\n      swap2\n      iszero\n      iszero\n      swap2\n      swap1\n      swap2\n      or\n      swap1\n      sstore\n        /* \"contracts/Mapping.sol\":613:747  function set(\r... */\n      jump\t// out\n        /* \"contracts/Mapping.sol\":432:487  mapping(address => mapping(uint => bool)) public nested */\n    tag_12:\n      0x00\n      0x20\n      dup2\n      dup2\n      mstore\n      swap3\n      dup2\n      mstore\n      0x40\n      dup1\n      dup3\n      keccak256\n      swap1\n      swap4\n      mstore\n      swap1\n      dup2\n      mstore\n      keccak256\n      sload\n      0xff\n      and\n      dup2\n      jump\t// out\n        /* \"contracts/Mapping.sol\":755:847  function remove(address _addr1, uint _i) public {\r... */\n    tag_15:\n      sub(shl(0xa0, 0x01), 0x01)\n        /* \"contracts/Mapping.sol\":821:835  nested[_addr1] */\n      swap1\n      swap2\n      and\n        /* \"contracts/Mapping.sol\":821:827  nested */\n      0x00\n        /* \"contracts/Mapping.sol\":821:835  nested[_addr1] */\n      swap1\n      dup2\n      mstore\n      0x20\n      dup2\n      dup2\n      mstore\n      0x40\n      dup1\n      dup4\n      keccak256\n        /* \"contracts/Mapping.sol\":821:839  nested[_addr1][_i] */\n      swap4\n      dup4\n      mstore\n      swap3\n      swap1\n      mstore\n      keccak256\n        /* \"contracts/Mapping.sol\":814:839  delete nested[_addr1][_i] */\n      dup1\n      sload\n      not(0xff)\n      and\n      swap1\n      sstore\n        /* \"contracts/Mapping.sol\":755:847  function remove(address _addr1, uint _i) public {\r... */\n      jump\t// out\n        /* \"contracts/Mapping.sol\":496:605  function get(address _addr1, uint _i) public view returns (bool) {\r... */\n    tag_18:\n      sub(shl(0xa0, 0x01), 0x01)\n        /* \"contracts/Mapping.sol\":579:593  nested[_addr1] */\n      swap2\n      swap1\n      swap2\n      and\n        /* \"contracts/Mapping.sol\":555:559  bool */\n      0x00\n        /* \"contracts/Mapping.sol\":579:593  nested[_addr1] */\n      swap1\n      dup2\n      mstore\n      0x20\n      dup2\n      dup2\n      mstore\n      0x40\n      dup1\n      dup4\n      keccak256\n        /* \"contracts/Mapping.sol\":579:597  nested[_addr1][_i] */\n      swap4\n      dup4\n      mstore\n      swap3\n      swap1\n      mstore\n      keccak256\n      sload\n      0xff\n      and\n      swap1\n        /* \"contracts/Mapping.sol\":496:605  function get(address _addr1, uint _i) public view returns (bool) {\r... */\n      jump\t// out\n\n    auxdata: 0xa26469706673582212200ea8e990f836b588cccc7f34bd7193369824d978d9605f3ff47fd06a500d1dad64736f6c63430007040033\n}\n",
				"bytecode": {
					"linkReferences": {},
					"object": "608060405234801561001057600080fd5b506101f9806100206000396000f3fe608060405234801561001057600080fd5b506004361061004c5760003560e01c80630b1391941461005157806314bd0a7b14610087578063abe7f1ab146100c7578063b464631b146100f3575b600080fd5b6100856004803603606081101561006757600080fd5b506001600160a01b038135169060208101359060400135151561011f565b005b6100b36004803603604081101561009d57600080fd5b506001600160a01b038135169060200135610152565b604080519115158252519081900360200190f35b610085600480360360408110156100dd57600080fd5b506001600160a01b03813516906020013561016f565b6100b36004803603604081101561010957600080fd5b506001600160a01b03813516906020013561019a565b6001600160a01b039290921660009081526020818152604080832093835292905220805460ff1916911515919091179055565b600060208181529281526040808220909352908152205460ff1681565b6001600160a01b0390911660009081526020818152604080832093835292905220805460ff19169055565b6001600160a01b0391909116600090815260208181526040808320938352929052205460ff169056fea26469706673582212200ea8e990f836b588cccc7f34bd7193369824d978d9605f3ff47fd06a500d1dad64736f6c63430007040033",
					"opcodes": "PUSH1 0x80 PUSH1 0x40 MSTORE CALLVALUE DUP1 ISZERO PUSH2 0x10 JUMPI PUSH1 0x0 DUP1 REVERT JUMPDEST POP PUSH2 0x1F9 DUP1 PUSH2 0x20 PUSH1 0x0 CODECOPY PUSH1 0x0 RETURN INVALID PUSH1 0x80 PUSH1 0x40 MSTORE CALLVALUE DUP1 ISZERO PUSH2 0x10 JUMPI PUSH1 0x0 DUP1 REVERT JUMPDEST POP PUSH1 0x4 CALLDATASIZE LT PUSH2 0x4C JUMPI PUSH1 0x0 CALLDATALOAD PUSH1 0xE0 SHR DUP1 PUSH4 0xB139194 EQ PUSH2 0x51 JUMPI DUP1 PUSH4 0x14BD0A7B EQ PUSH2 0x87 JUMPI DUP1 PUSH4 0xABE7F1AB EQ PUSH2 0xC7 JUMPI DUP1 PUSH4 0xB464631B EQ PUSH2 0xF3 JUMPI JUMPDEST PUSH1 0x0 DUP1 REVERT JUMPDEST PUSH2 0x85 PUSH1 0x4 DUP1 CALLDATASIZE SUB PUSH1 0x60 DUP2 LT ISZERO PUSH2 0x67 JUMPI PUSH1 0x0 DUP1 REVERT JUMPDEST POP PUSH1 0x1 PUSH1 0x1 PUSH1 0xA0 SHL SUB DUP2 CALLDATALOAD AND SWAP1 PUSH1 0x20 DUP2 ADD CALLDATALOAD SWAP1 PUSH1 0x40 ADD CALLDATALOAD ISZERO ISZERO PUSH2 0x11F JUMP JUMPDEST STOP JUMPDEST PUSH2 0xB3 PUSH1 0x4 DUP1 CALLDATASIZE SUB PUSH1 0x40 DUP2 LT ISZERO PUSH2 0x9D JUMPI PUSH1 0x0 DUP1 REVERT JUMPDEST POP PUSH1 0x1 PUSH1 0x1 PUSH1 0xA0 SHL SUB DUP2 CALLDATALOAD AND SWAP1 PUSH1 0x20 ADD CALLDATALOAD PUSH2 0x152 JUMP JUMPDEST PUSH1 0x40 DUP1 MLOAD SWAP2 ISZERO ISZERO DUP3 MSTORE MLOAD SWAP1 DUP2 SWAP1 SUB PUSH1 0x20 ADD SWAP1 RETURN JUMPDEST PUSH2 0x85 PUSH1 0x4 DUP1 CALLDATASIZE SUB PUSH1 0x40 DUP2 LT ISZERO PUSH2 0xDD JUMPI PUSH1 0x0 DUP1 REVERT JUMPDEST POP PUSH1 0x1 PUSH1 0x1 PUSH1 0xA0 SHL SUB DUP2 CALLDATALOAD AND SWAP1 PUSH1 0x20 ADD CALLDATALOAD PUSH2 0x16F JUMP JUMPDEST PUSH2 0xB3 PUSH1 0x4 DUP1 CALLDATASIZE SUB PUSH1 0x40 DUP2 LT ISZERO PUSH2 0x109 JUMPI PUSH1 0x0 DUP1 REVERT JUMPDEST POP PUSH1 0x1 PUSH1 0x1 PUSH1 0xA0 SHL SUB DUP2 CALLDATALOAD AND SWAP1 PUSH1 0x20 ADD CALLDATALOAD PUSH2 0x19A JUMP JUMPDEST PUSH1 0x1 PUSH1 0x1 PUSH1 0xA0 SHL SUB SWAP3 SWAP1 SWAP3 AND PUSH1 0x0 SWAP1 DUP2 MSTORE PUSH1 0x20 DUP2 DUP2 MSTORE PUSH1 0x40 DUP1 DUP4 KECCAK256 SWAP4 DUP4 MSTORE SWAP3 SWAP1 MSTORE KECCAK256 DUP1 SLOAD PUSH1 0xFF NOT AND SWAP2 ISZERO ISZERO SWAP2 SWAP1 SWAP2 OR SWAP1 SSTORE JUMP JUMPDEST PUSH1 0x0 PUSH1 0x20 DUP2 DUP2 MSTORE SWAP3 DUP2 MSTORE PUSH1 0x40 DUP1 DUP3 KECCAK256 SWAP1 SWAP4 MSTORE SWAP1 DUP2 MSTORE KECCAK256 SLOAD PUSH1 0xFF AND DUP2 JUMP JUMPDEST PUSH1 0x1 PUSH1 0x1 PUSH1 0xA0 SHL SUB SWAP1 SWAP2 AND PUSH1 0x0 SWAP1 DUP2 MSTORE PUSH1 0x20 DUP2 DUP2 MSTORE PUSH1 0x40 DUP1 DUP4 KECCAK256 SWAP4 DUP4 MSTORE SWAP3 SWAP1 MSTORE KECCAK256 DUP1 SLOAD PUSH1 0xFF NOT AND SWAP1 SSTORE JUMP JUMPDEST PUSH1 0x1 PUSH1 0x1 PUSH1 0xA0 SHL SUB SWAP2 SWAP1 SWAP2 AND PUSH1 0x0 SWAP1 DUP2 MSTORE PUSH1 0x20 DUP2 DUP2 MSTORE PUSH1 0x40 DUP1 DUP4 KECCAK256 SWAP4 DUP4 MSTORE SWAP3 SWAP1 MSTORE KECCAK256 SLOAD PUSH1 0xFF AND SWAP1 JUMP INVALID LOG2 PUSH5 0x6970667358 0x22 SLT KECCAK256 0xE 0xA8 0xE9 SWAP1 0xF8 CALLDATASIZE 0xB5 DUP9 0xCC 0xCC PUSH32 0x34BD7193369824D978D9605F3FF47FD06A500D1DAD64736F6C63430007040033 "
				},
				"gasEstimates": {
					"creation": {
						"codeDepositCost": "101000",
						"executionCost": "147",
						"totalCost": "101147"
					},
					"external": {
						"get(address,uint256)": "1288",
						"nested(address,uint256)": "1217",
						"remove(address,uint256)": "21215",
						"set(address,uint256,bool)": "21216"
					}
				},
				"methodIdentifiers": {
					"get(address,uint256)": "b464631b",
					"nested(address,uint256)": "14bd0a7b",
					"remove(address,uint256)": "abe7f1ab",
					"set(address,uint256,bool)": "0b139194"
				}
			},
			"storageLayout": {
				"storage": [
					{
						"astId": 49,
						"contract": "contracts/Mapping.sol:NestedMapping",
						"label": "nested",
						"offset": 0,
						"slot": "0",
						"type": "t_mapping(t_address,t_mapping(t_uint256,t_bool))"
					}
				],
				"types": {
					"t_address": {
						"encoding": "inplace",
						"label": "address",
						"numberOfBytes": "20"
					},
					"t_bool": {
						"encoding": "inplace",
						"label": "bool",
						"numberOfBytes": "1"
					},
					"t_mapping(t_address,t_mapping(t_uint256,t_bool))": {
						"encoding": "mapping",
						"key": "t_address",
						"label": "mapping(address => mapping(uint256 => bool))",
						"numberOfBytes": "32",
						"value": "t_mapping(t_uint256,t_bool)"
					},
					"t_mapping(t_uint256,t_bool)": {
						"encoding": "mapping",
						"key": "t_uint256",
						"label": "mapping(uint256 => bool)",
						"numberOfBytes": "32",
						"value": "t_bool"
					},
					"t_uint256": {
						"encoding": "inplace",
						"label": "uint256",
						"numberOfBytes": "32"
					}
				}
			},
			"userdoc": {
				"kind": "user",
				"methods": {},
				"version": 1
			}
		}
	}
}