{
	"contracts/Array.sol": {
		"Array": {
			"abi": [
				{
					"inputs": [
						{
							"internalType": "uint256",
							"name": "",
							"type": "uint256"
						}
					],
					"name": "arr",
					"outputs": [
						{
							"internalType": "uint256",
							"name": "",
							"type": "uint256"
						}
					],
					"stateMutability": "view",
					"type": "function"
				},
				{
					"inputs": [
						{
							"internalType": "uint256",
							"name": "",
							"type": "uint256"
						}
					],
					"name": "arr2",
					"outputs": [
						{
							"internalType": "uint256",
							"name": "",
							"type": "uint256"
						}
					],
					"stateMutability": "view",
					"type": "function"
				},
				{
					"inputs": [],
					"name": "examples",
					"outputs": [],
					"stateMutability": "nonpayable",
					"type": "function"
				},
				{
					"inputs": [
						{
							"internalType": "uint256",
							"name": "i",
							"type": "uint256"
						}
					],
					"name": "get",
					"outputs": [
						{
							"internalType": "uint256",
							"name": "",
							"type": "uint256"
						}
					],
					"stateMutability": "view",
					"type": "function"
				},
				{
					"inputs": [],
					"name": "getArr",
					"outputs": [
						{
							"internalType": "uint256[]",
							"name": "",
							"type": "uint256[]"
						}
					],
					"stateMutability": "view",
					"type": "function"
				},
				{
					"inputs": [],
					"name": "getLength",
					"outputs": [
						{
							"internalType": "uint256",
							"name": "",
							"type": "uint256"
						}
					],
					"stateMutability": "view",
					"type": "function"
				},
				{
					"inputs": [
						{
							"internalType": "uint256",
							"name": "",
							"type": "uint256"
						}
					],
					"name": "myFixedSizeArr",
					"outputs": [
						{
							"internalType": "uint256",
							"name": "",
							"type": "uint256"
						}
					],
					"stateMutability": "view",
					"type": "function"
				},
				{
					"inputs": [],
					"name": "pop",
					"outputs": [],
					"stateMutability": "nonpayable",
					"type": "function"
				},
				{
					"inputs": [
						{
							"internalType": "uint256",
							"name": "i",
							"type": "uint256"
						}
					],
					"name": "push",
					"outputs": [],
					"stateMutability": "nonpayable",
					"type": "function"
				},
				{
					"inputs": [
						{
							"internalType": "uint256",
							"name": "index",
							"type": "uint256"
						}
					],
					"name": "remove",
					"outputs": [],
					"stateMutability": "nonpayable",
					"type": "function"
				}
			],
			"devdoc": {
				"kind": "dev",
				"methods": {},
				"version": 1
			},
			"evm": {
				"assembly": "    /* \"contracts/Array.sol\":151:181  uint[] public arr2 = [1, 2, 3] */\n  0xe0\n    /* \"contracts/Array.sol\":61:1376  contract Array {... */\n  0x40\n    /* \"contracts/Array.sol\":151:181  uint[] public arr2 = [1, 2, 3] */\n  mstore\n    /* \"contracts/Array.sol\":173:174  1 */\n  0x01\n    /* \"contracts/Array.sol\":61:1376  contract Array {... */\n  0x80\n    /* \"contracts/Array.sol\":151:181  uint[] public arr2 = [1, 2, 3] */\n  dup2\n  dup2\n  mstore\n    /* \"contracts/Array.sol\":176:177  2 */\n  0x02\n    /* \"contracts/Array.sol\":151:181  uint[] public arr2 = [1, 2, 3] */\n  0xa0\n  mstore\n    /* \"contracts/Array.sol\":179:180  3 */\n  0x03\n    /* \"contracts/Array.sol\":151:181  uint[] public arr2 = [1, 2, 3] */\n  0xc0\n  dup2\n  swap1\n  mstore\n  tag_1\n  swap3\n    /* \"contracts/Array.sol\":173:174  1 */\n  swap2\n    /* \"contracts/Array.sol\":61:1376  contract Array {... */\n  swap1\n    /* \"contracts/Array.sol\":151:181  uint[] public arr2 = [1, 2, 3] */\n  tag_2\n  jump\t// in\ntag_1:\n  pop\n    /* \"contracts/Array.sol\":61:1376  contract Array {... */\n  callvalue\n  dup1\n  iszero\n  tag_3\n  jumpi\n  0x00\n  dup1\n  revert\ntag_3:\n  pop\n  jump(tag_4)\ntag_2:\n  dup3\n  dup1\n  sload\n  dup3\n  dup3\n  sstore\n  swap1\n  0x00\n  mstore\n  keccak256(0x00, 0x20)\n  swap1\n  dup2\n  add\n  swap3\n  dup3\n  iszero\n  tag_7\n  jumpi\n  swap2\n  0x20\n  mul\n  dup3\n  add\ntag_6:\n  dup3\n  dup2\n  gt\n  iszero\n  tag_7\n  jumpi\n  dup3\n  mload\n  dup3\n  swap1\n  0xff\n  and\n  swap1\n  sstore\n  swap2\n  0x20\n  add\n  swap2\n  swap1\n  0x01\n  add\n  swap1\n  jump(tag_6)\ntag_7:\n  pop\n  tag_8\n  swap3\n  swap2\n  pop\n  tag_9\n  jump\t// in\ntag_8:\n  pop\n  swap1\n  jump\t// out\ntag_9:\ntag_10:\n  dup1\n  dup3\n  gt\n  iszero\n  tag_8\n  jumpi\n  0x00\n  dup2\n  sstore\n  0x01\n  add\n  jump(tag_10)\ntag_4:\n  dataSize(sub_0)\n  dup1\n  dataOffset(sub_0)\n  0x00\n  codecopy\n  0x00\n  return\nstop\n\nsub_0: assembly {\n        /* \"contracts/Array.sol\":61:1376  contract Array {... */\n      mstore(0x40, 0x80)\n      callvalue\n      dup1\n      iszero\n      tag_1\n      jumpi\n      0x00\n      dup1\n      revert\n    tag_1:\n      pop\n      jumpi(tag_2, lt(calldatasize, 0x04))\n      shr(0xe0, calldataload(0x00))\n      dup1\n      0x959ac484\n      gt\n      tag_13\n      jumpi\n      dup1\n      0x959ac484\n      eq\n      tag_8\n      jumpi\n      dup1\n      0xa4ece52c\n      eq\n      tag_9\n      jumpi\n      dup1\n      0xbe1c766b\n      eq\n      tag_10\n      jumpi\n      dup1\n      0xedf0099b\n      eq\n      tag_11\n      jumpi\n      dup1\n      0xfb8cbced\n      eq\n      tag_12\n      jumpi\n      0x00\n      dup1\n      revert\n    tag_13:\n      dup1\n      0x335d00c2\n      eq\n      tag_3\n      jumpi\n      dup1\n      0x38a067ce\n      eq\n      tag_4\n      jumpi\n      dup1\n      0x4cc82215\n      eq\n      tag_5\n      jumpi\n      dup1\n      0x71e5ee5f\n      eq\n      tag_6\n      jumpi\n      dup1\n      0x9507d39a\n      eq\n      tag_7\n      jumpi\n    tag_2:\n      0x00\n      dup1\n      revert\n        /* \"contracts/Array.sol\":1227:1373  function examples() external {... */\n    tag_3:\n      tag_14\n      tag_15\n      jump\t// in\n    tag_14:\n      stop\n        /* \"contracts/Array.sol\":244:274  uint[10] public myFixedSizeArr */\n    tag_4:\n      tag_16\n      tag_17\n      calldatasize\n      0x04\n      tag_18\n      jump\t// in\n    tag_17:\n      tag_19\n      jump\t// in\n    tag_16:\n      mload(0x40)\n        /* \"#utility.yul\":345:370   */\n      swap1\n      dup2\n      mstore\n        /* \"#utility.yul\":333:335   */\n      0x20\n        /* \"#utility.yul\":318:336   */\n      add\n        /* \"contracts/Array.sol\":244:274  uint[10] public myFixedSizeArr */\n    tag_20:\n      mload(0x40)\n      dup1\n      swap2\n      sub\n      swap1\n      return\n        /* \"contracts/Array.sol\":1004:1219  function remove(uint index) public {... */\n    tag_5:\n      tag_14\n      tag_23\n      calldatasize\n      0x04\n      tag_18\n      jump\t// in\n    tag_23:\n      tag_24\n      jump\t// in\n        /* \"contracts/Array.sol\":127:144  uint[] public arr */\n    tag_6:\n      tag_16\n      tag_26\n      calldatasize\n      0x04\n      tag_18\n      jump\t// in\n    tag_26:\n      tag_27\n      jump\t// in\n        /* \"contracts/Array.sol\":283:363  function get(uint i) public view returns (uint) {... */\n    tag_7:\n      tag_16\n      tag_30\n      calldatasize\n      0x04\n      tag_18\n      jump\t// in\n    tag_30:\n      tag_31\n      jump\t// in\n        /* \"contracts/Array.sol\":609:750  function push(uint i) public {... */\n    tag_8:\n      tag_14\n      tag_34\n      calldatasize\n      0x04\n      tag_18\n      jump\t// in\n    tag_34:\n        /* \"contracts/Array.sol\":731:734  arr */\n      0x00\n        /* \"contracts/Array.sol\":731:742  arr.push(i) */\n      dup1\n      sload\n      0x01\n      dup2\n      add\n      dup3\n      sstore\n      swap1\n      dup1\n      mstore\n      0x290decd9548b62a8d60345a988386fc84ba6bc95484008f6362f93160ef3e563\n      add\n      sstore\n        /* \"contracts/Array.sol\":609:750  function push(uint i) public {... */\n      jump\n        /* \"contracts/Array.sol\":758:904  function pop() public {... */\n    tag_9:\n      tag_14\n      tag_37\n      jump\t// in\n        /* \"contracts/Array.sol\":912:996  function getLength() public view returns (uint) {... */\n    tag_10:\n        /* \"contracts/Array.sol\":954:958  uint */\n      0x00\n        /* \"contracts/Array.sol\":978:988  arr.length */\n      sload\n        /* \"contracts/Array.sol\":912:996  function getLength() public view returns (uint) {... */\n      jump(tag_16)\n        /* \"contracts/Array.sol\":151:181  uint[] public arr2 = [1, 2, 3] */\n    tag_11:\n      tag_16\n      tag_42\n      calldatasize\n      0x04\n      tag_18\n      jump\t// in\n    tag_42:\n      tag_43\n      jump\t// in\n        /* \"contracts/Array.sol\":518:601  function getArr() public view returns (uint[] memory) {... */\n    tag_12:\n      tag_45\n      tag_46\n      jump\t// in\n    tag_45:\n      mload(0x40)\n      tag_20\n      swap2\n      swap1\n      tag_48\n      jump\t// in\n        /* \"contracts/Array.sol\":1227:1373  function examples() external {... */\n    tag_15:\n        /* \"contracts/Array.sol\":1352:1365  new uint[](5) */\n      0x40\n      dup1\n      mload\n        /* \"contracts/Array.sol\":1363:1364  5 */\n      0x05\n        /* \"contracts/Array.sol\":1352:1365  new uint[](5) */\n      dup1\n      dup3\n      mstore\n      0xc0\n      dup3\n      add\n      swap1\n      swap3\n      mstore\n        /* \"contracts/Array.sol\":1334:1349  uint[] memory a */\n      0x00\n      swap2\n        /* \"contracts/Array.sol\":1352:1365  new uint[](5) */\n      0x20\n      dup3\n      add\n      0xa0\n      dup1\n      calldatasize\n      dup4\n      calldatacopy\n      pop\n      pop\n      pop\n      pop\n      pop\n        /* \"contracts/Array.sol\":1227:1373  function examples() external {... */\n      jump\t// out\n        /* \"contracts/Array.sol\":244:274  uint[10] public myFixedSizeArr */\n    tag_19:\n      0x02\n      dup2\n      0x0a\n      dup2\n      lt\n      tag_54\n      jumpi\n      0x00\n      dup1\n      revert\n    tag_54:\n      add\n      sload\n      swap1\n      pop\n      dup2\n      jump\t// out\n        /* \"contracts/Array.sol\":1004:1219  function remove(uint index) public {... */\n    tag_24:\n        /* \"contracts/Array.sol\":1201:1204  arr */\n      0x00\n        /* \"contracts/Array.sol\":1205:1210  index */\n      dup2\n        /* \"contracts/Array.sol\":1201:1211  arr[index] */\n      dup2\n      sload\n      dup2\n      lt\n      tag_58\n      jumpi\n      tag_58\n      tag_59\n      jump\t// in\n    tag_58:\n      0x00\n      swap2\n      dup3\n      mstore\n      0x20\n      dup3\n      keccak256\n      add\n        /* \"contracts/Array.sol\":1194:1211  delete arr[index] */\n      sstore\n      pop\n        /* \"contracts/Array.sol\":1004:1219  function remove(uint index) public {... */\n      jump\t// out\n        /* \"contracts/Array.sol\":127:144  uint[] public arr */\n    tag_27:\n      0x00\n      dup2\n      dup2\n      sload\n      dup2\n      lt\n      tag_61\n      jumpi\n      0x00\n      dup1\n      revert\n    tag_61:\n      0x00\n      swap2\n      dup3\n      mstore\n      0x20\n      swap1\n      swap2\n      keccak256\n      add\n      sload\n      swap1\n      pop\n      dup2\n      jump\t// out\n        /* \"contracts/Array.sol\":283:363  function get(uint i) public view returns (uint) {... */\n    tag_31:\n        /* \"contracts/Array.sol\":325:329  uint */\n      0x00\n        /* \"contracts/Array.sol\":349:352  arr */\n      dup1\n        /* \"contracts/Array.sol\":353:354  i */\n      dup3\n        /* \"contracts/Array.sol\":349:355  arr[i] */\n      dup2\n      sload\n      dup2\n      lt\n      tag_65\n      jumpi\n      tag_65\n      tag_59\n      jump\t// in\n    tag_65:\n      swap1\n      0x00\n      mstore\n      keccak256(0x00, 0x20)\n      add\n      sload\n        /* \"contracts/Array.sol\":342:355  return arr[i] */\n      swap1\n      pop\n        /* \"contracts/Array.sol\":283:363  function get(uint i) public view returns (uint) {... */\n      swap2\n      swap1\n      pop\n      jump\t// out\n        /* \"contracts/Array.sol\":758:904  function pop() public {... */\n    tag_37:\n        /* \"contracts/Array.sol\":887:890  arr */\n      0x00\n        /* \"contracts/Array.sol\":887:896  arr.pop() */\n      dup1\n      sload\n      dup1\n      tag_71\n      jumpi\n      tag_71\n      tag_72\n      jump\t// in\n    tag_71:\n      0x01\n      swap1\n      sub\n      dup2\n      dup2\n      swap1\n      0x00\n      mstore\n      keccak256(0x00, 0x20)\n      add\n      0x00\n      swap1\n      sstore\n      swap1\n      sstore\n        /* \"contracts/Array.sol\":758:904  function pop() public {... */\n      jump\t// out\n        /* \"contracts/Array.sol\":151:181  uint[] public arr2 = [1, 2, 3] */\n    tag_43:\n      0x01\n      dup2\n      dup2\n      sload\n      dup2\n      lt\n      tag_61\n      jumpi\n      0x00\n      dup1\n      revert\n        /* \"contracts/Array.sol\":518:601  function getArr() public view returns (uint[] memory) {... */\n    tag_46:\n        /* \"contracts/Array.sol\":557:570  uint[] memory */\n      0x60\n        /* \"contracts/Array.sol\":590:593  arr */\n      0x00\n        /* \"contracts/Array.sol\":583:593  return arr */\n      dup1\n      sload\n      dup1\n      0x20\n      mul\n      0x20\n      add\n      mload(0x40)\n      swap1\n      dup2\n      add\n      0x40\n      mstore\n      dup1\n      swap3\n      swap2\n      swap1\n      dup2\n      dup2\n      mstore\n      0x20\n      add\n      dup3\n      dup1\n      sload\n      dup1\n      iszero\n      tag_78\n      jumpi\n      0x20\n      mul\n      dup3\n      add\n      swap2\n      swap1\n      0x00\n      mstore\n      keccak256(0x00, 0x20)\n      swap1\n    tag_79:\n      dup2\n      sload\n      dup2\n      mstore\n      0x20\n      add\n      swap1\n      0x01\n      add\n      swap1\n      dup1\n      dup4\n      gt\n      tag_79\n      jumpi\n    tag_78:\n      pop\n      pop\n      pop\n      pop\n      pop\n      swap1\n      pop\n        /* \"contracts/Array.sol\":518:601  function getArr() public view returns (uint[] memory) {... */\n      swap1\n      jump\t// out\n        /* \"#utility.yul\":14:194   */\n    tag_18:\n        /* \"#utility.yul\":73:79   */\n      0x00\n        /* \"#utility.yul\":126:128   */\n      0x20\n        /* \"#utility.yul\":114:123   */\n      dup3\n        /* \"#utility.yul\":105:112   */\n      dup5\n        /* \"#utility.yul\":101:124   */\n      sub\n        /* \"#utility.yul\":97:129   */\n      slt\n        /* \"#utility.yul\":94:146   */\n      iszero\n      tag_82\n      jumpi\n        /* \"#utility.yul\":142:143   */\n      0x00\n        /* \"#utility.yul\":139:140   */\n      dup1\n        /* \"#utility.yul\":132:144   */\n      revert\n        /* \"#utility.yul\":94:146   */\n    tag_82:\n      pop\n        /* \"#utility.yul\":165:188   */\n      calldataload\n      swap2\n        /* \"#utility.yul\":14:194   */\n      swap1\n      pop\n      jump\t// out\n        /* \"#utility.yul\":381:1013   */\n    tag_48:\n        /* \"#utility.yul\":552:554   */\n      0x20\n        /* \"#utility.yul\":604:625   */\n      dup1\n      dup3\n      mstore\n        /* \"#utility.yul\":674:687   */\n      dup3\n      mload\n        /* \"#utility.yul\":577:595   */\n      dup3\n      dup3\n      add\n        /* \"#utility.yul\":696:718   */\n      dup2\n      swap1\n      mstore\n        /* \"#utility.yul\":523:527   */\n      0x00\n      swap2\n        /* \"#utility.yul\":552:554   */\n      swap1\n        /* \"#utility.yul\":775:790   */\n      dup5\n      dup3\n      add\n      swap1\n        /* \"#utility.yul\":749:751   */\n      0x40\n        /* \"#utility.yul\":734:752   */\n      dup6\n      add\n      swap1\n        /* \"#utility.yul\":523:527   */\n      dup5\n        /* \"#utility.yul\":818:987   */\n    tag_85:\n        /* \"#utility.yul\":832:838   */\n      dup2\n        /* \"#utility.yul\":829:830   */\n      dup2\n        /* \"#utility.yul\":826:839   */\n      lt\n        /* \"#utility.yul\":818:987   */\n      iszero\n      tag_87\n      jumpi\n        /* \"#utility.yul\":893:906   */\n      dup4\n      mload\n        /* \"#utility.yul\":881:907   */\n      dup4\n      mstore\n        /* \"#utility.yul\":962:977   */\n      swap3\n      dup5\n      add\n      swap3\n        /* \"#utility.yul\":927:939   */\n      swap2\n      dup5\n      add\n      swap2\n        /* \"#utility.yul\":854:855   */\n      0x01\n        /* \"#utility.yul\":847:856   */\n      add\n        /* \"#utility.yul\":818:987   */\n      jump(tag_85)\n    tag_87:\n      pop\n        /* \"#utility.yul\":1004:1007   */\n      swap1\n      swap7\n        /* \"#utility.yul\":381:1013   */\n      swap6\n      pop\n      pop\n      pop\n      pop\n      pop\n      pop\n      jump\t// out\n        /* \"#utility.yul\":1150:1277   */\n    tag_59:\n        /* \"#utility.yul\":1211:1221   */\n      0x4e487b71\n        /* \"#utility.yul\":1206:1209   */\n      0xe0\n        /* \"#utility.yul\":1202:1222   */\n      shl\n        /* \"#utility.yul\":1199:1200   */\n      0x00\n        /* \"#utility.yul\":1192:1223   */\n      mstore\n        /* \"#utility.yul\":1242:1246   */\n      0x32\n        /* \"#utility.yul\":1239:1240   */\n      0x04\n        /* \"#utility.yul\":1232:1247   */\n      mstore\n        /* \"#utility.yul\":1266:1270   */\n      0x24\n        /* \"#utility.yul\":1263:1264   */\n      0x00\n        /* \"#utility.yul\":1256:1271   */\n      revert\n        /* \"#utility.yul\":1282:1409   */\n    tag_72:\n        /* \"#utility.yul\":1343:1353   */\n      0x4e487b71\n        /* \"#utility.yul\":1338:1341   */\n      0xe0\n        /* \"#utility.yul\":1334:1354   */\n      shl\n        /* \"#utility.yul\":1331:1332   */\n      0x00\n        /* \"#utility.yul\":1324:1355   */\n      mstore\n        /* \"#utility.yul\":1374:1378   */\n      0x31\n        /* \"#utility.yul\":1371:1372   */\n      0x04\n        /* \"#utility.yul\":1364:1379   */\n      mstore\n        /* \"#utility.yul\":1398:1402   */\n      0x24\n        /* \"#utility.yul\":1395:1396   */\n      0x00\n        /* \"#utility.yul\":1388:1403   */\n      revert\n\n    auxdata: 0xa26469706673582212208e4d4f5dcef19645164953431e59ff752d9202590bb4c614caa0b23f0c28d27f64736f6c634300080d0033\n}\n",
				"bytecode": {
					"linkReferences": {},
					"object": "60e060405260016080818152600260a052600360c0819052610022929190610035565b5034801561002f57600080fd5b5061009a565b828054828255906000526020600020908101928215610075579160200282015b82811115610075578251829060ff16905591602001919060010190610055565b50610081929150610085565b5090565b5b808211156100815760008155600101610086565b610377806100a96000396000f3fe608060405234801561001057600080fd5b506004361061009e5760003560e01c8063959ac48411610066578063959ac4841461010c578063a4ece52c1461014c578063be1c766b14610154578063edf0099b1461015c578063fb8cbced1461016f57600080fd5b8063335d00c2146100a357806338a067ce146100ad5780634cc82215146100d357806371e5ee5f146100e65780639507d39a146100f9575b600080fd5b6100ab610184565b005b6100c06100bb3660046102b8565b6101a8565b6040519081526020015b60405180910390f35b6100ab6100e13660046102b8565b6101bf565b6100c06100f43660046102b8565b6101e0565b6100c06101073660046102b8565b610201565b6100ab61011a3660046102b8565b600080546001810182559080527f290decd9548b62a8d60345a988386fc84ba6bc95484008f6362f93160ef3e5630155565b6100ab610227565b6000546100c0565b6100c061016a3660046102b8565b610250565b610177610260565b6040516100ca91906102d1565b60408051600580825260c082019092526000916020820160a0803683375050505050565b600281600a81106101b857600080fd5b0154905081565b600081815481106101d2576101d2610315565b600091825260208220015550565b600081815481106101f057600080fd5b600091825260209091200154905081565b600080828154811061021557610215610315565b90600052602060002001549050919050565b60008054806102385761023861032b565b60019003818190600052602060002001600090559055565b600181815481106101f057600080fd5b606060008054806020026020016040519081016040528092919081815260200182805480156102ae57602002820191906000526020600020905b81548152602001906001019080831161029a575b5050505050905090565b6000602082840312156102ca57600080fd5b5035919050565b6020808252825182820181905260009190848201906040850190845b81811015610309578351835292840192918401916001016102ed565b50909695505050505050565b634e487b7160e01b600052603260045260246000fd5b634e487b7160e01b600052603160045260246000fdfea26469706673582212208e4d4f5dcef19645164953431e59ff752d9202590bb4c614caa0b23f0c28d27f64736f6c634300080d0033",
					"opcodes": "PUSH1 0xE0 PUSH1 0x40 MSTORE PUSH1 0x1 PUSH1 0x80 DUP2 DUP2 MSTORE PUSH1 0x2 PUSH1 0xA0 MSTORE PUSH1 0x3 PUSH1 0xC0 DUP2 SWAP1 MSTORE PUSH2 0x22 SWAP3 SWAP2 SWAP1 PUSH2 0x35 JUMP JUMPDEST POP CALLVALUE DUP1 ISZERO PUSH2 0x2F JUMPI PUSH1 0x0 DUP1 REVERT JUMPDEST POP PUSH2 0x9A JUMP JUMPDEST DUP3 DUP1 SLOAD DUP3 DUP3 SSTORE SWAP1 PUSH1 0x0 MSTORE PUSH1 0x20 PUSH1 0x0 KECCAK256 SWAP1 DUP2 ADD SWAP3 DUP3 ISZERO PUSH2 0x75 JUMPI SWAP2 PUSH1 0x20 MUL DUP3 ADD JUMPDEST DUP3 DUP2 GT ISZERO PUSH2 0x75 JUMPI DUP3 MLOAD DUP3 SWAP1 PUSH1 0xFF AND SWAP1 SSTORE SWAP2 PUSH1 0x20 ADD SWAP2 SWAP1 PUSH1 0x1 ADD SWAP1 PUSH2 0x55 JUMP JUMPDEST POP PUSH2 0x81 SWAP3 SWAP2 POP PUSH2 0x85 JUMP JUMPDEST POP SWAP1 JUMP JUMPDEST JUMPDEST DUP1 DUP3 GT ISZERO PUSH2 0x81 JUMPI PUSH1 0x0 DUP2 SSTORE PUSH1 0x1 ADD PUSH2 0x86 JUMP JUMPDEST PUSH2 0x377 DUP1 PUSH2 0xA9 PUSH1 0x0 CODECOPY PUSH1 0x0 RETURN INVALID PUSH1 0x80 PUSH1 0x40 MSTORE CALLVALUE DUP1 ISZERO PUSH2 0x10 JUMPI PUSH1 0x0 DUP1 REVERT JUMPDEST POP PUSH1 0x4 CALLDATASIZE LT PUSH2 0x9E JUMPI PUSH1 0x0 CALLDATALOAD PUSH1 0xE0 SHR DUP1 PUSH4 0x959AC484 GT PUSH2 0x66 JUMPI DUP1 PUSH4 0x959AC484 EQ PUSH2 0x10C JUMPI DUP1 PUSH4 0xA4ECE52C EQ PUSH2 0x14C JUMPI DUP1 PUSH4 0xBE1C766B EQ PUSH2 0x154 JUMPI DUP1 PUSH4 0xEDF0099B EQ PUSH2 0x15C JUMPI DUP1 PUSH4 0xFB8CBCED EQ PUSH2 0x16F JUMPI PUSH1 0x0 DUP1 REVERT JUMPDEST DUP1 PUSH4 0x335D00C2 EQ PUSH2 0xA3 JUMPI DUP1 PUSH4 0x38A067CE EQ PUSH2 0xAD JUMPI DUP1 PUSH4 0x4CC82215 EQ PUSH2 0xD3 JUMPI DUP1 PUSH4 0x71E5EE5F EQ PUSH2 0xE6 JUMPI DUP1 PUSH4 0x9507D39A EQ PUSH2 0xF9 JUMPI JUMPDEST PUSH1 0x0 DUP1 REVERT JUMPDEST PUSH2 0xAB PUSH2 0x184 JUMP JUMPDEST STOP JUMPDEST PUSH2 0xC0 PUSH2 0xBB CALLDATASIZE PUSH1 0x4 PUSH2 0x2B8 JUMP JUMPDEST PUSH2 0x1A8 JUMP JUMPDEST PUSH1 0x40 MLOAD SWAP1 DUP2 MSTORE PUSH1 0x20 ADD JUMPDEST PUSH1 0x40 MLOAD DUP1 SWAP2 SUB SWAP1 RETURN JUMPDEST PUSH2 0xAB PUSH2 0xE1 CALLDATASIZE PUSH1 0x4 PUSH2 0x2B8 JUMP JUMPDEST PUSH2 0x1BF JUMP JUMPDEST PUSH2 0xC0 PUSH2 0xF4 CALLDATASIZE PUSH1 0x4 PUSH2 0x2B8 JUMP JUMPDEST PUSH2 0x1E0 JUMP JUMPDEST PUSH2 0xC0 PUSH2 0x107 CALLDATASIZE PUSH1 0x4 PUSH2 0x2B8 JUMP JUMPDEST PUSH2 0x201 JUMP JUMPDEST PUSH2 0xAB PUSH2 0x11A CALLDATASIZE PUSH1 0x4 PUSH2 0x2B8 JUMP JUMPDEST PUSH1 0x0 DUP1 SLOAD PUSH1 0x1 DUP2 ADD DUP3 SSTORE SWAP1 DUP1 MSTORE PUSH32 0x290DECD9548B62A8D60345A988386FC84BA6BC95484008F6362F93160EF3E563 ADD SSTORE JUMP JUMPDEST PUSH2 0xAB PUSH2 0x227 JUMP JUMPDEST PUSH1 0x0 SLOAD PUSH2 0xC0 JUMP JUMPDEST PUSH2 0xC0 PUSH2 0x16A CALLDATASIZE PUSH1 0x4 PUSH2 0x2B8 JUMP JUMPDEST PUSH2 0x250 JUMP JUMPDEST PUSH2 0x177 PUSH2 0x260 JUMP JUMPDEST PUSH1 0x40 MLOAD PUSH2 0xCA SWAP2 SWAP1 PUSH2 0x2D1 JUMP JUMPDEST PUSH1 0x40 DUP1 MLOAD PUSH1 0x5 DUP1 DUP3 MSTORE PUSH1 0xC0 DUP3 ADD SWAP1 SWAP3 MSTORE PUSH1 0x0 SWAP2 PUSH1 0x20 DUP3 ADD PUSH1 0xA0 DUP1 CALLDATASIZE DUP4 CALLDATACOPY POP POP POP POP POP JUMP JUMPDEST PUSH1 0x2 DUP2 PUSH1 0xA DUP2 LT PUSH2 0x1B8 JUMPI PUSH1 0x0 DUP1 REVERT JUMPDEST ADD SLOAD SWAP1 POP DUP2 JUMP JUMPDEST PUSH1 0x0 DUP2 DUP2 SLOAD DUP2 LT PUSH2 0x1D2 JUMPI PUSH2 0x1D2 PUSH2 0x315 JUMP JUMPDEST PUSH1 0x0 SWAP2 DUP3 MSTORE PUSH1 0x20 DUP3 KECCAK256 ADD SSTORE POP JUMP JUMPDEST PUSH1 0x0 DUP2 DUP2 SLOAD DUP2 LT PUSH2 0x1F0 JUMPI PUSH1 0x0 DUP1 REVERT JUMPDEST PUSH1 0x0 SWAP2 DUP3 MSTORE PUSH1 0x20 SWAP1 SWAP2 KECCAK256 ADD SLOAD SWAP1 POP DUP2 JUMP JUMPDEST PUSH1 0x0 DUP1 DUP3 DUP2 SLOAD DUP2 LT PUSH2 0x215 JUMPI PUSH2 0x215 PUSH2 0x315 JUMP JUMPDEST SWAP1 PUSH1 0x0 MSTORE PUSH1 0x20 PUSH1 0x0 KECCAK256 ADD SLOAD SWAP1 POP SWAP2 SWAP1 POP JUMP JUMPDEST PUSH1 0x0 DUP1 SLOAD DUP1 PUSH2 0x238 JUMPI PUSH2 0x238 PUSH2 0x32B JUMP JUMPDEST PUSH1 0x1 SWAP1 SUB DUP2 DUP2 SWAP1 PUSH1 0x0 MSTORE PUSH1 0x20 PUSH1 0x0 KECCAK256 ADD PUSH1 0x0 SWAP1 SSTORE SWAP1 SSTORE JUMP JUMPDEST PUSH1 0x1 DUP2 DUP2 SLOAD DUP2 LT PUSH2 0x1F0 JUMPI PUSH1 0x0 DUP1 REVERT JUMPDEST PUSH1 0x60 PUSH1 0x0 DUP1 SLOAD DUP1 PUSH1 0x20 MUL PUSH1 0x20 ADD PUSH1 0x40 MLOAD SWAP1 DUP2 ADD PUSH1 0x40 MSTORE DUP1 SWAP3 SWAP2 SWAP1 DUP2 DUP2 MSTORE PUSH1 0x20 ADD DUP3 DUP1 SLOAD DUP1 ISZERO PUSH2 0x2AE JUMPI PUSH1 0x20 MUL DUP3 ADD SWAP2 SWAP1 PUSH1 0x0 MSTORE PUSH1 0x20 PUSH1 0x0 KECCAK256 SWAP1 JUMPDEST DUP2 SLOAD DUP2 MSTORE PUSH1 0x20 ADD SWAP1 PUSH1 0x1 ADD SWAP1 DUP1 DUP4 GT PUSH2 0x29A JUMPI JUMPDEST POP POP POP POP POP SWAP1 POP SWAP1 JUMP JUMPDEST PUSH1 0x0 PUSH1 0x20 DUP3 DUP5 SUB SLT ISZERO PUSH2 0x2CA JUMPI PUSH1 0x0 DUP1 REVERT JUMPDEST POP CALLDATALOAD SWAP2 SWAP1 POP JUMP JUMPDEST PUSH1 0x20 DUP1 DUP3 MSTORE DUP3 MLOAD DUP3 DUP3 ADD DUP2 SWAP1 MSTORE PUSH1 0x0 SWAP2 SWAP1 DUP5 DUP3 ADD SWAP1 PUSH1 0x40 DUP6 ADD SWAP1 DUP5 JUMPDEST DUP2 DUP2 LT ISZERO PUSH2 0x309 JUMPI DUP4 MLOAD DUP4 MSTORE SWAP3 DUP5 ADD SWAP3 SWAP2 DUP5 ADD SWAP2 PUSH1 0x1 ADD PUSH2 0x2ED JUMP JUMPDEST POP SWAP1 SWAP7 SWAP6 POP POP POP POP POP POP JUMP JUMPDEST PUSH4 0x4E487B71 PUSH1 0xE0 SHL PUSH1 0x0 MSTORE PUSH1 0x32 PUSH1 0x4 MSTORE PUSH1 0x24 PUSH1 0x0 REVERT JUMPDEST PUSH4 0x4E487B71 PUSH1 0xE0 SHL PUSH1 0x0 MSTORE PUSH1 0x31 PUSH1 0x4 MSTORE PUSH1 0x24 PUSH1 0x0 REVERT INVALID LOG2 PUSH5 0x6970667358 0x22 SLT KECCAK256 DUP15 0x4D 0x4F 0x5D 0xCE CALL SWAP7 GASLIMIT AND 0x49 MSTORE8 NUMBER 0x1E MSIZE SELFDESTRUCT PUSH22 0x2D9202590BB4C614CAA0B23F0C28D27F64736F6C6343 STOP ADDMOD 0xD STOP CALLER "
				},
				"gasEstimates": {
					"creation": {
						"codeDepositCost": "177400",
						"executionCost": "infinite",
						"totalCost": "infinite"
					},
					"external": {
						"arr(uint256)": "4631",
						"arr2(uint256)": "4630",
						"examples()": "259",
						"get(uint256)": "4655",
						"getArr()": "infinite",
						"getLength()": "2325",
						"myFixedSizeArr(uint256)": "2430",
						"pop()": "29467",
						"push(uint256)": "46542",
						"remove(uint256)": "7454"
					}
				},
				"methodIdentifiers": {
					"arr(uint256)": "71e5ee5f",
					"arr2(uint256)": "edf0099b",
					"examples()": "335d00c2",
					"get(uint256)": "9507d39a",
					"getArr()": "fb8cbced",
					"getLength()": "be1c766b",
					"myFixedSizeArr(uint256)": "38a067ce",
					"pop()": "a4ece52c",
					"push(uint256)": "959ac484",
					"remove(uint256)": "4cc82215"
				}
			},
			"storageLayout": {
				"storage": [
					{
						"astId": 4,
						"contract": "contracts/Array.sol:Array",
						"label": "arr",
						"offset": 0,
						"slot": "0",
						"type": "t_array(t_uint256)dyn_storage"
					},
					{
						"astId": 11,
						"contract": "contracts/Array.sol:Array",
						"label": "arr2",
						"offset": 0,
						"slot": "1",
						"type": "t_array(t_uint256)dyn_storage"
					},
					{
						"astId": 15,
						"contract": "contracts/Array.sol:Array",
						"label": "myFixedSizeArr",
						"offset": 0,
						"slot": "2",
						"type": "t_array(t_uint256)10_storage"
					}
				],
				"types": {
					"t_array(t_uint256)10_storage": {
						"base": "t_uint256",
						"encoding": "inplace",
						"label": "uint256[10]",
						"numberOfBytes": "320"
					},
					"t_array(t_uint256)dyn_storage": {
						"base": "t_uint256",
						"encoding": "dynamic_array",
						"label": "uint256[]",
						"numberOfBytes": "32"
					},
					"t_uint256": {
						"encoding": "inplace",
						"label": "uint256",
						"numberOfBytes": "32"
					}
				}
			},
			"userdoc": {
				"kind": "user",
				"methods": {},
				"version": 1
			}
		}
	}
}