{
	"contracts/CallOther.sol": {
		"Callee": {
			"abi": [
				{
					"inputs": [
						{
							"internalType": "uint256",
							"name": "_x",
							"type": "uint256"
						}
					],
					"name": "setX",
					"outputs": [
						{
							"internalType": "uint256",
							"name": "",
							"type": "uint256"
						}
					],
					"stateMutability": "nonpayable",
					"type": "function"
				},
				{
					"inputs": [
						{
							"internalType": "uint256",
							"name": "_x",
							"type": "uint256"
						}
					],
					"name": "setXandSendEther",
					"outputs": [
						{
							"internalType": "uint256",
							"name": "",
							"type": "uint256"
						},
						{
							"internalType": "uint256",
							"name": "",
							"type": "uint256"
						}
					],
					"stateMutability": "payable",
					"type": "function"
				},
				{
					"inputs": [],
					"name": "value",
					"outputs": [
						{
							"internalType": "uint256",
							"name": "",
							"type": "uint256"
						}
					],
					"stateMutability": "view",
					"type": "function"
				},
				{
					"inputs": [],
					"name": "x",
					"outputs": [
						{
							"internalType": "uint256",
							"name": "",
							"type": "uint256"
						}
					],
					"stateMutability": "view",
					"type": "function"
				}
			],
			"devdoc": {
				"kind": "dev",
				"methods": {},
				"version": 1
			},
			"evm": {
				"assembly": "    /* \"contracts/CallOther.sol\":61:384  contract Callee {... */\n  mstore(0x40, 0x80)\n  callvalue\n  dup1\n  iszero\n  tag_1\n  jumpi\n  0x00\n  dup1\n  revert\ntag_1:\n  pop\n  dataSize(sub_0)\n  dup1\n  dataOffset(sub_0)\n  0x00\n  codecopy\n  0x00\n  return\nstop\n\nsub_0: assembly {\n        /* \"contracts/CallOther.sol\":61:384  contract Callee {... */\n      mstore(0x40, 0x80)\n      jumpi(tag_1, lt(calldatasize, 0x04))\n      shr(0xe0, calldataload(0x00))\n      dup1\n      0x0c55699c\n      eq\n      tag_2\n      jumpi\n      dup1\n      0x3fa4f245\n      eq\n      tag_3\n      jumpi\n      dup1\n      0x4018d9aa\n      eq\n      tag_4\n      jumpi\n      dup1\n      0xcdc23076\n      eq\n      tag_5\n      jumpi\n    tag_1:\n      0x00\n      dup1\n      revert\n        /* \"contracts/CallOther.sol\":84:97  uint public x */\n    tag_2:\n      callvalue\n      dup1\n      iszero\n      tag_6\n      jumpi\n      0x00\n      dup1\n      revert\n    tag_6:\n      pop\n      tag_7\n      sload(0x00)\n      dup2\n      jump\n    tag_7:\n      mload(0x40)\n        /* \"#utility.yul\":160:185   */\n      swap1\n      dup2\n      mstore\n        /* \"#utility.yul\":148:150   */\n      0x20\n        /* \"#utility.yul\":133:151   */\n      add\n        /* \"contracts/CallOther.sol\":84:97  uint public x */\n    tag_9:\n      mload(0x40)\n      dup1\n      swap2\n      sub\n      swap1\n      return\n        /* \"contracts/CallOther.sol\":104:121  uint public value */\n    tag_3:\n      callvalue\n      dup1\n      iszero\n      tag_11\n      jumpi\n      0x00\n      dup1\n      revert\n    tag_11:\n      pop\n      tag_7\n      sload(0x01)\n      dup2\n      jump\n        /* \"contracts/CallOther.sol\":130:219  function setX(uint _x) public returns (uint) {... */\n    tag_4:\n      callvalue\n      dup1\n      iszero\n      tag_15\n      jumpi\n      0x00\n      dup1\n      revert\n    tag_15:\n      pop\n      tag_7\n      tag_17\n      calldatasize\n      0x04\n      tag_18\n      jump\t// in\n    tag_17:\n        /* \"contracts/CallOther.sol\":169:173  uint */\n      0x00\n        /* \"contracts/CallOther.sol\":186:192  x = _x */\n      dup2\n      swap1\n      sstore\n        /* \"contracts/CallOther.sol\":190:192  _x */\n      swap1\n        /* \"contracts/CallOther.sol\":130:219  function setX(uint _x) public returns (uint) {... */\n      jump\n        /* \"contracts/CallOther.sol\":227:381  function setXandSendEther(uint _x) public payable returns (uint, uint) {... */\n    tag_5:\n      tag_21\n      tag_22\n      calldatasize\n      0x04\n      tag_18\n      jump\t// in\n    tag_22:\n        /* \"contracts/CallOther.sol\":286:290  uint */\n      0x00\n        /* \"contracts/CallOther.sol\":309:315  x = _x */\n      dup2\n      swap1\n      sstore\n        /* \"contracts/CallOther.sol\":334:343  msg.value */\n      callvalue\n        /* \"contracts/CallOther.sol\":326:331  value */\n      0x01\n        /* \"contracts/CallOther.sol\":326:343  value = msg.value */\n      dup2\n      swap1\n      sstore\n        /* \"contracts/CallOther.sol\":313:315  _x */\n      swap1\n      swap2\n        /* \"contracts/CallOther.sol\":227:381  function setXandSendEther(uint _x) public payable returns (uint, uint) {... */\n      jump\n    tag_21:\n      0x40\n      dup1\n      mload\n        /* \"#utility.yul\":555:580   */\n      swap3\n      dup4\n      mstore\n        /* \"#utility.yul\":611:613   */\n      0x20\n        /* \"#utility.yul\":596:614   */\n      dup4\n      add\n        /* \"#utility.yul\":589:623   */\n      swap2\n      swap1\n      swap2\n      mstore\n        /* \"#utility.yul\":528:546   */\n      add\n        /* \"contracts/CallOther.sol\":227:381  function setXandSendEther(uint _x) public payable returns (uint, uint) {... */\n      tag_9\n        /* \"#utility.yul\":381:629   */\n      jump\n        /* \"#utility.yul\":196:376   */\n    tag_18:\n        /* \"#utility.yul\":255:261   */\n      0x00\n        /* \"#utility.yul\":308:310   */\n      0x20\n        /* \"#utility.yul\":296:305   */\n      dup3\n        /* \"#utility.yul\":287:294   */\n      dup5\n        /* \"#utility.yul\":283:306   */\n      sub\n        /* \"#utility.yul\":279:311   */\n      slt\n        /* \"#utility.yul\":276:328   */\n      iszero\n      tag_31\n      jumpi\n        /* \"#utility.yul\":324:325   */\n      0x00\n        /* \"#utility.yul\":321:322   */\n      dup1\n        /* \"#utility.yul\":314:326   */\n      revert\n        /* \"#utility.yul\":276:328   */\n    tag_31:\n      pop\n        /* \"#utility.yul\":347:370   */\n      calldataload\n      swap2\n        /* \"#utility.yul\":196:376   */\n      swap1\n      pop\n      jump\t// out\n\n    auxdata: 0xa2646970667358221220710b580589a97c239b24d165d32b362b0155dc456e292de5d25904a7933177d464736f6c634300080d0033\n}\n",
				"bytecode": {
					"linkReferences": {},
					"object": "608060405234801561001057600080fd5b50610115806100206000396000f3fe608060405260043610603a5760003560e01c80630c55699c14603f5780633fa4f2451460665780634018d9aa14607a578063cdc23076146099575b600080fd5b348015604a57600080fd5b50605360005481565b6040519081526020015b60405180910390f35b348015607157600080fd5b50605360015481565b348015608557600080fd5b506053609136600460c7565b600081905590565b60b360a436600460c7565b60008190553460018190559091565b60408051928352602083019190915201605d565b60006020828403121560d857600080fd5b503591905056fea2646970667358221220710b580589a97c239b24d165d32b362b0155dc456e292de5d25904a7933177d464736f6c634300080d0033",
					"opcodes": "PUSH1 0x80 PUSH1 0x40 MSTORE CALLVALUE DUP1 ISZERO PUSH2 0x10 JUMPI PUSH1 0x0 DUP1 REVERT JUMPDEST POP PUSH2 0x115 DUP1 PUSH2 0x20 PUSH1 0x0 CODECOPY PUSH1 0x0 RETURN INVALID PUSH1 0x80 PUSH1 0x40 MSTORE PUSH1 0x4 CALLDATASIZE LT PUSH1 0x3A JUMPI PUSH1 0x0 CALLDATALOAD PUSH1 0xE0 SHR DUP1 PUSH4 0xC55699C EQ PUSH1 0x3F JUMPI DUP1 PUSH4 0x3FA4F245 EQ PUSH1 0x66 JUMPI DUP1 PUSH4 0x4018D9AA EQ PUSH1 0x7A JUMPI DUP1 PUSH4 0xCDC23076 EQ PUSH1 0x99 JUMPI JUMPDEST PUSH1 0x0 DUP1 REVERT JUMPDEST CALLVALUE DUP1 ISZERO PUSH1 0x4A JUMPI PUSH1 0x0 DUP1 REVERT JUMPDEST POP PUSH1 0x53 PUSH1 0x0 SLOAD DUP2 JUMP JUMPDEST PUSH1 0x40 MLOAD SWAP1 DUP2 MSTORE PUSH1 0x20 ADD JUMPDEST PUSH1 0x40 MLOAD DUP1 SWAP2 SUB SWAP1 RETURN JUMPDEST CALLVALUE DUP1 ISZERO PUSH1 0x71 JUMPI PUSH1 0x0 DUP1 REVERT JUMPDEST POP PUSH1 0x53 PUSH1 0x1 SLOAD DUP2 JUMP JUMPDEST CALLVALUE DUP1 ISZERO PUSH1 0x85 JUMPI PUSH1 0x0 DUP1 REVERT JUMPDEST POP PUSH1 0x53 PUSH1 0x91 CALLDATASIZE PUSH1 0x4 PUSH1 0xC7 JUMP JUMPDEST PUSH1 0x0 DUP2 SWAP1 SSTORE SWAP1 JUMP JUMPDEST PUSH1 0xB3 PUSH1 0xA4 CALLDATASIZE PUSH1 0x4 PUSH1 0xC7 JUMP JUMPDEST PUSH1 0x0 DUP2 SWAP1 SSTORE CALLVALUE PUSH1 0x1 DUP2 SWAP1 SSTORE SWAP1 SWAP2 JUMP JUMPDEST PUSH1 0x40 DUP1 MLOAD SWAP3 DUP4 MSTORE PUSH1 0x20 DUP4 ADD SWAP2 SWAP1 SWAP2 MSTORE ADD PUSH1 0x5D JUMP JUMPDEST PUSH1 0x0 PUSH1 0x20 DUP3 DUP5 SUB SLT ISZERO PUSH1 0xD8 JUMPI PUSH1 0x0 DUP1 REVERT JUMPDEST POP CALLDATALOAD SWAP2 SWAP1 POP JUMP INVALID LOG2 PUSH5 0x6970667358 0x22 SLT KECCAK256 PUSH18 0xB580589A97C239B24D165D32B362B0155DC GASLIMIT PUSH15 0x292DE5D25904A7933177D464736F6C PUSH4 0x4300080D STOP CALLER "
				},
				"gasEstimates": {
					"creation": {
						"codeDepositCost": "55400",
						"executionCost": "105",
						"totalCost": "55505"
					},
					"external": {
						"setX(uint256)": "22389",
						"setXandSendEther(uint256)": "44536",
						"value()": "2284",
						"x()": "2262"
					}
				},
				"methodIdentifiers": {
					"setX(uint256)": "4018d9aa",
					"setXandSendEther(uint256)": "cdc23076",
					"value()": "3fa4f245",
					"x()": "0c55699c"
				}
			},
			"storageLayout": {
				"storage": [
					{
						"astId": 3,
						"contract": "contracts/CallOther.sol:Callee",
						"label": "x",
						"offset": 0,
						"slot": "0",
						"type": "t_uint256"
					},
					{
						"astId": 5,
						"contract": "contracts/CallOther.sol:Callee",
						"label": "value",
						"offset": 0,
						"slot": "1",
						"type": "t_uint256"
					}
				],
				"types": {
					"t_uint256": {
						"encoding": "inplace",
						"label": "uint256",
						"numberOfBytes": "32"
					}
				}
			},
			"userdoc": {
				"kind": "user",
				"methods": {},
				"version": 1
			}
		}
	}
}