{
	"contracts/CallOther.sol": {
		"Caller": {
			"abi": [
				{
					"inputs": [
						{
							"internalType": "contract Callee",
							"name": "_callee",
							"type": "address"
						},
						{
							"internalType": "uint256",
							"name": "_x",
							"type": "uint256"
						}
					],
					"name": "setX",
					"outputs": [],
					"stateMutability": "nonpayable",
					"type": "function"
				},
				{
					"inputs": [
						{
							"internalType": "address",
							"name": "_addr",
							"type": "address"
						},
						{
							"internalType": "uint256",
							"name": "_x",
							"type": "uint256"
						}
					],
					"name": "setXFromAddress",
					"outputs": [],
					"stateMutability": "nonpayable",
					"type": "function"
				},
				{
					"inputs": [
						{
							"internalType": "contract Callee",
							"name": "_callee",
							"type": "address"
						},
						{
							"internalType": "uint256",
							"name": "_x",
							"type": "uint256"
						}
					],
					"name": "setXandSendEther",
					"outputs": [],
					"stateMutability": "payable",
					"type": "function"
				}
			],
			"devdoc": {
				"kind": "dev",
				"methods": {},
				"version": 1
			},
			"evm": {
				"assembly": "    /* \"contracts/CallOther.sol\":388:804  contract Caller {... */\n  mstore(0x40, 0x80)\n  callvalue\n  dup1\n  iszero\n  tag_1\n  jumpi\n  0x00\n  dup1\n  revert\ntag_1:\n  pop\n  dataSize(sub_0)\n  dup1\n  dataOffset(sub_0)\n  0x00\n  codecopy\n  0x00\n  return\nstop\n\nsub_0: assembly {\n        /* \"contracts/CallOther.sol\":388:804  contract Caller {... */\n      mstore(0x40, 0x80)\n      jumpi(tag_1, lt(calldatasize, 0x04))\n      shr(0xe0, calldataload(0x00))\n      dup1\n      0x4a2ad99f\n      eq\n      tag_2\n      jumpi\n      dup1\n      0xcb587039\n      eq\n      tag_3\n      jumpi\n      dup1\n      0xd44abc42\n      eq\n      tag_4\n      jumpi\n    tag_1:\n      0x00\n      dup1\n      revert\n        /* \"contracts/CallOther.sol\":411:501  function setX(Callee _callee, uint _x) public {... */\n    tag_2:\n      callvalue\n      dup1\n      iszero\n      tag_5\n      jumpi\n      0x00\n      dup1\n      revert\n    tag_5:\n      pop\n      tag_6\n      tag_7\n      calldatasize\n      0x04\n      tag_8\n      jump\t// in\n    tag_7:\n      tag_9\n      jump\t// in\n    tag_6:\n      stop\n        /* \"contracts/CallOther.sol\":509:639  function setXFromAddress(address _addr, uint _x) public {... */\n    tag_3:\n      callvalue\n      dup1\n      iszero\n      tag_10\n      jumpi\n      0x00\n      dup1\n      revert\n    tag_10:\n      pop\n      tag_6\n      tag_12\n      calldatasize\n      0x04\n      tag_8\n      jump\t// in\n    tag_12:\n      tag_14\n      jump\t// in\n        /* \"contracts/CallOther.sol\":647:801  function setXandSendEther(Callee _callee, uint _x) public payable {... */\n    tag_4:\n      tag_6\n      tag_16\n      calldatasize\n      0x04\n      tag_8\n      jump\t// in\n    tag_16:\n      tag_17\n      jump\t// in\n        /* \"contracts/CallOther.sol\":411:501  function setX(Callee _callee, uint _x) public {... */\n    tag_9:\n        /* \"contracts/CallOther.sol\":477:493  _callee.setX(_x) */\n      mload(0x40)\n      shl(0xe1, 0x200c6cd5)\n      dup2\n      mstore\n      0x04\n      dup2\n      add\n        /* \"#utility.yul\":973:998   */\n      dup3\n      swap1\n      mstore\n        /* \"contracts/CallOther.sol\":468:474  uint x */\n      0x00\n      swap1\n      sub(shl(0xa0, 0x01), 0x01)\n        /* \"contracts/CallOther.sol\":477:489  _callee.setX */\n      dup5\n      and\n      swap1\n      0x4018d9aa\n      swap1\n        /* \"#utility.yul\":946:964   */\n      0x24\n      add\n        /* \"contracts/CallOther.sol\":477:493  _callee.setX(_x) */\n    tag_19:\n      0x20\n      mload(0x40)\n      dup1\n      dup4\n      sub\n      dup2\n      0x00\n      dup8\n      gas\n      call\n      iszero\n      dup1\n      iszero\n      tag_22\n      jumpi\n      returndatasize\n      0x00\n      dup1\n      returndatacopy\n      revert(0x00, returndatasize)\n    tag_22:\n      pop\n      pop\n      pop\n      pop\n      mload(0x40)\n      returndatasize\n      not(0x1f)\n      0x1f\n      dup3\n      add\n      and\n      dup3\n      add\n      dup1\n      0x40\n      mstore\n      pop\n      dup2\n      add\n      swap1\n      tag_23\n      swap2\n      swap1\n      tag_24\n      jump\t// in\n    tag_23:\n      pop\n      pop\n      pop\n      pop\n        /* \"contracts/CallOther.sol\":411:501  function setX(Callee _callee, uint _x) public {... */\n      jump\t// out\n        /* \"contracts/CallOther.sol\":509:639  function setXFromAddress(address _addr, uint _x) public {... */\n    tag_14:\n        /* \"contracts/CallOther.sol\":616:631  callee.setX(_x) */\n      mload(0x40)\n      shl(0xe1, 0x200c6cd5)\n      dup2\n      mstore\n      0x04\n      dup2\n      add\n        /* \"#utility.yul\":973:998   */\n      dup3\n      swap1\n      mstore\n        /* \"contracts/CallOther.sol\":599:604  _addr */\n      dup3\n      swap1\n      sub(shl(0xa0, 0x01), 0x01)\n        /* \"contracts/CallOther.sol\":616:627  callee.setX */\n      dup3\n      and\n      swap1\n      0x4018d9aa\n      swap1\n        /* \"#utility.yul\":946:964   */\n      0x24\n      add\n        /* \"contracts/CallOther.sol\":616:631  callee.setX(_x) */\n      tag_19\n        /* \"#utility.yul\":827:1004   */\n      jump\n        /* \"contracts/CallOther.sol\":647:801  function setXandSendEther(Callee _callee, uint _x) public payable {... */\n    tag_17:\n        /* \"contracts/CallOther.sol\":725:731  uint x */\n      0x00\n        /* \"contracts/CallOther.sol\":733:743  uint value */\n      dup1\n        /* \"contracts/CallOther.sol\":747:754  _callee */\n      dup4\n      sub(shl(0xa0, 0x01), 0x01)\n        /* \"contracts/CallOther.sol\":747:771  _callee.setXandSendEther */\n      and\n      0xcdc23076\n        /* \"contracts/CallOther.sol\":779:788  msg.value */\n      callvalue\n        /* \"contracts/CallOther.sol\":790:792  _x */\n      dup6\n        /* \"contracts/CallOther.sol\":747:793  _callee.setXandSendEther{value: msg.value}(_x) */\n      mload(0x40)\n      dup4\n      0xffffffff\n      and\n      0xe0\n      shl\n      dup2\n      mstore\n      0x04\n      add\n      tag_31\n      swap2\n        /* \"#utility.yul\":973:998   */\n      dup2\n      mstore\n        /* \"#utility.yul\":961:963   */\n      0x20\n        /* \"#utility.yul\":946:964   */\n      add\n      swap1\n        /* \"#utility.yul\":827:1004   */\n      jump\n        /* \"contracts/CallOther.sol\":747:793  _callee.setXandSendEther{value: msg.value}(_x) */\n    tag_31:\n      0x40\n      dup1\n      mload\n      dup1\n      dup4\n      sub\n      dup2\n      dup6\n      dup9\n      gas\n      call\n      iszero\n      dup1\n      iszero\n      tag_33\n      jumpi\n      returndatasize\n      0x00\n      dup1\n      returndatacopy\n      revert(0x00, returndatasize)\n    tag_33:\n      pop\n      pop\n      pop\n      pop\n      pop\n      mload(0x40)\n      returndatasize\n      not(0x1f)\n      0x1f\n      dup3\n      add\n      and\n      dup3\n      add\n      dup1\n      0x40\n      mstore\n      pop\n      dup2\n      add\n      swap1\n      tag_34\n      swap2\n      swap1\n      tag_35\n      jump\t// in\n    tag_34:\n      pop\n      pop\n      pop\n      pop\n      pop\n      pop\n        /* \"contracts/CallOther.sol\":647:801  function setXandSendEther(Callee _callee, uint _x) public payable {... */\n      jump\t// out\n        /* \"#utility.yul\":14:153   */\n    tag_36:\n      sub(shl(0xa0, 0x01), 0x01)\n        /* \"#utility.yul\":97:128   */\n      dup2\n      and\n        /* \"#utility.yul\":87:129   */\n      dup2\n      eq\n        /* \"#utility.yul\":77:147   */\n      tag_39\n      jumpi\n        /* \"#utility.yul\":143:144   */\n      0x00\n        /* \"#utility.yul\":140:141   */\n      dup1\n        /* \"#utility.yul\":133:145   */\n      revert\n        /* \"#utility.yul\":77:147   */\n    tag_39:\n        /* \"#utility.yul\":14:153   */\n      pop\n      jump\t// out\n        /* \"#utility.yul\":158:494   */\n    tag_8:\n        /* \"#utility.yul\":239:245   */\n      0x00\n        /* \"#utility.yul\":247:253   */\n      dup1\n        /* \"#utility.yul\":300:302   */\n      0x40\n        /* \"#utility.yul\":288:297   */\n      dup4\n        /* \"#utility.yul\":279:286   */\n      dup6\n        /* \"#utility.yul\":275:298   */\n      sub\n        /* \"#utility.yul\":271:303   */\n      slt\n        /* \"#utility.yul\":268:320   */\n      iszero\n      tag_41\n      jumpi\n        /* \"#utility.yul\":316:317   */\n      0x00\n        /* \"#utility.yul\":313:314   */\n      dup1\n        /* \"#utility.yul\":306:318   */\n      revert\n        /* \"#utility.yul\":268:320   */\n    tag_41:\n        /* \"#utility.yul\":355:364   */\n      dup3\n        /* \"#utility.yul\":342:365   */\n      calldataload\n        /* \"#utility.yul\":374:413   */\n      tag_42\n        /* \"#utility.yul\":407:412   */\n      dup2\n        /* \"#utility.yul\":374:413   */\n      tag_36\n      jump\t// in\n    tag_42:\n        /* \"#utility.yul\":432:437   */\n      swap5\n        /* \"#utility.yul\":484:486   */\n      0x20\n        /* \"#utility.yul\":469:487   */\n      swap4\n      swap1\n      swap4\n      add\n        /* \"#utility.yul\":456:488   */\n      calldataload\n      swap4\n      pop\n      pop\n      pop\n        /* \"#utility.yul\":158:494   */\n      jump\t// out\n        /* \"#utility.yul\":1009:1193   */\n    tag_24:\n        /* \"#utility.yul\":1079:1085   */\n      0x00\n        /* \"#utility.yul\":1132:1134   */\n      0x20\n        /* \"#utility.yul\":1120:1129   */\n      dup3\n        /* \"#utility.yul\":1111:1118   */\n      dup5\n        /* \"#utility.yul\":1107:1130   */\n      sub\n        /* \"#utility.yul\":1103:1135   */\n      slt\n        /* \"#utility.yul\":1100:1152   */\n      iszero\n      tag_48\n      jumpi\n        /* \"#utility.yul\":1148:1149   */\n      0x00\n        /* \"#utility.yul\":1145:1146   */\n      dup1\n        /* \"#utility.yul\":1138:1150   */\n      revert\n        /* \"#utility.yul\":1100:1152   */\n    tag_48:\n      pop\n        /* \"#utility.yul\":1171:1187   */\n      mload\n      swap2\n        /* \"#utility.yul\":1009:1193   */\n      swap1\n      pop\n      jump\t// out\n        /* \"#utility.yul\":1198:1443   */\n    tag_35:\n        /* \"#utility.yul\":1277:1283   */\n      0x00\n        /* \"#utility.yul\":1285:1291   */\n      dup1\n        /* \"#utility.yul\":1338:1340   */\n      0x40\n        /* \"#utility.yul\":1326:1335   */\n      dup4\n        /* \"#utility.yul\":1317:1324   */\n      dup6\n        /* \"#utility.yul\":1313:1336   */\n      sub\n        /* \"#utility.yul\":1309:1341   */\n      slt\n        /* \"#utility.yul\":1306:1358   */\n      iszero\n      tag_50\n      jumpi\n        /* \"#utility.yul\":1354:1355   */\n      0x00\n        /* \"#utility.yul\":1351:1352   */\n      dup1\n        /* \"#utility.yul\":1344:1356   */\n      revert\n        /* \"#utility.yul\":1306:1358   */\n    tag_50:\n      pop\n      pop\n        /* \"#utility.yul\":1377:1393   */\n      dup1\n      mload\n        /* \"#utility.yul\":1433:1435   */\n      0x20\n        /* \"#utility.yul\":1418:1436   */\n      swap1\n      swap2\n      add\n        /* \"#utility.yul\":1412:1437   */\n      mload\n        /* \"#utility.yul\":1377:1393   */\n      swap1\n      swap3\n        /* \"#utility.yul\":1412:1437   */\n      swap1\n      swap2\n      pop\n        /* \"#utility.yul\":1198:1443   */\n      jump\t// out\n\n    auxdata: 0xa2646970667358221220dc9330ed8a73adb2327986b6f2b345c6f403c8c01064df4712c5db4a7ac1285d64736f6c634300080d0033\n}\n",
				"bytecode": {
					"linkReferences": {},
					"object": "608060405234801561001057600080fd5b50610265806100206000396000f3fe6080604052600436106100345760003560e01c80634a2ad99f14610039578063cb5870391461005b578063d44abc421461007b575b600080fd5b34801561004557600080fd5b506100596100543660046101c6565b61008e565b005b34801561006757600080fd5b506100596100763660046101c6565b610103565b6100596100893660046101c6565b610132565b60405163200c6cd560e11b8152600481018290526000906001600160a01b03841690634018d9aa906024015b6020604051808303816000875af11580156100d9573d6000803e3d6000fd5b505050506040513d601f19601f820116820180604052508101906100fd91906101f2565b50505050565b60405163200c6cd560e11b81526004810182905282906001600160a01b03821690634018d9aa906024016100ba565b600080836001600160a01b031663cdc2307634856040518363ffffffff1660e01b815260040161016491815260200190565b604080518083038185885af1158015610181573d6000803e3d6000fd5b50505050506040513d601f19601f820116820180604052508101906101a6919061020b565b505050505050565b6001600160a01b03811681146101c357600080fd5b50565b600080604083850312156101d957600080fd5b82356101e4816101ae565b946020939093013593505050565b60006020828403121561020457600080fd5b5051919050565b6000806040838503121561021e57600080fd5b50508051602090910151909290915056fea2646970667358221220dc9330ed8a73adb2327986b6f2b345c6f403c8c01064df4712c5db4a7ac1285d64736f6c634300080d0033",
					"opcodes": "PUSH1 0x80 PUSH1 0x40 MSTORE CALLVALUE DUP1 ISZERO PUSH2 0x10 JUMPI PUSH1 0x0 DUP1 REVERT JUMPDEST POP PUSH2 0x265 DUP1 PUSH2 0x20 PUSH1 0x0 CODECOPY PUSH1 0x0 RETURN INVALID PUSH1 0x80 PUSH1 0x40 MSTORE PUSH1 0x4 CALLDATASIZE LT PUSH2 0x34 JUMPI PUSH1 0x0 CALLDATALOAD PUSH1 0xE0 SHR DUP1 PUSH4 0x4A2AD99F EQ PUSH2 0x39 JUMPI DUP1 PUSH4 0xCB587039 EQ PUSH2 0x5B JUMPI DUP1 PUSH4 0xD44ABC42 EQ PUSH2 0x7B JUMPI JUMPDEST PUSH1 0x0 DUP1 REVERT JUMPDEST CALLVALUE DUP1 ISZERO PUSH2 0x45 JUMPI PUSH1 0x0 DUP1 REVERT JUMPDEST POP PUSH2 0x59 PUSH2 0x54 CALLDATASIZE PUSH1 0x4 PUSH2 0x1C6 JUMP JUMPDEST PUSH2 0x8E JUMP JUMPDEST STOP JUMPDEST CALLVALUE DUP1 ISZERO PUSH2 0x67 JUMPI PUSH1 0x0 DUP1 REVERT JUMPDEST POP PUSH2 0x59 PUSH2 0x76 CALLDATASIZE PUSH1 0x4 PUSH2 0x1C6 JUMP JUMPDEST PUSH2 0x103 JUMP JUMPDEST PUSH2 0x59 PUSH2 0x89 CALLDATASIZE PUSH1 0x4 PUSH2 0x1C6 JUMP JUMPDEST PUSH2 0x132 JUMP JUMPDEST PUSH1 0x40 MLOAD PUSH4 0x200C6CD5 PUSH1 0xE1 SHL DUP2 MSTORE PUSH1 0x4 DUP2 ADD DUP3 SWAP1 MSTORE PUSH1 0x0 SWAP1 PUSH1 0x1 PUSH1 0x1 PUSH1 0xA0 SHL SUB DUP5 AND SWAP1 PUSH4 0x4018D9AA SWAP1 PUSH1 0x24 ADD JUMPDEST PUSH1 0x20 PUSH1 0x40 MLOAD DUP1 DUP4 SUB DUP2 PUSH1 0x0 DUP8 GAS CALL ISZERO DUP1 ISZERO PUSH2 0xD9 JUMPI RETURNDATASIZE PUSH1 0x0 DUP1 RETURNDATACOPY RETURNDATASIZE PUSH1 0x0 REVERT JUMPDEST POP POP POP POP PUSH1 0x40 MLOAD RETURNDATASIZE PUSH1 0x1F NOT PUSH1 0x1F DUP3 ADD AND DUP3 ADD DUP1 PUSH1 0x40 MSTORE POP DUP2 ADD SWAP1 PUSH2 0xFD SWAP2 SWAP1 PUSH2 0x1F2 JUMP JUMPDEST POP POP POP POP JUMP JUMPDEST PUSH1 0x40 MLOAD PUSH4 0x200C6CD5 PUSH1 0xE1 SHL DUP2 MSTORE PUSH1 0x4 DUP2 ADD DUP3 SWAP1 MSTORE DUP3 SWAP1 PUSH1 0x1 PUSH1 0x1 PUSH1 0xA0 SHL SUB DUP3 AND SWAP1 PUSH4 0x4018D9AA SWAP1 PUSH1 0x24 ADD PUSH2 0xBA JUMP JUMPDEST PUSH1 0x0 DUP1 DUP4 PUSH1 0x1 PUSH1 0x1 PUSH1 0xA0 SHL SUB AND PUSH4 0xCDC23076 CALLVALUE DUP6 PUSH1 0x40 MLOAD DUP4 PUSH4 0xFFFFFFFF AND PUSH1 0xE0 SHL DUP2 MSTORE PUSH1 0x4 ADD PUSH2 0x164 SWAP2 DUP2 MSTORE PUSH1 0x20 ADD SWAP1 JUMP JUMPDEST PUSH1 0x40 DUP1 MLOAD DUP1 DUP4 SUB DUP2 DUP6 DUP9 GAS CALL ISZERO DUP1 ISZERO PUSH2 0x181 JUMPI RETURNDATASIZE PUSH1 0x0 DUP1 RETURNDATACOPY RETURNDATASIZE PUSH1 0x0 REVERT JUMPDEST POP POP POP POP POP PUSH1 0x40 MLOAD RETURNDATASIZE PUSH1 0x1F NOT PUSH1 0x1F DUP3 ADD AND DUP3 ADD DUP1 PUSH1 0x40 MSTORE POP DUP2 ADD SWAP1 PUSH2 0x1A6 SWAP2 SWAP1 PUSH2 0x20B JUMP JUMPDEST POP POP POP POP POP POP JUMP JUMPDEST PUSH1 0x1 PUSH1 0x1 PUSH1 0xA0 SHL SUB DUP2 AND DUP2 EQ PUSH2 0x1C3 JUMPI PUSH1 0x0 DUP1 REVERT JUMPDEST POP JUMP JUMPDEST PUSH1 0x0 DUP1 PUSH1 0x40 DUP4 DUP6 SUB SLT ISZERO PUSH2 0x1D9 JUMPI PUSH1 0x0 DUP1 REVERT JUMPDEST DUP3 CALLDATALOAD PUSH2 0x1E4 DUP2 PUSH2 0x1AE JUMP JUMPDEST SWAP5 PUSH1 0x20 SWAP4 SWAP1 SWAP4 ADD CALLDATALOAD SWAP4 POP POP POP JUMP JUMPDEST PUSH1 0x0 PUSH1 0x20 DUP3 DUP5 SUB SLT ISZERO PUSH2 0x204 JUMPI PUSH1 0x0 DUP1 REVERT JUMPDEST POP MLOAD SWAP2 SWAP1 POP JUMP JUMPDEST PUSH1 0x0 DUP1 PUSH1 0x40 DUP4 DUP6 SUB SLT ISZERO PUSH2 0x21E JUMPI PUSH1 0x0 DUP1 REVERT JUMPDEST POP POP DUP1 MLOAD PUSH1 0x20 SWAP1 SWAP2 ADD MLOAD SWAP1 SWAP3 SWAP1 SWAP2 POP JUMP INVALID LOG2 PUSH5 0x6970667358 0x22 SLT KECCAK256 0xDC SWAP4 ADDRESS 0xED DUP11 PUSH20 0xADB2327986B6F2B345C6F403C8C01064DF4712C5 0xDB 0x4A PUSH27 0xC1285D64736F6C634300080D003300000000000000000000000000 "
				},
				"gasEstimates": {
					"creation": {
						"codeDepositCost": "122600",
						"executionCost": "171",
						"totalCost": "122771"
					},
					"external": {
						"setX(address,uint256)": "infinite",
						"setXFromAddress(address,uint256)": "infinite",
						"setXandSendEther(address,uint256)": "infinite"
					}
				},
				"methodIdentifiers": {
					"setX(address,uint256)": "4a2ad99f",
					"setXFromAddress(address,uint256)": "cb587039",
					"setXandSendEther(address,uint256)": "d44abc42"
				}
			},
			"storageLayout": {
				"storage": [],
				"types": null
			},
			"userdoc": {
				"kind": "user",
				"methods": {},
				"version": 1
			}
		}
	}
}