{
	"data": {
		"bytecode": {
			"linkReferences": {},
			"object": "6080604052600160005534801561001557600080fd5b50610132806100256000396000f3fe6080604052348015600f57600080fd5b5060043610603c5760003560e01c80630c55699c1460415780635965da7714605b578063771602f714606a575b600080fd5b604960005481565b60405190815260200160405180910390f35b60496066366004609e565b6079565b6049607536600460b6565b608d565b6000816000546087919060d7565b92915050565b60006097828460d7565b9392505050565b60006020828403121560af57600080fd5b5035919050565b6000806040838503121560c857600080fd5b50508035926020909101359150565b6000821982111560f757634e487b7160e01b600052601160045260246000fd5b50019056fea26469706673582212205d35cf26a63dd679246e92860e21ad59a0f3fd5938d56fd1a8bb146fc76b112c64736f6c634300080d0033",
			"opcodes": "PUSH1 0x80 PUSH1 0x40 MSTORE PUSH1 0x1 PUSH1 0x0 SSTORE CALLVALUE DUP1 ISZERO PUSH2 0x15 JUMPI PUSH1 0x0 DUP1 REVERT JUMPDEST POP PUSH2 0x132 DUP1 PUSH2 0x25 PUSH1 0x0 CODECOPY PUSH1 0x0 RETURN INVALID PUSH1 0x80 PUSH1 0x40 MSTORE CALLVALUE DUP1 ISZERO PUSH1 0xF JUMPI PUSH1 0x0 DUP1 REVERT JUMPDEST POP PUSH1 0x4 CALLDATASIZE LT PUSH1 0x3C JUMPI PUSH1 0x0 CALLDATALOAD PUSH1 0xE0 SHR DUP1 PUSH4 0xC55699C EQ PUSH1 0x41 JUMPI DUP1 PUSH4 0x5965DA77 EQ PUSH1 0x5B JUMPI DUP1 PUSH4 0x771602F7 EQ PUSH1 0x6A JUMPI JUMPDEST PUSH1 0x0 DUP1 REVERT JUMPDEST PUSH1 0x49 PUSH1 0x0 SLOAD DUP2 JUMP JUMPDEST PUSH1 0x40 MLOAD SWAP1 DUP2 MSTORE PUSH1 0x20 ADD PUSH1 0x40 MLOAD DUP1 SWAP2 SUB SWAP1 RETURN JUMPDEST PUSH1 0x49 PUSH1 0x66 CALLDATASIZE PUSH1 0x4 PUSH1 0x9E JUMP JUMPDEST PUSH1 0x79 JUMP JUMPDEST PUSH1 0x49 PUSH1 0x75 CALLDATASIZE PUSH1 0x4 PUSH1 0xB6 JUMP JUMPDEST PUSH1 0x8D JUMP JUMPDEST PUSH1 0x0 DUP2 PUSH1 0x0 SLOAD PUSH1 0x87 SWAP2 SWAP1 PUSH1 0xD7 JUMP JUMPDEST SWAP3 SWAP2 POP POP JUMP JUMPDEST PUSH1 0x0 PUSH1 0x97 DUP3 DUP5 PUSH1 0xD7 JUMP JUMPDEST SWAP4 SWAP3 POP POP POP JUMP JUMPDEST PUSH1 0x0 PUSH1 0x20 DUP3 DUP5 SUB SLT ISZERO PUSH1 0xAF JUMPI PUSH1 0x0 DUP1 REVERT JUMPDEST POP CALLDATALOAD SWAP2 SWAP1 POP JUMP JUMPDEST PUSH1 0x0 DUP1 PUSH1 0x40 DUP4 DUP6 SUB SLT ISZERO PUSH1 0xC8 JUMPI PUSH1 0x0 DUP1 REVERT JUMPDEST POP POP DUP1 CALLDATALOAD SWAP3 PUSH1 0x20 SWAP1 SWAP2 ADD CALLDATALOAD SWAP2 POP JUMP JUMPDEST PUSH1 0x0 DUP3 NOT DUP3 GT ISZERO PUSH1 0xF7 JUMPI PUSH4 0x4E487B71 PUSH1 0xE0 SHL PUSH1 0x0 MSTORE PUSH1 0x11 PUSH1 0x4 MSTORE PUSH1 0x24 PUSH1 0x0 REVERT JUMPDEST POP ADD SWAP1 JUMP INVALID LOG2 PUSH5 0x6970667358 0x22 SLT KECCAK256 0x5D CALLDATALOAD 0xCF 0x26 0xA6 RETURNDATASIZE 0xD6 PUSH26 0x246E92860E21AD59A0F3FD5938D56FD1A8BB146FC76B112C6473 PUSH16 0x6C634300080D00330000000000000000 "
		},
		"gasEstimates": {
			"creation": {
				"codeDepositCost": "61200",
				"executionCost": "22217",
				"totalCost": "83417"
			},
			"external": {
				"add(uint256,uint256)": "396",
				"addToX(uint256)": "2455",
				"x()": "2261"
			}
		},
		"methodIdentifiers": {
			"add(uint256,uint256)": "771602f7",
			"addToX(uint256)": "5965da77",
			"x()": "0c55699c"
		}
	},
	"abi": [
		{
			"inputs": [
				{
					"internalType": "uint256",
					"name": "i",
					"type": "uint256"
				},
				{
					"internalType": "uint256",
					"name": "j",
					"type": "uint256"
				}
			],
			"name": "add",
			"outputs": [
				{
					"internalType": "uint256",
					"name": "",
					"type": "uint256"
				}
			],
			"stateMutability": "pure",
			"type": "function"
		},
		{
			"inputs": [
				{
					"internalType": "uint256",
					"name": "y",
					"type": "uint256"
				}
			],
			"name": "addToX",
			"outputs": [
				{
					"internalType": "uint256",
					"name": "",
					"type": "uint256"
				}
			],
			"stateMutability": "view",
			"type": "function"
		},
		{
			"inputs": [],
			"name": "x",
			"outputs": [
				{
					"internalType": "uint256",
					"name": "",
					"type": "uint256"
				}
			],
			"stateMutability": "view",
			"type": "function"
		}
	]
}